{
  "contractName": "Bridge",
  "abi": [
    {
      "inputs": [
        {
          "internalType": "uint8",
          "name": "chainID",
          "type": "uint8"
        },
        {
          "internalType": "address[]",
          "name": "initialRelayers",
          "type": "address[]"
        },
        {
          "internalType": "uint256",
          "name": "initialRelayerThreshold",
          "type": "uint256"
        },
        {
          "internalType": "uint256",
          "name": "fee",
          "type": "uint256"
        },
        {
          "internalType": "uint256",
          "name": "expiry",
          "type": "uint256"
        }
      ],
      "stateMutability": "nonpayable",
      "type": "constructor"
    },
    {
      "anonymous": false,
      "inputs": [
        {
          "indexed": true,
          "internalType": "uint8",
          "name": "destinationChainID",
          "type": "uint8"
        },
        {
          "indexed": true,
          "internalType": "bytes32",
          "name": "resourceID",
          "type": "bytes32"
        },
        {
          "indexed": true,
          "internalType": "uint64",
          "name": "depositNonce",
          "type": "uint64"
        }
      ],
      "name": "Deposit",
      "type": "event"
    },
    {
      "anonymous": false,
      "inputs": [
        {
          "indexed": false,
          "internalType": "address",
          "name": "account",
          "type": "address"
        }
      ],
      "name": "Paused",
      "type": "event"
    },
    {
      "anonymous": false,
      "inputs": [
        {
          "indexed": true,
          "internalType": "uint8",
          "name": "originChainID",
          "type": "uint8"
        },
        {
          "indexed": true,
          "internalType": "uint64",
          "name": "depositNonce",
          "type": "uint64"
        },
        {
          "indexed": true,
          "internalType": "enum Bridge.ProposalStatus",
          "name": "status",
          "type": "uint8"
        },
        {
          "indexed": false,
          "internalType": "bytes32",
          "name": "resourceID",
          "type": "bytes32"
        },
        {
          "indexed": false,
          "internalType": "bytes32",
          "name": "dataHash",
          "type": "bytes32"
        }
      ],
      "name": "ProposalEvent",
      "type": "event"
    },
    {
      "anonymous": false,
      "inputs": [
        {
          "indexed": true,
          "internalType": "uint8",
          "name": "originChainID",
          "type": "uint8"
        },
        {
          "indexed": true,
          "internalType": "uint64",
          "name": "depositNonce",
          "type": "uint64"
        },
        {
          "indexed": true,
          "internalType": "enum Bridge.ProposalStatus",
          "name": "status",
          "type": "uint8"
        },
        {
          "indexed": false,
          "internalType": "bytes32",
          "name": "resourceID",
          "type": "bytes32"
        }
      ],
      "name": "ProposalVote",
      "type": "event"
    },
    {
      "anonymous": false,
      "inputs": [
        {
          "indexed": true,
          "internalType": "address",
          "name": "relayer",
          "type": "address"
        }
      ],
      "name": "RelayerAdded",
      "type": "event"
    },
    {
      "anonymous": false,
      "inputs": [
        {
          "indexed": true,
          "internalType": "address",
          "name": "relayer",
          "type": "address"
        }
      ],
      "name": "RelayerRemoved",
      "type": "event"
    },
    {
      "anonymous": false,
      "inputs": [
        {
          "indexed": true,
          "internalType": "uint256",
          "name": "newThreshold",
          "type": "uint256"
        }
      ],
      "name": "RelayerThresholdChanged",
      "type": "event"
    },
    {
      "anonymous": false,
      "inputs": [
        {
          "indexed": true,
          "internalType": "bytes32",
          "name": "role",
          "type": "bytes32"
        },
        {
          "indexed": true,
          "internalType": "bytes32",
          "name": "previousAdminRole",
          "type": "bytes32"
        },
        {
          "indexed": true,
          "internalType": "bytes32",
          "name": "newAdminRole",
          "type": "bytes32"
        }
      ],
      "name": "RoleAdminChanged",
      "type": "event"
    },
    {
      "anonymous": false,
      "inputs": [
        {
          "indexed": true,
          "internalType": "bytes32",
          "name": "role",
          "type": "bytes32"
        },
        {
          "indexed": true,
          "internalType": "address",
          "name": "account",
          "type": "address"
        },
        {
          "indexed": true,
          "internalType": "address",
          "name": "sender",
          "type": "address"
        }
      ],
      "name": "RoleGranted",
      "type": "event"
    },
    {
      "anonymous": false,
      "inputs": [
        {
          "indexed": true,
          "internalType": "bytes32",
          "name": "role",
          "type": "bytes32"
        },
        {
          "indexed": true,
          "internalType": "address",
          "name": "account",
          "type": "address"
        },
        {
          "indexed": true,
          "internalType": "address",
          "name": "sender",
          "type": "address"
        }
      ],
      "name": "RoleRevoked",
      "type": "event"
    },
    {
      "anonymous": false,
      "inputs": [
        {
          "indexed": false,
          "internalType": "address",
          "name": "account",
          "type": "address"
        }
      ],
      "name": "Unpaused",
      "type": "event"
    },
    {
      "inputs": [],
      "name": "DEFAULT_ADMIN_ROLE",
      "outputs": [
        {
          "internalType": "bytes32",
          "name": "",
          "type": "bytes32"
        }
      ],
      "stateMutability": "view",
      "type": "function"
    },
    {
      "inputs": [],
      "name": "RELAYER_ROLE",
      "outputs": [
        {
          "internalType": "bytes32",
          "name": "",
          "type": "bytes32"
        }
      ],
      "stateMutability": "view",
      "type": "function"
    },
    {
      "inputs": [],
      "name": "_chainID",
      "outputs": [
        {
          "internalType": "uint8",
          "name": "",
          "type": "uint8"
        }
      ],
      "stateMutability": "view",
      "type": "function"
    },
    {
      "inputs": [
        {
          "internalType": "uint8",
          "name": "",
          "type": "uint8"
        }
      ],
      "name": "_depositCounts",
      "outputs": [
        {
          "internalType": "uint64",
          "name": "",
          "type": "uint64"
        }
      ],
      "stateMutability": "view",
      "type": "function"
    },
    {
      "inputs": [
        {
          "internalType": "uint64",
          "name": "",
          "type": "uint64"
        },
        {
          "internalType": "uint8",
          "name": "",
          "type": "uint8"
        }
      ],
      "name": "_depositRecords",
      "outputs": [
        {
          "internalType": "bytes",
          "name": "",
          "type": "bytes"
        }
      ],
      "stateMutability": "view",
      "type": "function"
    },
    {
      "inputs": [],
      "name": "_expiry",
      "outputs": [
        {
          "internalType": "uint256",
          "name": "",
          "type": "uint256"
        }
      ],
      "stateMutability": "view",
      "type": "function"
    },
    {
      "inputs": [],
      "name": "_fee",
      "outputs": [
        {
          "internalType": "uint256",
          "name": "",
          "type": "uint256"
        }
      ],
      "stateMutability": "view",
      "type": "function"
    },
    {
      "inputs": [
        {
          "internalType": "uint72",
          "name": "",
          "type": "uint72"
        },
        {
          "internalType": "bytes32",
          "name": "",
          "type": "bytes32"
        },
        {
          "internalType": "address",
          "name": "",
          "type": "address"
        }
      ],
      "name": "_hasVotedOnProposal",
      "outputs": [
        {
          "internalType": "bool",
          "name": "",
          "type": "bool"
        }
      ],
      "stateMutability": "view",
      "type": "function"
    },
    {
      "inputs": [
        {
          "internalType": "uint72",
          "name": "",
          "type": "uint72"
        },
        {
          "internalType": "bytes32",
          "name": "",
          "type": "bytes32"
        }
      ],
      "name": "_proposals",
      "outputs": [
        {
          "internalType": "bytes32",
          "name": "_resourceID",
          "type": "bytes32"
        },
        {
          "internalType": "bytes32",
          "name": "_dataHash",
          "type": "bytes32"
        },
        {
          "internalType": "enum Bridge.ProposalStatus",
          "name": "_status",
          "type": "uint8"
        },
        {
          "internalType": "uint256",
          "name": "_proposedBlock",
          "type": "uint256"
        }
      ],
      "stateMutability": "view",
      "type": "function"
    },
    {
      "inputs": [],
      "name": "_relayerThreshold",
      "outputs": [
        {
          "internalType": "uint256",
          "name": "",
          "type": "uint256"
        }
      ],
      "stateMutability": "view",
      "type": "function"
    },
    {
      "inputs": [
        {
          "internalType": "bytes32",
          "name": "",
          "type": "bytes32"
        }
      ],
      "name": "_resourceIDToHandlerAddress",
      "outputs": [
        {
          "internalType": "address",
          "name": "",
          "type": "address"
        }
      ],
      "stateMutability": "view",
      "type": "function"
    },
    {
      "inputs": [],
      "name": "_totalProposals",
      "outputs": [
        {
          "internalType": "uint256",
          "name": "",
          "type": "uint256"
        }
      ],
      "stateMutability": "view",
      "type": "function"
    },
    {
      "inputs": [],
      "name": "_totalRelayers",
      "outputs": [
        {
          "internalType": "uint256",
          "name": "",
          "type": "uint256"
        }
      ],
      "stateMutability": "view",
      "type": "function"
    },
    {
      "inputs": [
        {
          "internalType": "bytes32",
          "name": "role",
          "type": "bytes32"
        }
      ],
      "name": "getRoleAdmin",
      "outputs": [
        {
          "internalType": "bytes32",
          "name": "",
          "type": "bytes32"
        }
      ],
      "stateMutability": "view",
      "type": "function"
    },
    {
      "inputs": [
        {
          "internalType": "bytes32",
          "name": "role",
          "type": "bytes32"
        },
        {
          "internalType": "uint256",
          "name": "index",
          "type": "uint256"
        }
      ],
      "name": "getRoleMember",
      "outputs": [
        {
          "internalType": "address",
          "name": "",
          "type": "address"
        }
      ],
      "stateMutability": "view",
      "type": "function"
    },
    {
      "inputs": [
        {
          "internalType": "bytes32",
          "name": "role",
          "type": "bytes32"
        }
      ],
      "name": "getRoleMemberCount",
      "outputs": [
        {
          "internalType": "uint256",
          "name": "",
          "type": "uint256"
        }
      ],
      "stateMutability": "view",
      "type": "function"
    },
    {
      "inputs": [
        {
          "internalType": "bytes32",
          "name": "role",
          "type": "bytes32"
        },
        {
          "internalType": "address",
          "name": "account",
          "type": "address"
        }
      ],
      "name": "grantRole",
      "outputs": [],
      "stateMutability": "nonpayable",
      "type": "function"
    },
    {
      "inputs": [
        {
          "internalType": "bytes32",
          "name": "role",
          "type": "bytes32"
        },
        {
          "internalType": "address",
          "name": "account",
          "type": "address"
        }
      ],
      "name": "hasRole",
      "outputs": [
        {
          "internalType": "bool",
          "name": "",
          "type": "bool"
        }
      ],
      "stateMutability": "view",
      "type": "function"
    },
    {
      "inputs": [],
      "name": "paused",
      "outputs": [
        {
          "internalType": "bool",
          "name": "",
          "type": "bool"
        }
      ],
      "stateMutability": "view",
      "type": "function"
    },
    {
      "inputs": [
        {
          "internalType": "bytes32",
          "name": "role",
          "type": "bytes32"
        },
        {
          "internalType": "address",
          "name": "account",
          "type": "address"
        }
      ],
      "name": "renounceRole",
      "outputs": [],
      "stateMutability": "nonpayable",
      "type": "function"
    },
    {
      "inputs": [
        {
          "internalType": "bytes32",
          "name": "role",
          "type": "bytes32"
        },
        {
          "internalType": "address",
          "name": "account",
          "type": "address"
        }
      ],
      "name": "revokeRole",
      "outputs": [],
      "stateMutability": "nonpayable",
      "type": "function"
    },
    {
      "inputs": [
        {
          "internalType": "address",
          "name": "relayer",
          "type": "address"
        }
      ],
      "name": "isRelayer",
      "outputs": [
        {
          "internalType": "bool",
          "name": "",
          "type": "bool"
        }
      ],
      "stateMutability": "view",
      "type": "function"
    },
    {
      "inputs": [
        {
          "internalType": "address",
          "name": "newAdmin",
          "type": "address"
        }
      ],
      "name": "renounceAdmin",
      "outputs": [],
      "stateMutability": "nonpayable",
      "type": "function"
    },
    {
      "inputs": [],
      "name": "adminPauseTransfers",
      "outputs": [],
      "stateMutability": "nonpayable",
      "type": "function"
    },
    {
      "inputs": [],
      "name": "adminUnpauseTransfers",
      "outputs": [],
      "stateMutability": "nonpayable",
      "type": "function"
    },
    {
      "inputs": [
        {
          "internalType": "uint256",
          "name": "newThreshold",
          "type": "uint256"
        }
      ],
      "name": "adminChangeRelayerThreshold",
      "outputs": [],
      "stateMutability": "nonpayable",
      "type": "function"
    },
    {
      "inputs": [
        {
          "internalType": "address",
          "name": "relayerAddress",
          "type": "address"
        }
      ],
      "name": "adminAddRelayer",
      "outputs": [],
      "stateMutability": "nonpayable",
      "type": "function"
    },
    {
      "inputs": [
        {
          "internalType": "address",
          "name": "relayerAddress",
          "type": "address"
        }
      ],
      "name": "adminRemoveRelayer",
      "outputs": [],
      "stateMutability": "nonpayable",
      "type": "function"
    },
    {
      "inputs": [
        {
          "internalType": "address",
          "name": "handlerAddress",
          "type": "address"
        },
        {
          "internalType": "bytes32",
          "name": "resourceID",
          "type": "bytes32"
        },
        {
          "internalType": "address",
          "name": "tokenAddress",
          "type": "address"
        }
      ],
      "name": "adminSetResource",
      "outputs": [],
      "stateMutability": "nonpayable",
      "type": "function"
    },
    {
      "inputs": [
        {
          "internalType": "address",
          "name": "handlerAddress",
          "type": "address"
        },
        {
          "internalType": "bytes32",
          "name": "resourceID",
          "type": "bytes32"
        },
        {
          "internalType": "address",
          "name": "contractAddress",
          "type": "address"
        },
        {
          "internalType": "bytes4",
          "name": "depositFunctionSig",
          "type": "bytes4"
        },
        {
          "internalType": "bytes4",
          "name": "executeFunctionSig",
          "type": "bytes4"
        }
      ],
      "name": "adminSetGenericResource",
      "outputs": [],
      "stateMutability": "nonpayable",
      "type": "function"
    },
    {
      "inputs": [
        {
          "internalType": "address",
          "name": "handlerAddress",
          "type": "address"
        },
        {
          "internalType": "address",
          "name": "tokenAddress",
          "type": "address"
        }
      ],
      "name": "adminSetBurnable",
      "outputs": [],
      "stateMutability": "nonpayable",
      "type": "function"
    },
    {
      "inputs": [
        {
          "internalType": "uint8",
          "name": "originChainID",
          "type": "uint8"
        },
        {
          "internalType": "uint64",
          "name": "depositNonce",
          "type": "uint64"
        },
        {
          "internalType": "bytes32",
          "name": "dataHash",
          "type": "bytes32"
        }
      ],
      "name": "getProposal",
      "outputs": [
        {
          "components": [
            {
              "internalType": "bytes32",
              "name": "_resourceID",
              "type": "bytes32"
            },
            {
              "internalType": "bytes32",
              "name": "_dataHash",
              "type": "bytes32"
            },
            {
              "internalType": "address[]",
              "name": "_yesVotes",
              "type": "address[]"
            },
            {
              "internalType": "address[]",
              "name": "_noVotes",
              "type": "address[]"
            },
            {
              "internalType": "enum Bridge.ProposalStatus",
              "name": "_status",
              "type": "uint8"
            },
            {
              "internalType": "uint256",
              "name": "_proposedBlock",
              "type": "uint256"
            }
          ],
          "internalType": "struct Bridge.Proposal",
          "name": "",
          "type": "tuple"
        }
      ],
      "stateMutability": "view",
      "type": "function"
    },
    {
      "inputs": [
        {
          "internalType": "uint256",
          "name": "newFee",
          "type": "uint256"
        }
      ],
      "name": "adminChangeFee",
      "outputs": [],
      "stateMutability": "nonpayable",
      "type": "function"
    },
    {
      "inputs": [
        {
          "internalType": "address",
          "name": "handlerAddress",
          "type": "address"
        },
        {
          "internalType": "address",
          "name": "tokenAddress",
          "type": "address"
        },
        {
          "internalType": "address",
          "name": "recipient",
          "type": "address"
        },
        {
          "internalType": "uint256",
          "name": "amountOrTokenID",
          "type": "uint256"
        }
      ],
      "name": "adminWithdraw",
      "outputs": [],
      "stateMutability": "nonpayable",
      "type": "function"
    },
    {
      "inputs": [
        {
          "internalType": "uint8",
          "name": "destinationChainID",
          "type": "uint8"
        },
        {
          "internalType": "bytes32",
          "name": "resourceID",
          "type": "bytes32"
        },
        {
          "internalType": "bytes",
          "name": "data",
          "type": "bytes"
        }
      ],
      "name": "deposit",
      "outputs": [],
      "stateMutability": "payable",
      "type": "function"
    },
    {
      "inputs": [
        {
          "internalType": "uint8",
          "name": "chainID",
          "type": "uint8"
        },
        {
          "internalType": "uint64",
          "name": "depositNonce",
          "type": "uint64"
        },
        {
          "internalType": "bytes32",
          "name": "resourceID",
          "type": "bytes32"
        },
        {
          "internalType": "bytes32",
          "name": "dataHash",
          "type": "bytes32"
        }
      ],
      "name": "voteProposal",
      "outputs": [],
      "stateMutability": "nonpayable",
      "type": "function"
    },
    {
      "inputs": [
        {
          "internalType": "uint8",
          "name": "chainID",
          "type": "uint8"
        },
        {
          "internalType": "uint64",
          "name": "depositNonce",
          "type": "uint64"
        },
        {
          "internalType": "bytes32",
          "name": "dataHash",
          "type": "bytes32"
        }
      ],
      "name": "cancelProposal",
      "outputs": [],
      "stateMutability": "nonpayable",
      "type": "function"
    },
    {
      "inputs": [
        {
          "internalType": "uint8",
          "name": "chainID",
          "type": "uint8"
        },
        {
          "internalType": "uint64",
          "name": "depositNonce",
          "type": "uint64"
        },
        {
          "internalType": "bytes",
          "name": "data",
          "type": "bytes"
        },
        {
          "internalType": "bytes32",
          "name": "resourceID",
          "type": "bytes32"
        }
      ],
      "name": "executeProposal",
      "outputs": [],
      "stateMutability": "nonpayable",
      "type": "function"
    },
    {
      "inputs": [
        {
          "internalType": "address payable[]",
          "name": "addrs",
          "type": "address[]"
        },
        {
          "internalType": "uint256[]",
          "name": "amounts",
          "type": "uint256[]"
        }
      ],
      "name": "transferFunds",
      "outputs": [],
      "stateMutability": "nonpayable",
      "type": "function"
    }
  ],
  "bytecode": "0x60806040523480156200001157600080fd5b5060405162004db038038062004db083398181016040528101906200003791906200051d565b60008060006101000a81548160ff02191690831515021790555084600260006101000a81548160ff021916908360ff160217905550826003819055508160068190555080600781905550620000966000801b336200015060201b60201c565b620000cb7fe2b7fb3b832174769106daebcfd6d1970523240dda11281102db9363b83b0dc46000801b6200016660201b60201c565b60008451905060005b818110156200014357620001237fe2b7fb3b832174769106daebcfd6d1970523240dda11281102db9363b83b0dc48783815181106200010f57fe5b6020026020010151620001ca60201b60201c565b6004600081548092919060010191905055508080600101915050620000d4565b5050505050505062000743565b6200016282826200025960201b60201c565b5050565b806001600084815260200190815260200160002060020154837fbd79b86ffe0ab8e8776151514217cd7cacd52c909f66475c3af44e129f0b00ff60405160405180910390a48060016000848152602001908152602001600020600201819055505050565b620002016001600084815260200190815260200160002060020154620001f5620002fd60201b60201c565b6200030560201b60201c565b62000243576040517f08c379a00000000000000000000000000000000000000000000000000000000081526004016200023a9062000620565b60405180910390fd5b6200025582826200025960201b60201c565b5050565b6200028881600160008581526020019081526020016000206000016200033e60201b6200245e1790919060201c565b15620002f9576200029e620002fd60201b60201c565b73ffffffffffffffffffffffffffffffffffffffff168173ffffffffffffffffffffffffffffffffffffffff16837f2f8788117e7eff1d82e926ec794901d17c78024a50270940304540a733656f0d60405160405180910390a45b5050565b600033905090565b60006200033682600160008681526020019081526020016000206000016200037660201b6200248e1790919060201c565b905092915050565b60006200036e836000018373ffffffffffffffffffffffffffffffffffffffff1660001b620003ae60201b60201c565b905092915050565b6000620003a6836000018373ffffffffffffffffffffffffffffffffffffffff1660001b6200042860201b60201c565b905092915050565b6000620003c283836200042860201b60201c565b6200041d57826000018290806001815401808255809150506001900390600052602060002001600090919091909150558260000180549050836001016000848152602001908152602001600020819055506001905062000422565b600090505b92915050565b600080836001016000848152602001908152602001600020541415905092915050565b6000815190506200045c81620006f5565b92915050565b600082601f8301126200047457600080fd5b81516200048b620004858262000670565b62000642565b91508181835260208401935060208101905083856020840282011115620004b157600080fd5b60005b83811015620004e55781620004ca88826200044b565b845260208401935060208301925050600181019050620004b4565b5050505092915050565b60008151905062000500816200070f565b92915050565b600081519050620005178162000729565b92915050565b600080600080600060a086880312156200053657600080fd5b6000620005468882890162000506565b955050602086015167ffffffffffffffff8111156200056457600080fd5b620005728882890162000462565b94505060406200058588828901620004ef565b93505060606200059888828901620004ef565b9250506080620005ab88828901620004ef565b9150509295509295909350565b6000620005c7602f8362000699565b91507f416363657373436f6e74726f6c3a2073656e646572206d75737420626520616e60008301527f2061646d696e20746f206772616e7400000000000000000000000000000000006020830152604082019050919050565b600060208201905081810360008301526200063b81620005b8565b9050919050565b6000604051905081810181811067ffffffffffffffff821117156200066657600080fd5b8060405250919050565b600067ffffffffffffffff8211156200068857600080fd5b602082029050602081019050919050565b600082825260208201905092915050565b6000620006b782620006be565b9050919050565b600073ffffffffffffffffffffffffffffffffffffffff82169050919050565b6000819050919050565b600060ff82169050919050565b6200070081620006aa565b81146200070c57600080fd5b50565b6200071a81620006de565b81146200072657600080fd5b50565b6200073481620006e8565b81146200074057600080fd5b50565b61465d80620007536000396000f3fe6080604052600436106102305760003560e01c806384db809f1161012e578063beab7131116100ab578063cdb0f73a1161006f578063cdb0f73a14610877578063d547741f146108a0578063d7a9cd79146108c9578063e8437ee7146108f4578063ffaac0eb1461091d57610230565b8063beab713114610790578063c5b37c22146107bb578063c5ec8970146107e6578063ca15c87314610811578063cb10f2151461084e57610230565b8063926d7d7f116100f2578063926d7d7f146106a95780639d5773e0146106d45780639d82dd63146106ff578063a217fddf14610728578063a9cf69fa1461075357610230565b806384db809f146105a05780638c0c2631146105dd5780639010d07c1461060657806391c404ac1461064357806391d148541461066c57610230565b80634b0b919d116101bc5780635e1fab0f116101805780635e1fab0f146104cf578063780cf004146104f85780637febe63f14610521578063802aabe81461055e57806380ae1c281461058957610230565b80634b0b919d146103c15780634e056005146103fe5780635059871914610427578063541d5548146104675780635c975abb146104a457610230565b80632f2ff15d116102035780632f2ff15d146102e057806336568abe146103095780633ee7094a146103325780634454b20d1461036f5780634603ae381461039857610230565b806305e2ca171461023557806317f03ce5146102515780631ff013f11461027a578063248a9ca3146102a3575b600080fd5b61024f600480360381019061024a919061328d565b610934565b005b34801561025d57600080fd5b50610278600480360381019061027391906132f9565b610b91565b005b34801561028657600080fd5b506102a1600480360381019061029c9190613348565b610d3e565b005b3480156102af57600080fd5b506102ca60048036038101906102c591906130d3565b6114ed565b6040516102d79190613e25565b60405180910390f35b3480156102ec57600080fd5b50610307600480360381019061030291906130fc565b61150d565b005b34801561031557600080fd5b50610330600480360381019061032b91906130fc565b611581565b005b34801561033e57600080fd5b506103596004803603810190610354919061319d565b611604565b6040516103669190613faa565b60405180910390f35b34801561037b57600080fd5b50610396600480360381019061039191906133ab565b6116c1565b005b3480156103a457600080fd5b506103bf60048036038101906103ba919061305e565b611997565b005b3480156103cd57600080fd5b506103e860048036038101906103e39190613264565b611a88565b6040516103f5919061430b565b60405180910390f35b34801561040a57600080fd5b5061042560048036038101906104209190613174565b611aaf565b005b34801561043357600080fd5b5061044e600480360381019061044991906131d9565b611aee565b60405161045e9493929190613ed7565b60405180910390f35b34801561047357600080fd5b5061048e60048036038101906104899190612ea7565b611b38565b60405161049b9190613e0a565b60405180910390f35b3480156104b057600080fd5b506104b9611b6b565b6040516104c69190613e0a565b60405180910390f35b3480156104db57600080fd5b506104f660048036038101906104f19190612ea7565b611b81565b005b34801561050457600080fd5b5061051f600480360381019061051a9190612f35565b611ba6565b005b34801561052d57600080fd5b5061054860048036038101906105439190613215565b611c29565b6040516105559190613e0a565b60405180910390f35b34801561056a57600080fd5b50610573611c65565b60405161058091906142f0565b60405180910390f35b34801561059557600080fd5b5061059e611c6b565b005b3480156105ac57600080fd5b506105c760048036038101906105c291906130d3565b611c7d565b6040516105d49190613d9d565b60405180910390f35b3480156105e957600080fd5b5061060460048036038101906105ff9190612ef9565b611cb0565b005b34801561061257600080fd5b5061062d60048036038101906106289190613138565b611d2d565b60405161063a9190613d9d565b60405180910390f35b34801561064f57600080fd5b5061066a60048036038101906106659190613174565b611d5f565b005b34801561067857600080fd5b50610693600480360381019061068e91906130fc565b611db6565b6040516106a09190613e0a565b60405180910390f35b3480156106b557600080fd5b506106be611de8565b6040516106cb9190613e25565b60405180910390f35b3480156106e057600080fd5b506106e9611e0c565b6040516106f691906142f0565b60405180910390f35b34801561070b57600080fd5b5061072660048036038101906107219190612ea7565b611e12565b005b34801561073457600080fd5b5061073d611f06565b60405161074a9190613e25565b60405180910390f35b34801561075f57600080fd5b5061077a600480360381019061077591906132f9565b611f0d565b60405161078791906142ce565b60405180910390f35b34801561079c57600080fd5b506107a56120ee565b6040516107b29190614326565b60405180910390f35b3480156107c757600080fd5b506107d0612101565b6040516107dd91906142f0565b60405180910390f35b3480156107f257600080fd5b506107fb612107565b60405161080891906142f0565b60405180910390f35b34801561081d57600080fd5b50610838600480360381019061083391906130d3565b61210d565b60405161084591906142f0565b60405180910390f35b34801561085a57600080fd5b5061087560048036038101906108709190612f98565b612134565b005b34801561088357600080fd5b5061089e60048036038101906108999190612ea7565b612206565b005b3480156108ac57600080fd5b506108c760048036038101906108c291906130fc565b6122fa565b005b3480156108d557600080fd5b506108de61236e565b6040516108eb91906142f0565b60405180910390f35b34801561090057600080fd5b5061091b60048036038101906109169190612fe7565b612374565b005b34801561092957600080fd5b5061093261244c565b005b61093c6124be565b6006543414610980576040517f08c379a0000000000000000000000000000000000000000000000000000000008152600401610977906140ee565b60405180910390fd5b60006009600085815260200190815260200160002060009054906101000a900473ffffffffffffffffffffffffffffffffffffffff169050600073ffffffffffffffffffffffffffffffffffffffff168173ffffffffffffffffffffffffffffffffffffffff161415610a28576040517f08c379a0000000000000000000000000000000000000000000000000000000008152600401610a1f9061414e565b60405180910390fd5b6000600860008760ff1660ff168152602001908152602001600020600081819054906101000a900467ffffffffffffffff1660010191906101000a81548167ffffffffffffffff021916908367ffffffffffffffff160217905590508383600a60008467ffffffffffffffff1667ffffffffffffffff16815260200190815260200160002060008960ff1660ff1681526020019081526020016000209190610ad1929190612b78565b5060008290508073ffffffffffffffffffffffffffffffffffffffff166338995da9878985338a8a6040518763ffffffff1660e01b8152600401610b1a96959493929190613f4e565b600060405180830381600087803b158015610b3457600080fd5b505af1158015610b48573d6000803e3d6000fd5b505050508167ffffffffffffffff16868860ff167fdbb69440df8433824a026ef190652f29929eb64b4d1d5d2a69be8afe3e6eaed860405160405180910390a450505050505050565b610b9961250e565b60008360ff1660088467ffffffffffffffff1668ffffffffffffffffff16901b1790506000600b60008368ffffffffffffffffff1668ffffffffffffffffff16815260200190815260200160002060008481526020019081526020016000209050600480811115610c0657fe5b8160040160009054906101000a900460ff166004811115610c2357fe5b1415610c64576040517f08c379a0000000000000000000000000000000000000000000000000000000008152600401610c5b9061412e565b60405180910390fd5b600754610c7543836005015461258d565b11610cb5576040517f08c379a0000000000000000000000000000000000000000000000000000000008152600401610cac9061418e565b60405180910390fd5b60048160040160006101000a81548160ff02191690836004811115610cd657fe5b0217905550600480811115610ce757fe5b8467ffffffffffffffff168660ff167f803c5a12f6bde629cea32e63d4b92d1b560816a6fb72e939d3c89e1cab65041784600001548560010154604051610d2f929190613eae565b60405180910390a45050505050565b610d466125d7565b610d4e6124be565b60008460ff1660088567ffffffffffffffff1668ffffffffffffffffff16901b1790506000600b60008368ffffffffffffffffff1668ffffffffffffffffff16815260200190815260200160002060008481526020019081526020016000209050600073ffffffffffffffffffffffffffffffffffffffff166009600086815260200190815260200160002060009054906101000a900473ffffffffffffffffffffffffffffffffffffffff1673ffffffffffffffffffffffffffffffffffffffff161415610e52576040517f08c379a0000000000000000000000000000000000000000000000000000000008152600401610e499061428e565b60405180910390fd5b60018160040160009054906101000a900460ff166004811115610e7157fe5b1115610eb2576040517f08c379a0000000000000000000000000000000000000000000000000000000008152600401610ea9906141ee565b60405180910390fd5b600c60008368ffffffffffffffffff1668ffffffffffffffffff168152602001908152602001600020600084815260200190815260200160002060003373ffffffffffffffffffffffffffffffffffffffff1673ffffffffffffffffffffffffffffffffffffffff16815260200190815260200160002060009054906101000a900460ff1615610f77576040517f08c379a0000000000000000000000000000000000000000000000000000000008152600401610f6e9061408e565b60405180910390fd5b60008160040160009054906101000a900460ff166004811115610f9657fe5b14156111e457600560008154600101919050819055506040518060c00160405280858152602001848152602001600167ffffffffffffffff81118015610fdb57600080fd5b5060405190808252806020026020018201604052801561100a5781602001602082028036833780820191505090505b508152602001600067ffffffffffffffff8111801561102857600080fd5b506040519080825280602002602001820160405280156110575781602001602082028036833780820191505090505b5081526020016001600481111561106a57fe5b815260200143815250600b60008468ffffffffffffffffff1668ffffffffffffffffff1681526020019081526020016000206000858152602001908152602001600020600082015181600001556020820151816001015560408201518160020190805190602001906110dd929190612bf8565b5060608201518160030190805190602001906110fa929190612bf8565b5060808201518160040160006101000a81548160ff0219169083600481111561111f57fe5b021790555060a08201518160050155905050338160020160008154811061114257fe5b9060005260206000200160006101000a81548173ffffffffffffffffffffffffffffffffffffffff021916908373ffffffffffffffffffffffffffffffffffffffff1602179055506001600481111561119757fe5b8567ffffffffffffffff168760ff167f803c5a12f6bde629cea32e63d4b92d1b560816a6fb72e939d3c89e1cab65041787876040516111d7929190613eae565b60405180910390a4611327565b6007546111f543836005015461258d565b111561127a5760048160040160006101000a81548160ff0219169083600481111561121c57fe5b021790555060048081111561122d57fe5b8567ffffffffffffffff168760ff167f803c5a12f6bde629cea32e63d4b92d1b560816a6fb72e939d3c89e1cab650417878760405161126d929190613eae565b60405180910390a4611326565b806001015483146112c0576040517f08c379a00000000000000000000000000000000000000000000000000000000081526004016112b79061426e565b60405180910390fd5b80600201339080600181540180825580915050600190039060005260206000200160009091909190916101000a81548173ffffffffffffffffffffffffffffffffffffffff021916908373ffffffffffffffffffffffffffffffffffffffff1602179055505b5b60048081111561133357fe5b8160040160009054906101000a900460ff16600481111561135057fe5b146114e5576001600c60008468ffffffffffffffffff1668ffffffffffffffffff168152602001908152602001600020600085815260200190815260200160002060003373ffffffffffffffffffffffffffffffffffffffff1673ffffffffffffffffffffffffffffffffffffffff16815260200190815260200160002060006101000a81548160ff0219169083151502179055508060040160009054906101000a900460ff16600481111561140257fe5b8567ffffffffffffffff168760ff167f25f8daaa4635a7729927ba3f5b3d59cc3320aca7c32c9db4e7ca7b9574343640876040516114409190613e25565b60405180910390a460016003541115806114635750600354816002018054905010155b156114e45760028160040160006101000a81548160ff0219169083600481111561148957fe5b02179055506002600481111561149b57fe5b8567ffffffffffffffff168760ff167f803c5a12f6bde629cea32e63d4b92d1b560816a6fb72e939d3c89e1cab65041787876040516114db929190613eae565b60405180910390a45b5b505050505050565b600060016000838152602001908152602001600020600201549050919050565b611534600160008481526020019081526020016000206002015461152f612642565b611db6565b611573576040517f08c379a000000000000000000000000000000000000000000000000000000000815260040161156a9061406e565b60405180910390fd5b61157d828261264a565b5050565b611589612642565b73ffffffffffffffffffffffffffffffffffffffff168173ffffffffffffffffffffffffffffffffffffffff16146115f6576040517f08c379a00000000000000000000000000000000000000000000000000000000081526004016115ed906142ae565b60405180910390fd5b61160082826126de565b5050565b600a602052816000526040600020602052806000526040600020600091509150508054600181600116156101000203166002900480601f0160208091040260200160405190810160405280929190818152602001828054600181600116156101000203166002900480156116b95780601f1061168e576101008083540402835291602001916116b9565b820191906000526020600020905b81548152906001019060200180831161169c57829003601f168201915b505050505081565b6116c96125d7565b6116d16124be565b60006009600083815260200190815260200160002060009054906101000a900473ffffffffffffffffffffffffffffffffffffffff16905060008660ff1660088767ffffffffffffffff1668ffffffffffffffffff16901b179050600082868660405160200161174393929190613d73565b6040516020818303038152906040528051906020012090506000600b60008468ffffffffffffffffff1668ffffffffffffffffff16815260200190815260200160002060008381526020019081526020016000209050600260048111156117a657fe5b8160040160009054906101000a900460ff1660048111156117c357fe5b14611803576040517f08c379a00000000000000000000000000000000000000000000000000000000081526004016117fa90613fee565b60405180910390fd5b80600101548214611849576040517f08c379a00000000000000000000000000000000000000000000000000000000081526004016118409061410e565b60405180910390fd5b60038160040160006101000a81548160ff0219169083600481111561186a57fe5b02179055506000600960008360000154815260200190815260200160002060009054906101000a900473ffffffffffffffffffffffffffffffffffffffff1690508073ffffffffffffffffffffffffffffffffffffffff1663e248cff283600001548a8a6040518463ffffffff1660e01b81526004016118ec93929190613f1c565b600060405180830381600087803b15801561190657600080fd5b505af115801561191a573d6000803e3d6000fd5b505050508160040160009054906101000a900460ff16600481111561193b57fe5b8967ffffffffffffffff168b60ff167f803c5a12f6bde629cea32e63d4b92d1b560816a6fb72e939d3c89e1cab65041785600001548660010154604051611983929190613eae565b60405180910390a450505050505050505050565b61199f612772565b8181905084849050146119e7576040517f08c379a00000000000000000000000000000000000000000000000000000000081526004016119de9061404e565b60405180910390fd5b600084849050905060005b81811015611a8057858582818110611a0657fe5b9050602002016020810190611a1b9190612ed0565b73ffffffffffffffffffffffffffffffffffffffff166108fc858584818110611a4057fe5b905060200201359081150290604051600060405180830381858888f19350505050158015611a72573d6000803e3d6000fd5b5080806001019150506119f2565b505050505050565b60086020528060005260406000206000915054906101000a900467ffffffffffffffff1681565b611ab7612772565b80600381905550807fa20d6b84cd798a24038be305eff8a45ca82ef54a2aa2082005d8e14c0a4746c860405160405180910390a250565b600b602052816000526040600020602052806000526040600020600091509150508060000154908060010154908060040160009054906101000a900460ff16908060050154905084565b6000611b647fe2b7fb3b832174769106daebcfd6d1970523240dda11281102db9363b83b0dc483611db6565b9050919050565b60008060009054906101000a900460ff16905090565b611b89612772565b611b966000801b8261150d565b611ba36000801b33611581565b50565b611bae612772565b60008490508073ffffffffffffffffffffffffffffffffffffffff1663d9caed128585856040518463ffffffff1660e01b8152600401611bf093929190613dd3565b600060405180830381600087803b158015611c0a57600080fd5b505af1158015611c1e573d6000803e3d6000fd5b505050505050505050565b600c602052826000526040600020602052816000526040600020602052806000526040600020600092509250509054906101000a900460ff1681565b60045481565b611c73612772565b611c7b6127c0565b565b60096020528060005260406000206000915054906101000a900473ffffffffffffffffffffffffffffffffffffffff1681565b611cb8612772565b60008290508073ffffffffffffffffffffffffffffffffffffffff166307b7ed99836040518263ffffffff1660e01b8152600401611cf69190613d9d565b600060405180830381600087803b158015611d1057600080fd5b505af1158015611d24573d6000803e3d6000fd5b50505050505050565b6000611d57826001600086815260200190815260200160002060000161281b90919063ffffffff16565b905092915050565b611d67612772565b806006541415611dac576040517f08c379a0000000000000000000000000000000000000000000000000000000008152600401611da39061424e565b60405180910390fd5b8060068190555050565b6000611de0826001600086815260200190815260200160002060000161248e90919063ffffffff16565b905092915050565b7fe2b7fb3b832174769106daebcfd6d1970523240dda11281102db9363b83b0dc481565b60055481565b611e1a612772565b611e447fe2b7fb3b832174769106daebcfd6d1970523240dda11281102db9363b83b0dc482611db6565b611e83576040517f08c379a0000000000000000000000000000000000000000000000000000000008152600401611e7a906140ce565b60405180910390fd5b611ead7fe2b7fb3b832174769106daebcfd6d1970523240dda11281102db9363b83b0dc4826122fa565b8073ffffffffffffffffffffffffffffffffffffffff167f10e1f7ce9fd7d1b90a66d13a2ab3cb8dd7f29f3f8d520b143b063ccfbab6906b60405160405180910390a26004600081548092919060019003919050555050565b6000801b81565b611f15612c82565b60008460ff1660088567ffffffffffffffff1668ffffffffffffffffff16901b179050600b60008268ffffffffffffffffff1668ffffffffffffffffff16815260200190815260200160002060008481526020019081526020016000206040518060c001604052908160008201548152602001600182015481526020016002820180548060200260200160405190810160405280929190818152602001828054801561201657602002820191906000526020600020905b8160009054906101000a900473ffffffffffffffffffffffffffffffffffffffff1673ffffffffffffffffffffffffffffffffffffffff1681526020019060010190808311611fcc575b50505050508152602001600382018054806020026020016040519081016040528092919081815260200182805480156120a457602002820191906000526020600020905b8160009054906101000a900473ffffffffffffffffffffffffffffffffffffffff1673ffffffffffffffffffffffffffffffffffffffff168152602001906001019080831161205a575b505050505081526020016004820160009054906101000a900460ff1660048111156120cb57fe5b60048111156120d657fe5b81526020016005820154815250509150509392505050565b600260009054906101000a900460ff1681565b60065481565b60075481565b600061212d60016000848152602001908152602001600020600001612835565b9050919050565b61213c612772565b826009600084815260200190815260200160002060006101000a81548173ffffffffffffffffffffffffffffffffffffffff021916908373ffffffffffffffffffffffffffffffffffffffff16021790555060008390508073ffffffffffffffffffffffffffffffffffffffff1663b8fa373684846040518363ffffffff1660e01b81526004016121ce929190613e40565b600060405180830381600087803b1580156121e857600080fd5b505af11580156121fc573d6000803e3d6000fd5b5050505050505050565b61220e612772565b6122387fe2b7fb3b832174769106daebcfd6d1970523240dda11281102db9363b83b0dc482611db6565b15612278576040517f08c379a000000000000000000000000000000000000000000000000000000000815260040161226f906141ce565b60405180910390fd5b6122a27fe2b7fb3b832174769106daebcfd6d1970523240dda11281102db9363b83b0dc48261150d565b8073ffffffffffffffffffffffffffffffffffffffff167f03580ee9f53a62b7cb409a2cb56f9be87747dd15017afc5cef6eef321e4fb2c560405160405180910390a260046000815480929190600101919050555050565b612321600160008481526020019081526020016000206002015461231c612642565b611db6565b612360576040517f08c379a00000000000000000000000000000000000000000000000000000000081526004016123579061416e565b60405180910390fd5b61236a82826126de565b5050565b60035481565b61237c612772565b846009600086815260200190815260200160002060006101000a81548173ffffffffffffffffffffffffffffffffffffffff021916908373ffffffffffffffffffffffffffffffffffffffff16021790555060008590508073ffffffffffffffffffffffffffffffffffffffff1663bba8185a868686866040518563ffffffff1660e01b81526004016124129493929190613e69565b600060405180830381600087803b15801561242c57600080fd5b505af1158015612440573d6000803e3d6000fd5b50505050505050505050565b612454612772565b61245c61284a565b565b6000612486836000018373ffffffffffffffffffffffffffffffffffffffff1660001b6128a5565b905092915050565b60006124b6836000018373ffffffffffffffffffffffffffffffffffffffff1660001b612915565b905092915050565b60008054906101000a900460ff161561250c576040517f08c379a0000000000000000000000000000000000000000000000000000000008152600401612503906141ae565b60405180910390fd5b565b61251b6000801b33611db6565b8061254c575061254b7fe2b7fb3b832174769106daebcfd6d1970523240dda11281102db9363b83b0dc433611db6565b5b61258b576040517f08c379a00000000000000000000000000000000000000000000000000000000081526004016125829061402e565b60405180910390fd5b565b60006125cf83836040518060400160405280601e81526020017f536166654d6174683a207375627472616374696f6e206f766572666c6f770000815250612938565b905092915050565b6126017fe2b7fb3b832174769106daebcfd6d1970523240dda11281102db9363b83b0dc433611db6565b612640576040517f08c379a00000000000000000000000000000000000000000000000000000000081526004016126379061420e565b60405180910390fd5b565b600033905090565b612672816001600085815260200190815260200160002060000161245e90919063ffffffff16565b156126da5761267f612642565b73ffffffffffffffffffffffffffffffffffffffff168173ffffffffffffffffffffffffffffffffffffffff16837f2f8788117e7eff1d82e926ec794901d17c78024a50270940304540a733656f0d60405160405180910390a45b5050565b612706816001600085815260200190815260200160002060000161299390919063ffffffff16565b1561276e57612713612642565b73ffffffffffffffffffffffffffffffffffffffff168173ffffffffffffffffffffffffffffffffffffffff16837ff6391f5c32d9c69d2a47ea670b442974b53935d1edc7fd64eb21e047a839171b60405160405180910390a45b5050565b61277f6000801b33611db6565b6127be576040517f08c379a00000000000000000000000000000000000000000000000000000000081526004016127b59061422e565b60405180910390fd5b565b6127c86124be565b60016000806101000a81548160ff0219169083151502179055507f62e78cea01bee320cd4e420270b5ea74000d11b0c9f74754ebdbfc544b05a258336040516128119190613db8565b60405180910390a1565b600061282a83600001836129c3565b60001c905092915050565b600061284382600001612a30565b9050919050565b612852612a41565b60008060006101000a81548160ff0219169083151502179055507f5db9ee0a495bf2e6ff9c91a7834c1ba4fdd244a5e8aa4e537bd38aeae4b073aa3360405161289b9190613db8565b60405180910390a1565b60006128b18383612915565b61290a57826000018290806001815401808255809150506001900390600052602060002001600090919091909150558260000180549050836001016000848152602001908152602001600020819055506001905061290f565b600090505b92915050565b600080836001016000848152602001908152602001600020541415905092915050565b6000838311158290612980576040517f08c379a00000000000000000000000000000000000000000000000000000000081526004016129779190613fcc565b60405180910390fd5b5060008385039050809150509392505050565b60006129bb836000018373ffffffffffffffffffffffffffffffffffffffff1660001b612a90565b905092915050565b600081836000018054905011612a0e576040517f08c379a0000000000000000000000000000000000000000000000000000000008152600401612a059061400e565b60405180910390fd5b826000018281548110612a1d57fe5b9060005260206000200154905092915050565b600081600001805490509050919050565b60008054906101000a900460ff16612a8e576040517f08c379a0000000000000000000000000000000000000000000000000000000008152600401612a85906140ae565b60405180910390fd5b565b60008083600101600084815260200190815260200160002054905060008114612b6c5760006001820390506000600186600001805490500390506000866000018281548110612adb57fe5b9060005260206000200154905080876000018481548110612af857fe5b9060005260206000200181905550600183018760010160008381526020019081526020016000208190555086600001805480612b3057fe5b60019003818190600052602060002001600090559055866001016000878152602001908152602001600020600090556001945050505050612b72565b60009150505b92915050565b828054600181600116156101000203166002900490600052602060002090601f016020900481019282601f10612bb957803560ff1916838001178555612be7565b82800160010185558215612be7579182015b82811115612be6578235825591602001919060010190612bcb565b5b509050612bf49190612cc9565b5090565b828054828255906000526020600020908101928215612c71579160200282015b82811115612c705782518260006101000a81548173ffffffffffffffffffffffffffffffffffffffff021916908373ffffffffffffffffffffffffffffffffffffffff16021790555091602001919060010190612c18565b5b509050612c7e9190612ce6565b5090565b6040518060c001604052806000801916815260200160008019168152602001606081526020016060815260200160006004811115612cbc57fe5b8152602001600081525090565b5b80821115612ce2576000816000905550600101612cca565b5090565b5b80821115612d1d57600081816101000a81549073ffffffffffffffffffffffffffffffffffffffff021916905550600101612ce7565b5090565b600081359050612d308161456f565b92915050565b600081359050612d4581614586565b92915050565b60008083601f840112612d5d57600080fd5b8235905067ffffffffffffffff811115612d7657600080fd5b602083019150836020820283011115612d8e57600080fd5b9250929050565b60008083601f840112612da757600080fd5b8235905067ffffffffffffffff811115612dc057600080fd5b602083019150836020820283011115612dd857600080fd5b9250929050565b600081359050612dee8161459d565b92915050565b600081359050612e03816145b4565b92915050565b60008083601f840112612e1b57600080fd5b8235905067ffffffffffffffff811115612e3457600080fd5b602083019150836001820283011115612e4c57600080fd5b9250929050565b600081359050612e62816145cb565b92915050565b600081359050612e77816145e2565b92915050565b600081359050612e8c816145f9565b92915050565b600081359050612ea181614610565b92915050565b600060208284031215612eb957600080fd5b6000612ec784828501612d21565b91505092915050565b600060208284031215612ee257600080fd5b6000612ef084828501612d36565b91505092915050565b60008060408385031215612f0c57600080fd5b6000612f1a85828601612d21565b9250506020612f2b85828601612d21565b9150509250929050565b60008060008060808587031215612f4b57600080fd5b6000612f5987828801612d21565b9450506020612f6a87828801612d21565b9350506040612f7b87828801612d21565b9250506060612f8c87828801612e53565b91505092959194509250565b600080600060608486031215612fad57600080fd5b6000612fbb86828701612d21565b9350506020612fcc86828701612ddf565b9250506040612fdd86828701612d21565b9150509250925092565b600080600080600060a08688031215612fff57600080fd5b600061300d88828901612d21565b955050602061301e88828901612ddf565b945050604061302f88828901612d21565b935050606061304088828901612df4565b925050608061305188828901612df4565b9150509295509295909350565b6000806000806040858703121561307457600080fd5b600085013567ffffffffffffffff81111561308e57600080fd5b61309a87828801612d4b565b9450945050602085013567ffffffffffffffff8111156130b957600080fd5b6130c587828801612d95565b925092505092959194509250565b6000602082840312156130e557600080fd5b60006130f384828501612ddf565b91505092915050565b6000806040838503121561310f57600080fd5b600061311d85828601612ddf565b925050602061312e85828601612d21565b9150509250929050565b6000806040838503121561314b57600080fd5b600061315985828601612ddf565b925050602061316a85828601612e53565b9150509250929050565b60006020828403121561318657600080fd5b600061319484828501612e53565b91505092915050565b600080604083850312156131b057600080fd5b60006131be85828601612e68565b92505060206131cf85828601612e92565b9150509250929050565b600080604083850312156131ec57600080fd5b60006131fa85828601612e7d565b925050602061320b85828601612ddf565b9150509250929050565b60008060006060848603121561322a57600080fd5b600061323886828701612e7d565b935050602061324986828701612ddf565b925050604061325a86828701612d21565b9150509250925092565b60006020828403121561327657600080fd5b600061328484828501612e92565b91505092915050565b600080600080606085870312156132a357600080fd5b60006132b187828801612e92565b94505060206132c287828801612ddf565b935050604085013567ffffffffffffffff8111156132df57600080fd5b6132eb87828801612e09565b925092505092959194509250565b60008060006060848603121561330e57600080fd5b600061331c86828701612e92565b935050602061332d86828701612e68565b925050604061333e86828701612ddf565b9150509250925092565b6000806000806080858703121561335e57600080fd5b600061336c87828801612e92565b945050602061337d87828801612e68565b935050604061338e87828801612ddf565b925050606061339f87828801612ddf565b91505092959194509250565b6000806000806000608086880312156133c357600080fd5b60006133d188828901612e92565b95505060206133e288828901612e68565b945050604086013567ffffffffffffffff8111156133ff57600080fd5b61340b88828901612e09565b9350935050606061341e88828901612ddf565b9150509295509295909350565b60006134378383613452565b60208301905092915050565b61344c81614496565b82525050565b61345b816143bd565b82525050565b61346a816143bd565b82525050565b61348161347c826143bd565b614520565b82525050565b600061349282614351565b61349c818561437f565b93506134a783614341565b8060005b838110156134d85781516134bf888261342b565b97506134ca83614372565b9250506001810190506134ab565b5085935050505092915050565b6134ee816143e1565b82525050565b6134fd816143ed565b82525050565b61350c816143ed565b82525050565b61351b816143f7565b82525050565b600061352d8385614390565b935061353a8385846144de565b61354383614544565b840190509392505050565b600061355a83856143a1565b93506135678385846144de565b82840190509392505050565b600061357e8261435c565b6135888185614390565b93506135988185602086016144ed565b6135a181614544565b840191505092915050565b6135b5816144a8565b82525050565b6135c4816144a8565b82525050565b60006135d582614367565b6135df81856143ac565b93506135ef8185602086016144ed565b6135f881614544565b840191505092915050565b6000613610601c836143ac565b91507f70726f706f73616c20616c7265616479207472616e73666572726564000000006000830152602082019050919050565b60006136506022836143ac565b91507f456e756d657261626c655365743a20696e646578206f7574206f6620626f756e60008301527f64730000000000000000000000000000000000000000000000000000000000006020830152604082019050919050565b60006136b6601e836143ac565b91507f73656e646572206973206e6f742072656c61796572206f722061646d696e00006000830152602082019050919050565b60006136f66026836143ac565b91507f6c656e677468206f66206164647265737320616e6420616d6f756e747320646960008301527f736d6174636800000000000000000000000000000000000000000000000000006020830152604082019050919050565b600061375c602f836143ac565b91507f416363657373436f6e74726f6c3a2073656e646572206d75737420626520616e60008301527f2061646d696e20746f206772616e7400000000000000000000000000000000006020830152604082019050919050565b60006137c26015836143ac565b91507f72656c6179657220616c726561647920766f74656400000000000000000000006000830152602082019050919050565b60006138026014836143ac565b91507f5061757361626c653a206e6f74207061757365640000000000000000000000006000830152602082019050919050565b6000613842601f836143ac565b91507f6164647220646f65736e277420686176652072656c6179657220726f6c6521006000830152602082019050919050565b60006138826016836143ac565b91507f496e636f72726563742066656520737570706c696564000000000000000000006000830152602082019050919050565b60006138c2601b836143ac565b91507f6461746120646f65736e2774206d6174636820646174616861736800000000006000830152602082019050919050565b6000613902601a836143ac565b91507f50726f706f73616c20616c72656164792063616e63656c6c65640000000000006000830152602082019050919050565b60006139426020836143ac565b91507f7265736f757263654944206e6f74206d617070656420746f2068616e646c65726000830152602082019050919050565b60006139826030836143ac565b91507f416363657373436f6e74726f6c3a2073656e646572206d75737420626520616e60008301527f2061646d696e20746f207265766f6b65000000000000000000000000000000006020830152604082019050919050565b60006139e86020836143ac565b91507f50726f706f73616c206e6f7420617420657870697279207468726573686f6c646000830152602082019050919050565b6000613a286010836143ac565b91507f5061757361626c653a20706175736564000000000000000000000000000000006000830152602082019050919050565b6000613a68601e836143ac565b91507f6164647220616c7265616479206861732072656c6179657220726f6c652100006000830152602082019050919050565b6000613aa8602a836143ac565b91507f70726f706f73616c20616c7265616479207061737365642f657865637574656460008301527f2f63616e63656c6c6564000000000000000000000000000000000000000000006020830152604082019050919050565b6000613b0e6020836143ac565b91507f73656e64657220646f65736e277420686176652072656c6179657220726f6c656000830152602082019050919050565b6000613b4e601e836143ac565b91507f73656e64657220646f65736e277420686176652061646d696e20726f6c6500006000830152602082019050919050565b6000613b8e601f836143ac565b91507f43757272656e742066656520697320657175616c20746f206e657720666565006000830152602082019050919050565b6000613bce6011836143ac565b91507f6461746168617368206d69736d617463680000000000000000000000000000006000830152602082019050919050565b6000613c0e6019836143ac565b91507f6e6f2068616e646c657220666f72207265736f757263654944000000000000006000830152602082019050919050565b6000613c4e602f836143ac565b91507f416363657373436f6e74726f6c3a2063616e206f6e6c792072656e6f756e636560008301527f20726f6c657320666f722073656c6600000000000000000000000000000000006020830152604082019050919050565b600060c083016000830151613cbf60008601826134f4565b506020830151613cd260208601826134f4565b5060408301518482036040860152613cea8282613487565b91505060608301518482036060860152613d048282613487565b9150506080830151613d1960808601826135ac565b5060a0830151613d2c60a0860182613d37565b508091505092915050565b613d4081614456565b82525050565b613d4f81614456565b82525050565b613d5e81614460565b82525050565b613d6d81614489565b82525050565b6000613d7f8286613470565b601482019150613d9082848661354e565b9150819050949350505050565b6000602082019050613db26000830184613461565b92915050565b6000602082019050613dcd6000830184613443565b92915050565b6000606082019050613de86000830186613461565b613df56020830185613461565b613e026040830184613d46565b949350505050565b6000602082019050613e1f60008301846134e5565b92915050565b6000602082019050613e3a6000830184613503565b92915050565b6000604082019050613e556000830185613503565b613e626020830184613461565b9392505050565b6000608082019050613e7e6000830187613503565b613e8b6020830186613461565b613e986040830185613512565b613ea56060830184613512565b95945050505050565b6000604082019050613ec36000830185613503565b613ed06020830184613503565b9392505050565b6000608082019050613eec6000830187613503565b613ef96020830186613503565b613f0660408301856135bb565b613f136060830184613d46565b95945050505050565b6000604082019050613f316000830186613503565b8181036020830152613f44818486613521565b9050949350505050565b600060a082019050613f636000830189613503565b613f706020830188613d64565b613f7d6040830187613d55565b613f8a6060830186613443565b8181036080830152613f9d818486613521565b9050979650505050505050565b60006020820190508181036000830152613fc48184613573565b905092915050565b60006020820190508181036000830152613fe681846135ca565b905092915050565b6000602082019050818103600083015261400781613603565b9050919050565b6000602082019050818103600083015261402781613643565b9050919050565b60006020820190508181036000830152614047816136a9565b9050919050565b60006020820190508181036000830152614067816136e9565b9050919050565b600060208201905081810360008301526140878161374f565b9050919050565b600060208201905081810360008301526140a7816137b5565b9050919050565b600060208201905081810360008301526140c7816137f5565b9050919050565b600060208201905081810360008301526140e781613835565b9050919050565b6000602082019050818103600083015261410781613875565b9050919050565b60006020820190508181036000830152614127816138b5565b9050919050565b60006020820190508181036000830152614147816138f5565b9050919050565b6000602082019050818103600083015261416781613935565b9050919050565b6000602082019050818103600083015261418781613975565b9050919050565b600060208201905081810360008301526141a7816139db565b9050919050565b600060208201905081810360008301526141c781613a1b565b9050919050565b600060208201905081810360008301526141e781613a5b565b9050919050565b6000602082019050818103600083015261420781613a9b565b9050919050565b6000602082019050818103600083015261422781613b01565b9050919050565b6000602082019050818103600083015261424781613b41565b9050919050565b6000602082019050818103600083015261426781613b81565b9050919050565b6000602082019050818103600083015261428781613bc1565b9050919050565b600060208201905081810360008301526142a781613c01565b9050919050565b600060208201905081810360008301526142c781613c41565b9050919050565b600060208201905081810360008301526142e88184613ca7565b905092915050565b60006020820190506143056000830184613d46565b92915050565b60006020820190506143206000830184613d55565b92915050565b600060208201905061433b6000830184613d64565b92915050565b6000819050602082019050919050565b600081519050919050565b600081519050919050565b600081519050919050565b6000602082019050919050565b600082825260208201905092915050565b600082825260208201905092915050565b600081905092915050565b600082825260208201905092915050565b60006143c882614436565b9050919050565b60006143da82614436565b9050919050565b60008115159050919050565b6000819050919050565b60007fffffffff0000000000000000000000000000000000000000000000000000000082169050919050565b600081905061443182614562565b919050565b600073ffffffffffffffffffffffffffffffffffffffff82169050919050565b6000819050919050565b600067ffffffffffffffff82169050919050565b600068ffffffffffffffffff82169050919050565b600060ff82169050919050565b60006144a1826144ba565b9050919050565b60006144b382614423565b9050919050565b60006144c5826144cc565b9050919050565b60006144d782614436565b9050919050565b82818337600083830152505050565b60005b8381101561450b5780820151818401526020810190506144f0565b8381111561451a576000848401525b50505050565b600061452b82614532565b9050919050565b600061453d82614555565b9050919050565b6000601f19601f8301169050919050565b60008160601b9050919050565b6005811061456c57fe5b50565b614578816143bd565b811461458357600080fd5b50565b61458f816143cf565b811461459a57600080fd5b50565b6145a6816143ed565b81146145b157600080fd5b50565b6145bd816143f7565b81146145c857600080fd5b50565b6145d481614456565b81146145df57600080fd5b50565b6145eb81614460565b81146145f657600080fd5b50565b61460281614474565b811461460d57600080fd5b50565b61461981614489565b811461462457600080fd5b5056fea2646970667358221220714e89f94f2dd12e741774e8606ce68bc9831f1c1be4d9f1226b451ff86ca84964736f6c63430007000033",
  "immutableReferences": {},
  "source": "pragma solidity 0.7.0;\npragma experimental ABIEncoderV2;\n\nimport \"@openzeppelin/contracts/access/AccessControl.sol\";\nimport \"./utils/Pausable.sol\";\nimport \"./utils/SafeMath.sol\";\nimport \"./interfaces/IDepositExecute.sol\";\nimport \"./interfaces/IBridge.sol\";\nimport \"./interfaces/IERCHandler.sol\";\nimport \"./interfaces/IGenericHandler.sol\";\n\n/**\n    @title Facilitates deposits, creation and votiing of deposit proposals, and deposit executions.\n    @author ChainSafe Systems.\n */\ncontract Bridge is Pausable, AccessControl, SafeMath {\n\n    uint8   public _chainID;\n    uint256 public _relayerThreshold;\n    uint256 public _totalRelayers;\n    uint256 public _totalProposals;\n    uint256 public _fee;\n    uint256 public _expiry;\n\n    enum Vote {No, Yes}\n\n    enum ProposalStatus {Inactive, Active, Passed, Executed, Cancelled}\n\n    struct Proposal {\n        bytes32 _resourceID;\n        bytes32 _dataHash;\n        address[] _yesVotes;\n        address[] _noVotes;\n        ProposalStatus _status;\n        uint256 _proposedBlock;\n    }\n\n    // destinationChainID => number of deposits\n    mapping(uint8 => uint64) public _depositCounts;\n    // resourceID => handler address\n    mapping(bytes32 => address) public _resourceIDToHandlerAddress;\n    // depositNonce => destinationChainID => bytes\n    mapping(uint64 => mapping(uint8 => bytes)) public _depositRecords;\n    // destinationChainID + depositNonce => dataHash => Proposal\n    mapping(uint72 => mapping(bytes32 => Proposal)) public _proposals;\n    // destinationChainID + depositNonce => dataHash => relayerAddress => bool\n    mapping(uint72 => mapping(bytes32 => mapping(address => bool))) public _hasVotedOnProposal;\n\n    event RelayerThresholdChanged(uint indexed newThreshold);\n    event RelayerAdded(address indexed relayer);\n    event RelayerRemoved(address indexed relayer);\n    event Deposit(\n        uint8   indexed destinationChainID,\n        bytes32 indexed resourceID,\n        uint64  indexed depositNonce\n    );\n    event ProposalEvent(\n        uint8           indexed originChainID,\n        uint64          indexed depositNonce,\n        ProposalStatus  indexed status,\n        bytes32 resourceID,\n        bytes32 dataHash\n    );\n\n    event ProposalVote(\n        uint8   indexed originChainID,\n        uint64  indexed depositNonce,\n        ProposalStatus indexed status,\n        bytes32 resourceID\n    );\n\n    bytes32 public constant RELAYER_ROLE = keccak256(\"RELAYER_ROLE\");\n\n    modifier onlyAdmin() {\n        _onlyAdmin();\n        _;\n    }\n\n    modifier onlyAdminOrRelayer() {\n        _onlyAdminOrRelayer();\n        _;\n    }\n\n    modifier onlyRelayers() {\n        _onlyRelayers();\n        _;\n    }\n\n    function _onlyAdminOrRelayer() private {\n        require(hasRole(DEFAULT_ADMIN_ROLE, msg.sender) || hasRole(RELAYER_ROLE, msg.sender),\n            \"sender is not relayer or admin\");\n    }\n\n    function _onlyAdmin() private {\n        require(hasRole(DEFAULT_ADMIN_ROLE, msg.sender), \"sender doesn't have admin role\");\n    }\n\n    function _onlyRelayers() private {\n        require(hasRole(RELAYER_ROLE, msg.sender), \"sender doesn't have relayer role\");\n    }\n\n    /**\n        @notice Initializes Bridge, creates and grants {msg.sender} the admin role,\n        creates and grants {initialRelayers} the relayer role.\n        @param chainID ID of chain the Bridge contract exists on.\n        @param initialRelayers Addresses that should be initially granted the relayer role.\n        @param initialRelayerThreshold Number of votes needed for a deposit proposal to be considered passed.\n     */\n    constructor (uint8 chainID, address[] memory initialRelayers, uint initialRelayerThreshold, uint256 fee, uint256 expiry) public {\n        _chainID = chainID;\n        _relayerThreshold = initialRelayerThreshold;\n        _fee = fee;\n        _expiry = expiry;\n\n        _setupRole(DEFAULT_ADMIN_ROLE, msg.sender);\n        _setRoleAdmin(RELAYER_ROLE, DEFAULT_ADMIN_ROLE);\n\n        uint initialRelayerCount = initialRelayers.length;\n        for (uint i; i < initialRelayerCount; i++) {\n            grantRole(RELAYER_ROLE, initialRelayers[i]);\n            _totalRelayers++;\n        }\n\n    }\n\n    /**\n        @notice Returns true if {relayer} has the relayer role.\n        @param relayer Address to check.\n     */\n    function isRelayer(address relayer) external view returns (bool) {\n        return hasRole(RELAYER_ROLE, relayer);\n    }\n\n    /**\n        @notice Removes admin role from {msg.sender} and grants it to {newAdmin}.\n        @notice Only callable by an address that currently has the admin role.\n        @param newAdmin Address that admin role will be granted to.\n     */\n    function renounceAdmin(address newAdmin) external onlyAdmin {\n        grantRole(DEFAULT_ADMIN_ROLE, newAdmin);\n        renounceRole(DEFAULT_ADMIN_ROLE, msg.sender);\n    }\n\n    /**\n        @notice Pauses deposits, proposal creation and voting, and deposit executions.\n        @notice Only callable by an address that currently has the admin role.\n     */\n    function adminPauseTransfers() external onlyAdmin {\n        _pause();\n    }\n\n    /**\n        @notice Unpauses deposits, proposal creation and voting, and deposit executions.\n        @notice Only callable by an address that currently has the admin role.\n     */\n    function adminUnpauseTransfers() external onlyAdmin {\n        _unpause();\n    }\n\n    /**\n        @notice Modifies the number of votes required for a proposal to be considered passed.\n        @notice Only callable by an address that currently has the admin role.\n        @param newThreshold Value {_relayerThreshold} will be changed to.\n        @notice Emits {RelayerThresholdChanged} event.\n     */\n    function adminChangeRelayerThreshold(uint newThreshold) external onlyAdmin {\n        _relayerThreshold = newThreshold;\n        emit RelayerThresholdChanged(newThreshold);\n    }\n\n    /**\n        @notice Grants {relayerAddress} the relayer role and increases {_totalRelayer} count.\n        @notice Only callable by an address that currently has the admin role.\n        @param relayerAddress Address of relayer to be added.\n        @notice Emits {RelayerAdded} event.\n     */\n    function adminAddRelayer(address relayerAddress) external onlyAdmin {\n        require(!hasRole(RELAYER_ROLE, relayerAddress), \"addr already has relayer role!\");\n        grantRole(RELAYER_ROLE, relayerAddress);\n        emit RelayerAdded(relayerAddress);\n        _totalRelayers++;\n    }\n\n    /**\n        @notice Removes relayer role for {relayerAddress} and decreases {_totalRelayer} count.\n        @notice Only callable by an address that currently has the admin role.\n        @param relayerAddress Address of relayer to be removed.\n        @notice Emits {RelayerRemoved} event.\n     */\n    function adminRemoveRelayer(address relayerAddress) external onlyAdmin {\n        require(hasRole(RELAYER_ROLE, relayerAddress), \"addr doesn't have relayer role!\");\n        revokeRole(RELAYER_ROLE, relayerAddress);\n        emit RelayerRemoved(relayerAddress);\n        _totalRelayers--;\n    }\n\n    /**\n        @notice Sets a new resource for handler contracts that use the IERCHandler interface,\n        and maps the {handlerAddress} to {resourceID} in {_resourceIDToHandlerAddress}.\n        @notice Only callable by an address that currently has the admin role.\n        @param handlerAddress Address of handler resource will be set for.\n        @param resourceID ResourceID to be used when making deposits.\n        @param tokenAddress Address of contract to be called when a deposit is made and a deposited is executed.\n     */\n    function adminSetResource(address handlerAddress, bytes32 resourceID, address tokenAddress) external onlyAdmin {\n        _resourceIDToHandlerAddress[resourceID] = handlerAddress;\n        IERCHandler handler = IERCHandler(handlerAddress);\n        handler.setResource(resourceID, tokenAddress);\n    }\n\n    /**\n        @notice Sets a new resource for handler contracts that use the IGenericHandler interface,\n        and maps the {handlerAddress} to {resourceID} in {_resourceIDToHandlerAddress}.\n        @notice Only callable by an address that currently has the admin role.\n        @param handlerAddress Address of handler resource will be set for.\n        @param resourceID ResourceID to be used when making deposits.\n        @param contractAddress Address of contract to be called when a deposit is made and a deposited is executed.\n     */\n    function adminSetGenericResource(\n        address handlerAddress,\n        bytes32 resourceID,\n        address contractAddress,\n        bytes4 depositFunctionSig,\n        bytes4 executeFunctionSig\n    ) external onlyAdmin {\n        _resourceIDToHandlerAddress[resourceID] = handlerAddress;\n        IGenericHandler handler = IGenericHandler(handlerAddress);\n        handler.setResource(resourceID, contractAddress, depositFunctionSig, executeFunctionSig);\n    }\n\n    /**\n        @notice Sets a resource as burnable for handler contracts that use the IERCHandler interface.\n        @notice Only callable by an address that currently has the admin role.\n        @param handlerAddress Address of handler resource will be set for.\n        @param tokenAddress Address of contract to be called when a deposit is made and a deposited is executed.\n     */\n    function adminSetBurnable(address handlerAddress, address tokenAddress) external onlyAdmin {\n        IERCHandler handler = IERCHandler(handlerAddress);\n        handler.setBurnable(tokenAddress);\n    }\n\n    /**\n        @notice Returns a proposal.\n        @param originChainID Chain ID deposit originated from.\n        @param depositNonce ID of proposal generated by proposal's origin Bridge contract.\n        @param dataHash Hash of data to be provided when deposit proposal is executed.\n        @return Proposal which consists of:\n        - _dataHash Hash of data to be provided when deposit proposal is executed.\n        - _yesVotes Number of votes in favor of proposal.\n        - _noVotes Number of votes against proposal.\n        - _status Current status of proposal.\n     */\n    function getProposal(uint8 originChainID, uint64 depositNonce, bytes32 dataHash) external view returns (Proposal memory) {\n        uint72 nonceAndID = (uint72(depositNonce) << 8) | uint72(originChainID);\n        return _proposals[nonceAndID][dataHash];\n    }\n\n    /**\n        @notice Changes deposit fee.\n        @notice Only callable by admin.\n        @param newFee Value {_fee} will be updated to.\n     */\n    function adminChangeFee(uint newFee) external onlyAdmin {\n        require(_fee != newFee, \"Current fee is equal to new fee\");\n        _fee = newFee;\n    }\n\n    /**\n        @notice Used to manually withdraw funds from ERC safes.\n        @param handlerAddress Address of handler to withdraw from.\n        @param tokenAddress Address of token to withdraw.\n        @param recipient Address to withdraw tokens to.\n        @param amountOrTokenID Either the amount of ERC20 tokens or the ERC721 token ID to withdraw.\n     */\n    function adminWithdraw(\n        address handlerAddress,\n        address tokenAddress,\n        address recipient,\n        uint256 amountOrTokenID\n    ) external onlyAdmin {\n        IERCHandler handler = IERCHandler(handlerAddress);\n        handler.withdraw(tokenAddress, recipient, amountOrTokenID);\n    }\n\n    /**\n        @notice Initiates a transfer using a specified handler contract.\n        @notice Only callable when Bridge is not paused.\n        @param destinationChainID ID of chain deposit will be bridged to.\n        @param resourceID ResourceID used to find address of handler to be used for deposit.\n        @param data Additional data to be passed to specified handler.\n        @notice Emits {Deposit} event.\n     */\n    function deposit(uint8 destinationChainID, bytes32 resourceID, bytes calldata data) external payable whenNotPaused {\n        require(msg.value == _fee, \"Incorrect fee supplied\");\n\n        address handler = _resourceIDToHandlerAddress[resourceID];\n        require(handler != address(0), \"resourceID not mapped to handler\");\n\n        uint64 depositNonce = ++_depositCounts[destinationChainID];\n        _depositRecords[depositNonce][destinationChainID] = data;\n\n        IDepositExecute depositHandler = IDepositExecute(handler);\n        depositHandler.deposit(resourceID, destinationChainID, depositNonce, msg.sender, data);\n\n        emit Deposit(destinationChainID, resourceID, depositNonce);\n    }\n\n    /**\n        @notice When called, {msg.sender} will be marked as voting in favor of proposal.\n        @notice Only callable by relayers when Bridge is not paused.\n        @param chainID ID of chain deposit originated from.\n        @param depositNonce ID of deposited generated by origin Bridge contract.\n        @param dataHash Hash of data provided when deposit was made.\n        @notice Proposal must not have already been passed or executed.\n        @notice {msg.sender} must not have already voted on proposal.\n        @notice Emits {ProposalEvent} event with status indicating the proposal status.\n        @notice Emits {ProposalVote} event.\n     */\n    function voteProposal(uint8 chainID, uint64 depositNonce, bytes32 resourceID, bytes32 dataHash) external onlyRelayers whenNotPaused {\n\n        uint72 nonceAndID = (uint72(depositNonce) << 8) | uint72(chainID);\n        Proposal storage proposal = _proposals[nonceAndID][dataHash];\n\n        require(_resourceIDToHandlerAddress[resourceID] != address(0), \"no handler for resourceID\");\n        require(uint(proposal._status) <= 1, \"proposal already passed/executed/cancelled\");\n        require(!_hasVotedOnProposal[nonceAndID][dataHash][msg.sender], \"relayer already voted\");\n\n        if (uint(proposal._status) == 0) {\n            ++_totalProposals;\n            _proposals[nonceAndID][dataHash] = Proposal({\n                _resourceID : resourceID,\n                _dataHash : dataHash,\n                _yesVotes : new address[](1),\n                _noVotes : new address[](0),\n                _status : ProposalStatus.Active,\n                _proposedBlock : block.number\n                });\n\n            proposal._yesVotes[0] = msg.sender;\n            emit ProposalEvent(chainID, depositNonce, ProposalStatus.Active, resourceID, dataHash);\n        } else {\n            if (sub(block.number, proposal._proposedBlock) > _expiry) {\n                // if the number of blocks that has passed since this proposal was\n                // submitted exceeds the expiry threshold set, cancel the proposal\n                proposal._status = ProposalStatus.Cancelled;\n                emit ProposalEvent(chainID, depositNonce, ProposalStatus.Cancelled, resourceID, dataHash);\n            } else {\n                require(dataHash == proposal._dataHash, \"datahash mismatch\");\n                proposal._yesVotes.push(msg.sender);\n\n\n            }\n\n        }\n        if (proposal._status != ProposalStatus.Cancelled) {\n            _hasVotedOnProposal[nonceAndID][dataHash][msg.sender] = true;\n            emit ProposalVote(chainID, depositNonce, proposal._status, resourceID);\n\n            // If _depositThreshold is set to 1, then auto finalize\n            // or if _relayerThreshold has been exceeded\n            if (_relayerThreshold <= 1 || proposal._yesVotes.length >= _relayerThreshold) {\n                proposal._status = ProposalStatus.Passed;\n\n                emit ProposalEvent(chainID, depositNonce, ProposalStatus.Passed, resourceID, dataHash);\n            }\n        }\n\n    }\n\n    /**\n        @notice Executes a deposit proposal that is considered passed using a specified handler contract.\n        @notice Only callable by relayers when Bridge is not paused.\n        @param chainID ID of chain deposit originated from.\n        @param depositNonce ID of deposited generated by origin Bridge contract.\n        @param dataHash Hash of data originally provided when deposit was made.\n        @notice Proposal must be past expiry threshold.\n        @notice Emits {ProposalEvent} event with status {Cancelled}.\n     */\n    function cancelProposal(uint8 chainID, uint64 depositNonce, bytes32 dataHash) public onlyAdminOrRelayer {\n        uint72 nonceAndID = (uint72(depositNonce) << 8) | uint72(chainID);\n        Proposal storage proposal = _proposals[nonceAndID][dataHash];\n\n        require(proposal._status != ProposalStatus.Cancelled, \"Proposal already cancelled\");\n        require(sub(block.number, proposal._proposedBlock) > _expiry, \"Proposal not at expiry threshold\");\n\n        proposal._status = ProposalStatus.Cancelled;\n        emit ProposalEvent(chainID, depositNonce, ProposalStatus.Cancelled, proposal._resourceID, proposal._dataHash);\n\n    }\n\n    /**\n        @notice Executes a deposit proposal that is considered passed using a specified handler contract.\n        @notice Only callable by relayers when Bridge is not paused.\n        @param chainID ID of chain deposit originated from.\n        @param resourceID ResourceID to be used when making deposits.\n        @param depositNonce ID of deposited generated by origin Bridge contract.\n        @param data Data originally provided when deposit was made.\n        @notice Proposal must have Passed status.\n        @notice Hash of {data} must equal proposal's {dataHash}.\n        @notice Emits {ProposalEvent} event with status {Executed}.\n     */\n    function executeProposal(uint8 chainID, uint64 depositNonce, bytes calldata data, bytes32 resourceID) external onlyRelayers whenNotPaused {\n        address handler = _resourceIDToHandlerAddress[resourceID];\n        uint72 nonceAndID = (uint72(depositNonce) << 8) | uint72(chainID);\n        bytes32 dataHash = keccak256(abi.encodePacked(handler, data));\n        Proposal storage proposal = _proposals[nonceAndID][dataHash];\n\n        require(proposal._status == ProposalStatus.Passed, \"proposal already transferred\");\n        require(dataHash == proposal._dataHash, \"data doesn't match datahash\");\n\n        proposal._status = ProposalStatus.Executed;\n\n        IDepositExecute depositHandler = IDepositExecute(_resourceIDToHandlerAddress[proposal._resourceID]);\n        depositHandler.executeProposal(proposal._resourceID, data);\n\n        emit ProposalEvent(chainID, depositNonce, proposal._status, proposal._resourceID, proposal._dataHash);\n    }\n\n    /**\n        @notice Transfers eth in the contract to the specified addresses. The parameters addrs and amounts are mapped 1-1.\n        This means that the address at index 0 for addrs will receive the amount (in WEI) from amounts at index 0.\n        @param addrs Array of addresses to transfer {amounts} to.\n        @param amounts Array of amonuts to transfer to {addrs}.\n     */\n    function transferFunds(address payable[] calldata addrs, uint[] calldata amounts) external onlyAdmin {\n        require(addrs.length == amounts.length, \"length of address and amounts dismatch\");\n        uint addrCount = addrs.length;\n        for (uint i = 0; i < addrCount; i++) {\n            addrs[i].transfer(amounts[i]);\n        }\n    }\n\n}\n",
  "sourcePath": "/home/tolak/workspace/phala/chainbridge-solidity/contracts/Bridge.sol",
  "compiler": {
    "name": "solc",
    "version": "0.7.0+commit.9e61f92b.Emscripten.clang"
  },
  "schemaVersion": "3.4.3",
  "updatedAt": "2021-08-18T13:33:58.554Z",
  "devdoc": {
    "author": "ChainSafe Systems.",
    "kind": "dev",
    "methods": {
      "adminAddRelayer(address)": {
        "params": {
          "relayerAddress": "Address of relayer to be added."
        }
      },
      "adminChangeFee(uint256)": {
        "params": {
          "newFee": "Value {_fee} will be updated to."
        }
      },
      "adminChangeRelayerThreshold(uint256)": {
        "params": {
          "newThreshold": "Value {_relayerThreshold} will be changed to."
        }
      },
      "adminRemoveRelayer(address)": {
        "params": {
          "relayerAddress": "Address of relayer to be removed."
        }
      },
      "adminSetBurnable(address,address)": {
        "params": {
          "handlerAddress": "Address of handler resource will be set for.",
          "tokenAddress": "Address of contract to be called when a deposit is made and a deposited is executed."
        }
      },
      "adminSetGenericResource(address,bytes32,address,bytes4,bytes4)": {
        "params": {
          "contractAddress": "Address of contract to be called when a deposit is made and a deposited is executed.",
          "handlerAddress": "Address of handler resource will be set for.",
          "resourceID": "ResourceID to be used when making deposits."
        }
      },
      "adminSetResource(address,bytes32,address)": {
        "params": {
          "handlerAddress": "Address of handler resource will be set for.",
          "resourceID": "ResourceID to be used when making deposits.",
          "tokenAddress": "Address of contract to be called when a deposit is made and a deposited is executed."
        }
      },
      "adminWithdraw(address,address,address,uint256)": {
        "params": {
          "amountOrTokenID": "Either the amount of ERC20 tokens or the ERC721 token ID to withdraw.",
          "handlerAddress": "Address of handler to withdraw from.",
          "recipient": "Address to withdraw tokens to.",
          "tokenAddress": "Address of token to withdraw."
        }
      },
      "cancelProposal(uint8,uint64,bytes32)": {
        "params": {
          "chainID": "ID of chain deposit originated from.",
          "dataHash": "Hash of data originally provided when deposit was made.",
          "depositNonce": "ID of deposited generated by origin Bridge contract."
        }
      },
      "constructor": {
        "params": {
          "chainID": "ID of chain the Bridge contract exists on.",
          "initialRelayerThreshold": "Number of votes needed for a deposit proposal to be considered passed.",
          "initialRelayers": "Addresses that should be initially granted the relayer role."
        }
      },
      "deposit(uint8,bytes32,bytes)": {
        "params": {
          "data": "Additional data to be passed to specified handler.",
          "destinationChainID": "ID of chain deposit will be bridged to.",
          "resourceID": "ResourceID used to find address of handler to be used for deposit."
        }
      },
      "executeProposal(uint8,uint64,bytes,bytes32)": {
        "params": {
          "chainID": "ID of chain deposit originated from.",
          "data": "Data originally provided when deposit was made.",
          "depositNonce": "ID of deposited generated by origin Bridge contract.",
          "resourceID": "ResourceID to be used when making deposits."
        }
      },
      "getProposal(uint8,uint64,bytes32)": {
        "params": {
          "dataHash": "Hash of data to be provided when deposit proposal is executed.",
          "depositNonce": "ID of proposal generated by proposal's origin Bridge contract.",
          "originChainID": "Chain ID deposit originated from."
        },
        "returns": {
          "_0": "Proposal which consists of: - _dataHash Hash of data to be provided when deposit proposal is executed. - _yesVotes Number of votes in favor of proposal. - _noVotes Number of votes against proposal. - _status Current status of proposal."
        }
      },
      "getRoleAdmin(bytes32)": {
        "details": "Returns the admin role that controls `role`. See {grantRole} and {revokeRole}. To change a role's admin, use {_setRoleAdmin}."
      },
      "getRoleMember(bytes32,uint256)": {
        "details": "Returns one of the accounts that have `role`. `index` must be a value between 0 and {getRoleMemberCount}, non-inclusive. Role bearers are not sorted in any particular way, and their ordering may change at any point. WARNING: When using {getRoleMember} and {getRoleMemberCount}, make sure you perform all queries on the same block. See the following https://forum.openzeppelin.com/t/iterating-over-elements-on-enumerableset-in-openzeppelin-contracts/2296[forum post] for more information."
      },
      "getRoleMemberCount(bytes32)": {
        "details": "Returns the number of accounts that have `role`. Can be used together with {getRoleMember} to enumerate all bearers of a role."
      },
      "grantRole(bytes32,address)": {
        "details": "Grants `role` to `account`. If `account` had not been already granted `role`, emits a {RoleGranted} event. Requirements: - the caller must have ``role``'s admin role."
      },
      "hasRole(bytes32,address)": {
        "details": "Returns `true` if `account` has been granted `role`."
      },
      "isRelayer(address)": {
        "params": {
          "relayer": "Address to check."
        }
      },
      "paused()": {
        "details": "Returns true if the contract is paused, and false otherwise."
      },
      "renounceAdmin(address)": {
        "params": {
          "newAdmin": "Address that admin role will be granted to."
        }
      },
      "renounceRole(bytes32,address)": {
        "details": "Revokes `role` from the calling account. Roles are often managed via {grantRole} and {revokeRole}: this function's purpose is to provide a mechanism for accounts to lose their privileges if they are compromised (such as when a trusted device is misplaced). If the calling account had been granted `role`, emits a {RoleRevoked} event. Requirements: - the caller must be `account`."
      },
      "revokeRole(bytes32,address)": {
        "details": "Revokes `role` from `account`. If `account` had been granted `role`, emits a {RoleRevoked} event. Requirements: - the caller must have ``role``'s admin role."
      },
      "transferFunds(address[],uint256[])": {
        "params": {
          "addrs": "Array of addresses to transfer {amounts} to.",
          "amounts": "Array of amonuts to transfer to {addrs}."
        }
      },
      "voteProposal(uint8,uint64,bytes32,bytes32)": {
        "params": {
          "chainID": "ID of chain deposit originated from.",
          "dataHash": "Hash of data provided when deposit was made.",
          "depositNonce": "ID of deposited generated by origin Bridge contract."
        }
      }
    },
    "title": "Facilitates deposits, creation and votiing of deposit proposals, and deposit executions.",
    "version": 1
  },
  "userdoc": {
    "kind": "user",
    "methods": {
      "adminAddRelayer(address)": {
        "notice": "Grants {relayerAddress} the relayer role and increases {_totalRelayer} count.Only callable by an address that currently has the admin role.Emits {RelayerAdded} event."
      },
      "adminChangeFee(uint256)": {
        "notice": "Changes deposit fee.Only callable by admin."
      },
      "adminChangeRelayerThreshold(uint256)": {
        "notice": "Modifies the number of votes required for a proposal to be considered passed.Only callable by an address that currently has the admin role.Emits {RelayerThresholdChanged} event."
      },
      "adminPauseTransfers()": {
        "notice": "Pauses deposits, proposal creation and voting, and deposit executions.Only callable by an address that currently has the admin role."
      },
      "adminRemoveRelayer(address)": {
        "notice": "Removes relayer role for {relayerAddress} and decreases {_totalRelayer} count.Only callable by an address that currently has the admin role.Emits {RelayerRemoved} event."
      },
      "adminSetBurnable(address,address)": {
        "notice": "Sets a resource as burnable for handler contracts that use the IERCHandler interface.Only callable by an address that currently has the admin role."
      },
      "adminSetGenericResource(address,bytes32,address,bytes4,bytes4)": {
        "notice": "Sets a new resource for handler contracts that use the IGenericHandler interface, and maps the {handlerAddress} to {resourceID} in {_resourceIDToHandlerAddress}.Only callable by an address that currently has the admin role."
      },
      "adminSetResource(address,bytes32,address)": {
        "notice": "Sets a new resource for handler contracts that use the IERCHandler interface, and maps the {handlerAddress} to {resourceID} in {_resourceIDToHandlerAddress}.Only callable by an address that currently has the admin role."
      },
      "adminUnpauseTransfers()": {
        "notice": "Unpauses deposits, proposal creation and voting, and deposit executions.Only callable by an address that currently has the admin role."
      },
      "adminWithdraw(address,address,address,uint256)": {
        "notice": "Used to manually withdraw funds from ERC safes."
      },
      "cancelProposal(uint8,uint64,bytes32)": {
        "notice": "Executes a deposit proposal that is considered passed using a specified handler contract.Only callable by relayers when Bridge is not paused.Proposal must be past expiry threshold.Emits {ProposalEvent} event with status {Cancelled}."
      },
      "constructor": {
        "notice": "Initializes Bridge, creates and grants {msg.sender} the admin role, creates and grants {initialRelayers} the relayer role."
      },
      "deposit(uint8,bytes32,bytes)": {
        "notice": "Initiates a transfer using a specified handler contract.Only callable when Bridge is not paused.Emits {Deposit} event."
      },
      "executeProposal(uint8,uint64,bytes,bytes32)": {
        "notice": "Executes a deposit proposal that is considered passed using a specified handler contract.Only callable by relayers when Bridge is not paused.Proposal must have Passed status.Hash of {data} must equal proposal's {dataHash}.Emits {ProposalEvent} event with status {Executed}."
      },
      "getProposal(uint8,uint64,bytes32)": {
        "notice": "Returns a proposal."
      },
      "isRelayer(address)": {
        "notice": "Returns true if {relayer} has the relayer role."
      },
      "renounceAdmin(address)": {
        "notice": "Removes admin role from {msg.sender} and grants it to {newAdmin}.Only callable by an address that currently has the admin role."
      },
      "transferFunds(address[],uint256[])": {
        "notice": "Transfers eth in the contract to the specified addresses. The parameters addrs and amounts are mapped 1-1. This means that the address at index 0 for addrs will receive the amount (in WEI) from amounts at index 0."
      },
      "voteProposal(uint8,uint64,bytes32,bytes32)": {
        "notice": "When called, {msg.sender} will be marked as voting in favor of proposal.Only callable by relayers when Bridge is not paused.Proposal must not have already been passed or executed.{msg.sender} must not have already voted on proposal.Emits {ProposalEvent} event with status indicating the proposal status.Emits {ProposalVote} event."
      }
    },
    "version": 1
  }
}