{
  "contractName": "Bridge",
  "abi": [
    {
      "inputs": [
        {
          "internalType": "uint8",
          "name": "chainID",
          "type": "uint8"
        },
        {
          "internalType": "address[]",
          "name": "initialRelayers",
          "type": "address[]"
        },
        {
          "internalType": "uint256",
          "name": "initialRelayerThreshold",
          "type": "uint256"
        },
        {
          "internalType": "uint256",
          "name": "fee",
          "type": "uint256"
        },
        {
          "internalType": "uint256",
          "name": "expiry",
          "type": "uint256"
        }
      ],
      "stateMutability": "nonpayable",
      "type": "constructor"
    },
    {
      "anonymous": false,
      "inputs": [
        {
          "indexed": true,
          "internalType": "uint8",
          "name": "destinationChainID",
          "type": "uint8"
        },
        {
          "indexed": true,
          "internalType": "bytes32",
          "name": "resourceID",
          "type": "bytes32"
        },
        {
          "indexed": true,
          "internalType": "uint64",
          "name": "depositNonce",
          "type": "uint64"
        }
      ],
      "name": "Deposit",
      "type": "event"
    },
    {
      "anonymous": false,
      "inputs": [
        {
          "indexed": false,
          "internalType": "address",
          "name": "account",
          "type": "address"
        }
      ],
      "name": "Paused",
      "type": "event"
    },
    {
      "anonymous": false,
      "inputs": [
        {
          "indexed": true,
          "internalType": "uint8",
          "name": "originChainID",
          "type": "uint8"
        },
        {
          "indexed": true,
          "internalType": "uint64",
          "name": "depositNonce",
          "type": "uint64"
        },
        {
          "indexed": true,
          "internalType": "enum Bridge.ProposalStatus",
          "name": "status",
          "type": "uint8"
        },
        {
          "indexed": false,
          "internalType": "bytes32",
          "name": "resourceID",
          "type": "bytes32"
        },
        {
          "indexed": false,
          "internalType": "bytes32",
          "name": "dataHash",
          "type": "bytes32"
        }
      ],
      "name": "ProposalEvent",
      "type": "event"
    },
    {
      "anonymous": false,
      "inputs": [
        {
          "indexed": true,
          "internalType": "uint8",
          "name": "originChainID",
          "type": "uint8"
        },
        {
          "indexed": true,
          "internalType": "uint64",
          "name": "depositNonce",
          "type": "uint64"
        },
        {
          "indexed": true,
          "internalType": "enum Bridge.ProposalStatus",
          "name": "status",
          "type": "uint8"
        },
        {
          "indexed": false,
          "internalType": "bytes32",
          "name": "resourceID",
          "type": "bytes32"
        }
      ],
      "name": "ProposalVote",
      "type": "event"
    },
    {
      "anonymous": false,
      "inputs": [
        {
          "indexed": true,
          "internalType": "address",
          "name": "relayer",
          "type": "address"
        }
      ],
      "name": "RelayerAdded",
      "type": "event"
    },
    {
      "anonymous": false,
      "inputs": [
        {
          "indexed": true,
          "internalType": "address",
          "name": "relayer",
          "type": "address"
        }
      ],
      "name": "RelayerRemoved",
      "type": "event"
    },
    {
      "anonymous": false,
      "inputs": [
        {
          "indexed": true,
          "internalType": "uint256",
          "name": "newThreshold",
          "type": "uint256"
        }
      ],
      "name": "RelayerThresholdChanged",
      "type": "event"
    },
    {
      "anonymous": false,
      "inputs": [
        {
          "indexed": true,
          "internalType": "bytes32",
          "name": "role",
          "type": "bytes32"
        },
        {
          "indexed": true,
          "internalType": "bytes32",
          "name": "previousAdminRole",
          "type": "bytes32"
        },
        {
          "indexed": true,
          "internalType": "bytes32",
          "name": "newAdminRole",
          "type": "bytes32"
        }
      ],
      "name": "RoleAdminChanged",
      "type": "event"
    },
    {
      "anonymous": false,
      "inputs": [
        {
          "indexed": true,
          "internalType": "bytes32",
          "name": "role",
          "type": "bytes32"
        },
        {
          "indexed": true,
          "internalType": "address",
          "name": "account",
          "type": "address"
        },
        {
          "indexed": true,
          "internalType": "address",
          "name": "sender",
          "type": "address"
        }
      ],
      "name": "RoleGranted",
      "type": "event"
    },
    {
      "anonymous": false,
      "inputs": [
        {
          "indexed": true,
          "internalType": "bytes32",
          "name": "role",
          "type": "bytes32"
        },
        {
          "indexed": true,
          "internalType": "address",
          "name": "account",
          "type": "address"
        },
        {
          "indexed": true,
          "internalType": "address",
          "name": "sender",
          "type": "address"
        }
      ],
      "name": "RoleRevoked",
      "type": "event"
    },
    {
      "anonymous": false,
      "inputs": [
        {
          "indexed": false,
          "internalType": "address",
          "name": "account",
          "type": "address"
        }
      ],
      "name": "Unpaused",
      "type": "event"
    },
    {
      "inputs": [],
      "name": "DEFAULT_ADMIN_ROLE",
      "outputs": [
        {
          "internalType": "bytes32",
          "name": "",
          "type": "bytes32"
        }
      ],
      "stateMutability": "view",
      "type": "function"
    },
    {
      "inputs": [],
      "name": "RELAYER_ROLE",
      "outputs": [
        {
          "internalType": "bytes32",
          "name": "",
          "type": "bytes32"
        }
      ],
      "stateMutability": "view",
      "type": "function"
    },
    {
      "inputs": [],
      "name": "_chainID",
      "outputs": [
        {
          "internalType": "uint8",
          "name": "",
          "type": "uint8"
        }
      ],
      "stateMutability": "view",
      "type": "function"
    },
    {
      "inputs": [
        {
          "internalType": "uint8",
          "name": "",
          "type": "uint8"
        }
      ],
      "name": "_depositCounts",
      "outputs": [
        {
          "internalType": "uint64",
          "name": "",
          "type": "uint64"
        }
      ],
      "stateMutability": "view",
      "type": "function"
    },
    {
      "inputs": [
        {
          "internalType": "uint64",
          "name": "",
          "type": "uint64"
        },
        {
          "internalType": "uint8",
          "name": "",
          "type": "uint8"
        }
      ],
      "name": "_depositRecords",
      "outputs": [
        {
          "internalType": "bytes",
          "name": "",
          "type": "bytes"
        }
      ],
      "stateMutability": "view",
      "type": "function"
    },
    {
      "inputs": [],
      "name": "_expiry",
      "outputs": [
        {
          "internalType": "uint256",
          "name": "",
          "type": "uint256"
        }
      ],
      "stateMutability": "view",
      "type": "function"
    },
    {
      "inputs": [],
      "name": "_fee",
      "outputs": [
        {
          "internalType": "uint256",
          "name": "",
          "type": "uint256"
        }
      ],
      "stateMutability": "view",
      "type": "function"
    },
    {
      "inputs": [
        {
          "internalType": "uint72",
          "name": "",
          "type": "uint72"
        },
        {
          "internalType": "bytes32",
          "name": "",
          "type": "bytes32"
        },
        {
          "internalType": "address",
          "name": "",
          "type": "address"
        }
      ],
      "name": "_hasVotedOnProposal",
      "outputs": [
        {
          "internalType": "bool",
          "name": "",
          "type": "bool"
        }
      ],
      "stateMutability": "view",
      "type": "function"
    },
    {
      "inputs": [
        {
          "internalType": "uint72",
          "name": "",
          "type": "uint72"
        },
        {
          "internalType": "bytes32",
          "name": "",
          "type": "bytes32"
        }
      ],
      "name": "_proposals",
      "outputs": [
        {
          "internalType": "bytes32",
          "name": "_resourceID",
          "type": "bytes32"
        },
        {
          "internalType": "bytes32",
          "name": "_dataHash",
          "type": "bytes32"
        },
        {
          "internalType": "enum Bridge.ProposalStatus",
          "name": "_status",
          "type": "uint8"
        },
        {
          "internalType": "uint256",
          "name": "_proposedBlock",
          "type": "uint256"
        }
      ],
      "stateMutability": "view",
      "type": "function"
    },
    {
      "inputs": [],
      "name": "_relayerThreshold",
      "outputs": [
        {
          "internalType": "uint256",
          "name": "",
          "type": "uint256"
        }
      ],
      "stateMutability": "view",
      "type": "function"
    },
    {
      "inputs": [
        {
          "internalType": "bytes32",
          "name": "",
          "type": "bytes32"
        }
      ],
      "name": "_resourceIDToHandlerAddress",
      "outputs": [
        {
          "internalType": "address",
          "name": "",
          "type": "address"
        }
      ],
      "stateMutability": "view",
      "type": "function"
    },
    {
      "inputs": [],
      "name": "_totalProposals",
      "outputs": [
        {
          "internalType": "uint256",
          "name": "",
          "type": "uint256"
        }
      ],
      "stateMutability": "view",
      "type": "function"
    },
    {
      "inputs": [],
      "name": "_totalRelayers",
      "outputs": [
        {
          "internalType": "uint256",
          "name": "",
          "type": "uint256"
        }
      ],
      "stateMutability": "view",
      "type": "function"
    },
    {
      "inputs": [
        {
          "internalType": "bytes32",
          "name": "role",
          "type": "bytes32"
        }
      ],
      "name": "getRoleAdmin",
      "outputs": [
        {
          "internalType": "bytes32",
          "name": "",
          "type": "bytes32"
        }
      ],
      "stateMutability": "view",
      "type": "function"
    },
    {
      "inputs": [
        {
          "internalType": "bytes32",
          "name": "role",
          "type": "bytes32"
        },
        {
          "internalType": "uint256",
          "name": "index",
          "type": "uint256"
        }
      ],
      "name": "getRoleMember",
      "outputs": [
        {
          "internalType": "address",
          "name": "",
          "type": "address"
        }
      ],
      "stateMutability": "view",
      "type": "function"
    },
    {
      "inputs": [
        {
          "internalType": "bytes32",
          "name": "role",
          "type": "bytes32"
        }
      ],
      "name": "getRoleMemberCount",
      "outputs": [
        {
          "internalType": "uint256",
          "name": "",
          "type": "uint256"
        }
      ],
      "stateMutability": "view",
      "type": "function"
    },
    {
      "inputs": [
        {
          "internalType": "bytes32",
          "name": "role",
          "type": "bytes32"
        },
        {
          "internalType": "address",
          "name": "account",
          "type": "address"
        }
      ],
      "name": "grantRole",
      "outputs": [],
      "stateMutability": "nonpayable",
      "type": "function"
    },
    {
      "inputs": [
        {
          "internalType": "bytes32",
          "name": "role",
          "type": "bytes32"
        },
        {
          "internalType": "address",
          "name": "account",
          "type": "address"
        }
      ],
      "name": "hasRole",
      "outputs": [
        {
          "internalType": "bool",
          "name": "",
          "type": "bool"
        }
      ],
      "stateMutability": "view",
      "type": "function"
    },
    {
      "inputs": [],
      "name": "paused",
      "outputs": [
        {
          "internalType": "bool",
          "name": "",
          "type": "bool"
        }
      ],
      "stateMutability": "view",
      "type": "function"
    },
    {
      "inputs": [
        {
          "internalType": "bytes32",
          "name": "role",
          "type": "bytes32"
        },
        {
          "internalType": "address",
          "name": "account",
          "type": "address"
        }
      ],
      "name": "renounceRole",
      "outputs": [],
      "stateMutability": "nonpayable",
      "type": "function"
    },
    {
      "inputs": [
        {
          "internalType": "bytes32",
          "name": "role",
          "type": "bytes32"
        },
        {
          "internalType": "address",
          "name": "account",
          "type": "address"
        }
      ],
      "name": "revokeRole",
      "outputs": [],
      "stateMutability": "nonpayable",
      "type": "function"
    },
    {
      "inputs": [
        {
          "internalType": "address",
          "name": "relayer",
          "type": "address"
        }
      ],
      "name": "isRelayer",
      "outputs": [
        {
          "internalType": "bool",
          "name": "",
          "type": "bool"
        }
      ],
      "stateMutability": "view",
      "type": "function"
    },
    {
      "inputs": [
        {
          "internalType": "address",
          "name": "newAdmin",
          "type": "address"
        }
      ],
      "name": "renounceAdmin",
      "outputs": [],
      "stateMutability": "nonpayable",
      "type": "function"
    },
    {
      "inputs": [],
      "name": "adminPauseTransfers",
      "outputs": [],
      "stateMutability": "nonpayable",
      "type": "function"
    },
    {
      "inputs": [],
      "name": "adminUnpauseTransfers",
      "outputs": [],
      "stateMutability": "nonpayable",
      "type": "function"
    },
    {
      "inputs": [
        {
          "internalType": "uint256",
          "name": "newThreshold",
          "type": "uint256"
        }
      ],
      "name": "adminChangeRelayerThreshold",
      "outputs": [],
      "stateMutability": "nonpayable",
      "type": "function"
    },
    {
      "inputs": [
        {
          "internalType": "address",
          "name": "relayerAddress",
          "type": "address"
        }
      ],
      "name": "adminAddRelayer",
      "outputs": [],
      "stateMutability": "nonpayable",
      "type": "function"
    },
    {
      "inputs": [
        {
          "internalType": "address",
          "name": "relayerAddress",
          "type": "address"
        }
      ],
      "name": "adminRemoveRelayer",
      "outputs": [],
      "stateMutability": "nonpayable",
      "type": "function"
    },
    {
      "inputs": [
        {
          "internalType": "address",
          "name": "handlerAddress",
          "type": "address"
        },
        {
          "internalType": "bytes32",
          "name": "resourceID",
          "type": "bytes32"
        },
        {
          "internalType": "address",
          "name": "tokenAddress",
          "type": "address"
        }
      ],
      "name": "adminSetResource",
      "outputs": [],
      "stateMutability": "nonpayable",
      "type": "function"
    },
    {
      "inputs": [
        {
          "internalType": "address",
          "name": "handlerAddress",
          "type": "address"
        },
        {
          "internalType": "bytes32",
          "name": "resourceID",
          "type": "bytes32"
        },
        {
          "internalType": "address",
          "name": "contractAddress",
          "type": "address"
        },
        {
          "internalType": "bytes4",
          "name": "depositFunctionSig",
          "type": "bytes4"
        },
        {
          "internalType": "bytes4",
          "name": "executeFunctionSig",
          "type": "bytes4"
        }
      ],
      "name": "adminSetGenericResource",
      "outputs": [],
      "stateMutability": "nonpayable",
      "type": "function"
    },
    {
      "inputs": [
        {
          "internalType": "address",
          "name": "handlerAddress",
          "type": "address"
        },
        {
          "internalType": "address",
          "name": "tokenAddress",
          "type": "address"
        }
      ],
      "name": "adminSetBurnable",
      "outputs": [],
      "stateMutability": "nonpayable",
      "type": "function"
    },
    {
      "inputs": [
        {
          "internalType": "address",
          "name": "handlerAddress",
          "type": "address"
        },
        {
          "internalType": "address",
          "name": "tokenAddress",
          "type": "address"
        },
        {
          "internalType": "uint8",
          "name": "srcDecimals",
          "type": "uint8"
        },
        {
          "internalType": "uint8",
          "name": "destDecimals",
          "type": "uint8"
        }
      ],
      "name": "adminSetDecimals",
      "outputs": [],
      "stateMutability": "nonpayable",
      "type": "function"
    },
    {
      "inputs": [
        {
          "internalType": "uint8",
          "name": "originChainID",
          "type": "uint8"
        },
        {
          "internalType": "uint64",
          "name": "depositNonce",
          "type": "uint64"
        },
        {
          "internalType": "bytes32",
          "name": "dataHash",
          "type": "bytes32"
        }
      ],
      "name": "getProposal",
      "outputs": [
        {
          "components": [
            {
              "internalType": "bytes32",
              "name": "_resourceID",
              "type": "bytes32"
            },
            {
              "internalType": "bytes32",
              "name": "_dataHash",
              "type": "bytes32"
            },
            {
              "internalType": "address[]",
              "name": "_yesVotes",
              "type": "address[]"
            },
            {
              "internalType": "address[]",
              "name": "_noVotes",
              "type": "address[]"
            },
            {
              "internalType": "enum Bridge.ProposalStatus",
              "name": "_status",
              "type": "uint8"
            },
            {
              "internalType": "uint256",
              "name": "_proposedBlock",
              "type": "uint256"
            }
          ],
          "internalType": "struct Bridge.Proposal",
          "name": "",
          "type": "tuple"
        }
      ],
      "stateMutability": "view",
      "type": "function"
    },
    {
      "inputs": [
        {
          "internalType": "uint256",
          "name": "newFee",
          "type": "uint256"
        }
      ],
      "name": "adminChangeFee",
      "outputs": [],
      "stateMutability": "nonpayable",
      "type": "function"
    },
    {
      "inputs": [
        {
          "internalType": "address",
          "name": "handlerAddress",
          "type": "address"
        },
        {
          "internalType": "address",
          "name": "tokenAddress",
          "type": "address"
        },
        {
          "internalType": "address",
          "name": "recipient",
          "type": "address"
        },
        {
          "internalType": "uint256",
          "name": "amountOrTokenID",
          "type": "uint256"
        }
      ],
      "name": "adminWithdraw",
      "outputs": [],
      "stateMutability": "nonpayable",
      "type": "function"
    },
    {
      "inputs": [
        {
          "internalType": "uint8",
          "name": "destinationChainID",
          "type": "uint8"
        },
        {
          "internalType": "bytes32",
          "name": "resourceID",
          "type": "bytes32"
        },
        {
          "internalType": "bytes",
          "name": "data",
          "type": "bytes"
        }
      ],
      "name": "deposit",
      "outputs": [],
      "stateMutability": "payable",
      "type": "function"
    },
    {
      "inputs": [
        {
          "internalType": "uint8",
          "name": "chainID",
          "type": "uint8"
        },
        {
          "internalType": "uint64",
          "name": "depositNonce",
          "type": "uint64"
        },
        {
          "internalType": "bytes32",
          "name": "resourceID",
          "type": "bytes32"
        },
        {
          "internalType": "bytes32",
          "name": "dataHash",
          "type": "bytes32"
        }
      ],
      "name": "voteProposal",
      "outputs": [],
      "stateMutability": "nonpayable",
      "type": "function"
    },
    {
      "inputs": [
        {
          "internalType": "uint8",
          "name": "chainID",
          "type": "uint8"
        },
        {
          "internalType": "uint64",
          "name": "depositNonce",
          "type": "uint64"
        },
        {
          "internalType": "bytes32",
          "name": "dataHash",
          "type": "bytes32"
        }
      ],
      "name": "cancelProposal",
      "outputs": [],
      "stateMutability": "nonpayable",
      "type": "function"
    },
    {
      "inputs": [
        {
          "internalType": "uint8",
          "name": "chainID",
          "type": "uint8"
        },
        {
          "internalType": "uint64",
          "name": "depositNonce",
          "type": "uint64"
        },
        {
          "internalType": "bytes",
          "name": "data",
          "type": "bytes"
        },
        {
          "internalType": "bytes32",
          "name": "resourceID",
          "type": "bytes32"
        }
      ],
      "name": "executeProposal",
      "outputs": [],
      "stateMutability": "nonpayable",
      "type": "function"
    },
    {
      "inputs": [
        {
          "internalType": "address payable[]",
          "name": "addrs",
          "type": "address[]"
        },
        {
          "internalType": "uint256[]",
          "name": "amounts",
          "type": "uint256[]"
        }
      ],
      "name": "transferFunds",
      "outputs": [],
      "stateMutability": "nonpayable",
      "type": "function"
    }
  ],
  "bytecode": "0x60806040523480156200001157600080fd5b5060405162004f0138038062004f0183398181016040528101906200003791906200051d565b60008060006101000a81548160ff02191690831515021790555084600260006101000a81548160ff021916908360ff160217905550826003819055508160068190555080600781905550620000966000801b336200015060201b60201c565b620000cb7fe2b7fb3b832174769106daebcfd6d1970523240dda11281102db9363b83b0dc46000801b6200016660201b60201c565b60008451905060005b818110156200014357620001237fe2b7fb3b832174769106daebcfd6d1970523240dda11281102db9363b83b0dc48783815181106200010f57fe5b6020026020010151620001ca60201b60201c565b6004600081548092919060010191905055508080600101915050620000d4565b5050505050505062000743565b6200016282826200025960201b60201c565b5050565b806001600084815260200190815260200160002060020154837fbd79b86ffe0ab8e8776151514217cd7cacd52c909f66475c3af44e129f0b00ff60405160405180910390a48060016000848152602001908152602001600020600201819055505050565b620002016001600084815260200190815260200160002060020154620001f5620002fd60201b60201c565b6200030560201b60201c565b62000243576040517f08c379a00000000000000000000000000000000000000000000000000000000081526004016200023a9062000620565b60405180910390fd5b6200025582826200025960201b60201c565b5050565b6200028881600160008581526020019081526020016000206000016200033e60201b620025151790919060201c565b15620002f9576200029e620002fd60201b60201c565b73ffffffffffffffffffffffffffffffffffffffff168173ffffffffffffffffffffffffffffffffffffffff16837f2f8788117e7eff1d82e926ec794901d17c78024a50270940304540a733656f0d60405160405180910390a45b5050565b600033905090565b60006200033682600160008681526020019081526020016000206000016200037660201b620025451790919060201c565b905092915050565b60006200036e836000018373ffffffffffffffffffffffffffffffffffffffff1660001b620003ae60201b60201c565b905092915050565b6000620003a6836000018373ffffffffffffffffffffffffffffffffffffffff1660001b6200042860201b60201c565b905092915050565b6000620003c283836200042860201b60201c565b6200041d57826000018290806001815401808255809150506001900390600052602060002001600090919091909150558260000180549050836001016000848152602001908152602001600020819055506001905062000422565b600090505b92915050565b600080836001016000848152602001908152602001600020541415905092915050565b6000815190506200045c81620006f5565b92915050565b600082601f8301126200047457600080fd5b81516200048b620004858262000670565b62000642565b91508181835260208401935060208101905083856020840282011115620004b157600080fd5b60005b83811015620004e55781620004ca88826200044b565b845260208401935060208301925050600181019050620004b4565b5050505092915050565b60008151905062000500816200070f565b92915050565b600081519050620005178162000729565b92915050565b600080600080600060a086880312156200053657600080fd5b6000620005468882890162000506565b955050602086015167ffffffffffffffff8111156200056457600080fd5b620005728882890162000462565b94505060406200058588828901620004ef565b93505060606200059888828901620004ef565b9250506080620005ab88828901620004ef565b9150509295509295909350565b6000620005c7602f8362000699565b91507f416363657373436f6e74726f6c3a2073656e646572206d75737420626520616e60008301527f2061646d696e20746f206772616e7400000000000000000000000000000000006020830152604082019050919050565b600060208201905081810360008301526200063b81620005b8565b9050919050565b6000604051905081810181811067ffffffffffffffff821117156200066657600080fd5b8060405250919050565b600067ffffffffffffffff8211156200068857600080fd5b602082029050602081019050919050565b600082825260208201905092915050565b6000620006b782620006be565b9050919050565b600073ffffffffffffffffffffffffffffffffffffffff82169050919050565b6000819050919050565b600060ff82169050919050565b6200070081620006aa565b81146200070c57600080fd5b50565b6200071a81620006de565b81146200072657600080fd5b50565b6200073481620006e8565b81146200074057600080fd5b50565b6147ae80620007536000396000f3fe60806040526004361061023b5760003560e01c80638c0c26311161012e578063beab7131116100ab578063cdb0f73a1161006f578063cdb0f73a146108ab578063d547741f146108d4578063d7a9cd79146108fd578063e8437ee714610928578063ffaac0eb146109515761023b565b8063beab7131146107c4578063c5b37c22146107ef578063c5ec89701461081a578063ca15c87314610845578063cb10f215146108825761023b565b80639d5773e0116100f25780639d5773e0146106df5780639d82dd631461070a578063a217fddf14610733578063a9cf69fa1461075e578063b56bcaf11461079b5761023b565b80638c0c2631146105e85780639010d07c1461061157806391c404ac1461064e57806391d1485414610677578063926d7d7f146106b45761023b565b80634e056005116101bc578063780cf00411610180578063780cf004146105035780637febe63f1461052c578063802aabe81461056957806380ae1c281461059457806384db809f146105ab5761023b565b80634e056005146104095780635059871914610432578063541d5548146104725780635c975abb146104af5780635e1fab0f146104da5761023b565b806336568abe1161020357806336568abe146103145780633ee7094a1461033d5780634454b20d1461037a5780634603ae38146103a35780634b0b919d146103cc5761023b565b806305e2ca171461024057806317f03ce51461025c5780631ff013f114610285578063248a9ca3146102ae5780632f2ff15d146102eb575b600080fd5b61025a600480360381019061025591906133a7565b610968565b005b34801561026857600080fd5b50610283600480360381019061027e9190613413565b610bc5565b005b34801561029157600080fd5b506102ac60048036038101906102a79190613462565b610d72565b005b3480156102ba57600080fd5b506102d560048036038101906102d091906131ed565b611521565b6040516102e29190613f76565b60405180910390f35b3480156102f757600080fd5b50610312600480360381019061030d9190613216565b611541565b005b34801561032057600080fd5b5061033b60048036038101906103369190613216565b6115b5565b005b34801561034957600080fd5b50610364600480360381019061035f91906132b7565b611638565b60405161037191906140fb565b60405180910390f35b34801561038657600080fd5b506103a1600480360381019061039c91906134c5565b6116f5565b005b3480156103af57600080fd5b506103ca60048036038101906103c59190613178565b6119cb565b005b3480156103d857600080fd5b506103f360048036038101906103ee919061337e565b611abc565b604051610400919061445c565b60405180910390f35b34801561041557600080fd5b50610430600480360381019061042b919061328e565b611ae3565b005b34801561043e57600080fd5b50610459600480360381019061045491906132f3565b611b22565b6040516104699493929190614028565b60405180910390f35b34801561047e57600080fd5b5061049960048036038101906104949190612f5e565b611b6c565b6040516104a69190613f5b565b60405180910390f35b3480156104bb57600080fd5b506104c4611b9f565b6040516104d19190613f5b565b60405180910390f35b3480156104e657600080fd5b5061050160048036038101906104fc9190612f5e565b611bb5565b005b34801561050f57600080fd5b5061052a60048036038101906105259190612fec565b611bda565b005b34801561053857600080fd5b50610553600480360381019061054e919061332f565b611c5d565b6040516105609190613f5b565b60405180910390f35b34801561057557600080fd5b5061057e611c99565b60405161058b9190614441565b60405180910390f35b3480156105a057600080fd5b506105a9611c9f565b005b3480156105b757600080fd5b506105d260048036038101906105cd91906131ed565b611cb1565b6040516105df9190613eb7565b60405180910390f35b3480156105f457600080fd5b5061060f600480360381019061060a9190612fb0565b611ce4565b005b34801561061d57600080fd5b5061063860048036038101906106339190613252565b611d61565b6040516106459190613eb7565b60405180910390f35b34801561065a57600080fd5b506106756004803603810190610670919061328e565b611d93565b005b34801561068357600080fd5b5061069e60048036038101906106999190613216565b611dea565b6040516106ab9190613f5b565b60405180910390f35b3480156106c057600080fd5b506106c9611e1c565b6040516106d69190613f76565b60405180910390f35b3480156106eb57600080fd5b506106f4611e40565b6040516107019190614441565b60405180910390f35b34801561071657600080fd5b50610731600480360381019061072c9190612f5e565b611e46565b005b34801561073f57600080fd5b50610748611f3a565b6040516107559190613f76565b60405180910390f35b34801561076a57600080fd5b5061078560048036038101906107809190613413565b611f41565b604051610792919061441f565b60405180910390f35b3480156107a757600080fd5b506107c260048036038101906107bd919061304f565b612122565b005b3480156107d057600080fd5b506107d96121a5565b6040516107e69190614477565b60405180910390f35b3480156107fb57600080fd5b506108046121b8565b6040516108119190614441565b60405180910390f35b34801561082657600080fd5b5061082f6121be565b60405161083c9190614441565b60405180910390f35b34801561085157600080fd5b5061086c600480360381019061086791906131ed565b6121c4565b6040516108799190614441565b60405180910390f35b34801561088e57600080fd5b506108a960048036038101906108a491906130b2565b6121eb565b005b3480156108b757600080fd5b506108d260048036038101906108cd9190612f5e565b6122bd565b005b3480156108e057600080fd5b506108fb60048036038101906108f69190613216565b6123b1565b005b34801561090957600080fd5b50610912612425565b60405161091f9190614441565b60405180910390f35b34801561093457600080fd5b5061094f600480360381019061094a9190613101565b61242b565b005b34801561095d57600080fd5b50610966612503565b005b610970612575565b60065434146109b4576040517f08c379a00000000000000000000000000000000000000000000000000000000081526004016109ab9061423f565b60405180910390fd5b60006009600085815260200190815260200160002060009054906101000a900473ffffffffffffffffffffffffffffffffffffffff169050600073ffffffffffffffffffffffffffffffffffffffff168173ffffffffffffffffffffffffffffffffffffffff161415610a5c576040517f08c379a0000000000000000000000000000000000000000000000000000000008152600401610a539061429f565b60405180910390fd5b6000600860008760ff1660ff168152602001908152602001600020600081819054906101000a900467ffffffffffffffff1660010191906101000a81548167ffffffffffffffff021916908367ffffffffffffffff160217905590508383600a60008467ffffffffffffffff1667ffffffffffffffff16815260200190815260200160002060008960ff1660ff1681526020019081526020016000209190610b05929190612c2f565b5060008290508073ffffffffffffffffffffffffffffffffffffffff166338995da9878985338a8a6040518763ffffffff1660e01b8152600401610b4e9695949392919061409f565b600060405180830381600087803b158015610b6857600080fd5b505af1158015610b7c573d6000803e3d6000fd5b505050508167ffffffffffffffff16868860ff167fdbb69440df8433824a026ef190652f29929eb64b4d1d5d2a69be8afe3e6eaed860405160405180910390a450505050505050565b610bcd6125c5565b60008360ff1660088467ffffffffffffffff1668ffffffffffffffffff16901b1790506000600b60008368ffffffffffffffffff1668ffffffffffffffffff16815260200190815260200160002060008481526020019081526020016000209050600480811115610c3a57fe5b8160040160009054906101000a900460ff166004811115610c5757fe5b1415610c98576040517f08c379a0000000000000000000000000000000000000000000000000000000008152600401610c8f9061427f565b60405180910390fd5b600754610ca9438360050154612644565b11610ce9576040517f08c379a0000000000000000000000000000000000000000000000000000000008152600401610ce0906142df565b60405180910390fd5b60048160040160006101000a81548160ff02191690836004811115610d0a57fe5b0217905550600480811115610d1b57fe5b8467ffffffffffffffff168660ff167f803c5a12f6bde629cea32e63d4b92d1b560816a6fb72e939d3c89e1cab65041784600001548560010154604051610d63929190613fff565b60405180910390a45050505050565b610d7a61268e565b610d82612575565b60008460ff1660088567ffffffffffffffff1668ffffffffffffffffff16901b1790506000600b60008368ffffffffffffffffff1668ffffffffffffffffff16815260200190815260200160002060008481526020019081526020016000209050600073ffffffffffffffffffffffffffffffffffffffff166009600086815260200190815260200160002060009054906101000a900473ffffffffffffffffffffffffffffffffffffffff1673ffffffffffffffffffffffffffffffffffffffff161415610e86576040517f08c379a0000000000000000000000000000000000000000000000000000000008152600401610e7d906143df565b60405180910390fd5b60018160040160009054906101000a900460ff166004811115610ea557fe5b1115610ee6576040517f08c379a0000000000000000000000000000000000000000000000000000000008152600401610edd9061433f565b60405180910390fd5b600c60008368ffffffffffffffffff1668ffffffffffffffffff168152602001908152602001600020600084815260200190815260200160002060003373ffffffffffffffffffffffffffffffffffffffff1673ffffffffffffffffffffffffffffffffffffffff16815260200190815260200160002060009054906101000a900460ff1615610fab576040517f08c379a0000000000000000000000000000000000000000000000000000000008152600401610fa2906141df565b60405180910390fd5b60008160040160009054906101000a900460ff166004811115610fca57fe5b141561121857600560008154600101919050819055506040518060c00160405280858152602001848152602001600167ffffffffffffffff8111801561100f57600080fd5b5060405190808252806020026020018201604052801561103e5781602001602082028036833780820191505090505b508152602001600067ffffffffffffffff8111801561105c57600080fd5b5060405190808252806020026020018201604052801561108b5781602001602082028036833780820191505090505b5081526020016001600481111561109e57fe5b815260200143815250600b60008468ffffffffffffffffff1668ffffffffffffffffff168152602001908152602001600020600085815260200190815260200160002060008201518160000155602082015181600101556040820151816002019080519060200190611111929190612caf565b50606082015181600301908051906020019061112e929190612caf565b5060808201518160040160006101000a81548160ff0219169083600481111561115357fe5b021790555060a08201518160050155905050338160020160008154811061117657fe5b9060005260206000200160006101000a81548173ffffffffffffffffffffffffffffffffffffffff021916908373ffffffffffffffffffffffffffffffffffffffff160217905550600160048111156111cb57fe5b8567ffffffffffffffff168760ff167f803c5a12f6bde629cea32e63d4b92d1b560816a6fb72e939d3c89e1cab650417878760405161120b929190613fff565b60405180910390a461135b565b600754611229438360050154612644565b11156112ae5760048160040160006101000a81548160ff0219169083600481111561125057fe5b021790555060048081111561126157fe5b8567ffffffffffffffff168760ff167f803c5a12f6bde629cea32e63d4b92d1b560816a6fb72e939d3c89e1cab65041787876040516112a1929190613fff565b60405180910390a461135a565b806001015483146112f4576040517f08c379a00000000000000000000000000000000000000000000000000000000081526004016112eb906143bf565b60405180910390fd5b80600201339080600181540180825580915050600190039060005260206000200160009091909190916101000a81548173ffffffffffffffffffffffffffffffffffffffff021916908373ffffffffffffffffffffffffffffffffffffffff1602179055505b5b60048081111561136757fe5b8160040160009054906101000a900460ff16600481111561138457fe5b14611519576001600c60008468ffffffffffffffffff1668ffffffffffffffffff168152602001908152602001600020600085815260200190815260200160002060003373ffffffffffffffffffffffffffffffffffffffff1673ffffffffffffffffffffffffffffffffffffffff16815260200190815260200160002060006101000a81548160ff0219169083151502179055508060040160009054906101000a900460ff16600481111561143657fe5b8567ffffffffffffffff168760ff167f25f8daaa4635a7729927ba3f5b3d59cc3320aca7c32c9db4e7ca7b9574343640876040516114749190613f76565b60405180910390a460016003541115806114975750600354816002018054905010155b156115185760028160040160006101000a81548160ff021916908360048111156114bd57fe5b0217905550600260048111156114cf57fe5b8567ffffffffffffffff168760ff167f803c5a12f6bde629cea32e63d4b92d1b560816a6fb72e939d3c89e1cab650417878760405161150f929190613fff565b60405180910390a45b5b505050505050565b600060016000838152602001908152602001600020600201549050919050565b61156860016000848152602001908152602001600020600201546115636126f9565b611dea565b6115a7576040517f08c379a000000000000000000000000000000000000000000000000000000000815260040161159e906141bf565b60405180910390fd5b6115b18282612701565b5050565b6115bd6126f9565b73ffffffffffffffffffffffffffffffffffffffff168173ffffffffffffffffffffffffffffffffffffffff161461162a576040517f08c379a0000000000000000000000000000000000000000000000000000000008152600401611621906143ff565b60405180910390fd5b6116348282612795565b5050565b600a602052816000526040600020602052806000526040600020600091509150508054600181600116156101000203166002900480601f0160208091040260200160405190810160405280929190818152602001828054600181600116156101000203166002900480156116ed5780601f106116c2576101008083540402835291602001916116ed565b820191906000526020600020905b8154815290600101906020018083116116d057829003601f168201915b505050505081565b6116fd61268e565b611705612575565b60006009600083815260200190815260200160002060009054906101000a900473ffffffffffffffffffffffffffffffffffffffff16905060008660ff1660088767ffffffffffffffff1668ffffffffffffffffff16901b179050600082868660405160200161177793929190613e8d565b6040516020818303038152906040528051906020012090506000600b60008468ffffffffffffffffff1668ffffffffffffffffff16815260200190815260200160002060008381526020019081526020016000209050600260048111156117da57fe5b8160040160009054906101000a900460ff1660048111156117f757fe5b14611837576040517f08c379a000000000000000000000000000000000000000000000000000000000815260040161182e9061413f565b60405180910390fd5b8060010154821461187d576040517f08c379a00000000000000000000000000000000000000000000000000000000081526004016118749061425f565b60405180910390fd5b60038160040160006101000a81548160ff0219169083600481111561189e57fe5b02179055506000600960008360000154815260200190815260200160002060009054906101000a900473ffffffffffffffffffffffffffffffffffffffff1690508073ffffffffffffffffffffffffffffffffffffffff1663e248cff283600001548a8a6040518463ffffffff1660e01b81526004016119209392919061406d565b600060405180830381600087803b15801561193a57600080fd5b505af115801561194e573d6000803e3d6000fd5b505050508160040160009054906101000a900460ff16600481111561196f57fe5b8967ffffffffffffffff168b60ff167f803c5a12f6bde629cea32e63d4b92d1b560816a6fb72e939d3c89e1cab650417856000015486600101546040516119b7929190613fff565b60405180910390a450505050505050505050565b6119d3612829565b818190508484905014611a1b576040517f08c379a0000000000000000000000000000000000000000000000000000000008152600401611a129061419f565b60405180910390fd5b600084849050905060005b81811015611ab457858582818110611a3a57fe5b9050602002016020810190611a4f9190612f87565b73ffffffffffffffffffffffffffffffffffffffff166108fc858584818110611a7457fe5b905060200201359081150290604051600060405180830381858888f19350505050158015611aa6573d6000803e3d6000fd5b508080600101915050611a26565b505050505050565b60086020528060005260406000206000915054906101000a900467ffffffffffffffff1681565b611aeb612829565b80600381905550807fa20d6b84cd798a24038be305eff8a45ca82ef54a2aa2082005d8e14c0a4746c860405160405180910390a250565b600b602052816000526040600020602052806000526040600020600091509150508060000154908060010154908060040160009054906101000a900460ff16908060050154905084565b6000611b987fe2b7fb3b832174769106daebcfd6d1970523240dda11281102db9363b83b0dc483611dea565b9050919050565b60008060009054906101000a900460ff16905090565b611bbd612829565b611bca6000801b82611541565b611bd76000801b336115b5565b50565b611be2612829565b60008490508073ffffffffffffffffffffffffffffffffffffffff1663d9caed128585856040518463ffffffff1660e01b8152600401611c2493929190613eed565b600060405180830381600087803b158015611c3e57600080fd5b505af1158015611c52573d6000803e3d6000fd5b505050505050505050565b600c602052826000526040600020602052816000526040600020602052806000526040600020600092509250509054906101000a900460ff1681565b60045481565b611ca7612829565b611caf612877565b565b60096020528060005260406000206000915054906101000a900473ffffffffffffffffffffffffffffffffffffffff1681565b611cec612829565b60008290508073ffffffffffffffffffffffffffffffffffffffff166307b7ed99836040518263ffffffff1660e01b8152600401611d2a9190613eb7565b600060405180830381600087803b158015611d4457600080fd5b505af1158015611d58573d6000803e3d6000fd5b50505050505050565b6000611d8b82600160008681526020019081526020016000206000016128d290919063ffffffff16565b905092915050565b611d9b612829565b806006541415611de0576040517f08c379a0000000000000000000000000000000000000000000000000000000008152600401611dd79061439f565b60405180910390fd5b8060068190555050565b6000611e14826001600086815260200190815260200160002060000161254590919063ffffffff16565b905092915050565b7fe2b7fb3b832174769106daebcfd6d1970523240dda11281102db9363b83b0dc481565b60055481565b611e4e612829565b611e787fe2b7fb3b832174769106daebcfd6d1970523240dda11281102db9363b83b0dc482611dea565b611eb7576040517f08c379a0000000000000000000000000000000000000000000000000000000008152600401611eae9061421f565b60405180910390fd5b611ee17fe2b7fb3b832174769106daebcfd6d1970523240dda11281102db9363b83b0dc4826123b1565b8073ffffffffffffffffffffffffffffffffffffffff167f10e1f7ce9fd7d1b90a66d13a2ab3cb8dd7f29f3f8d520b143b063ccfbab6906b60405160405180910390a26004600081548092919060019003919050555050565b6000801b81565b611f49612d39565b60008460ff1660088567ffffffffffffffff1668ffffffffffffffffff16901b179050600b60008268ffffffffffffffffff1668ffffffffffffffffff16815260200190815260200160002060008481526020019081526020016000206040518060c001604052908160008201548152602001600182015481526020016002820180548060200260200160405190810160405280929190818152602001828054801561204a57602002820191906000526020600020905b8160009054906101000a900473ffffffffffffffffffffffffffffffffffffffff1673ffffffffffffffffffffffffffffffffffffffff1681526020019060010190808311612000575b50505050508152602001600382018054806020026020016040519081016040528092919081815260200182805480156120d857602002820191906000526020600020905b8160009054906101000a900473ffffffffffffffffffffffffffffffffffffffff1673ffffffffffffffffffffffffffffffffffffffff168152602001906001019080831161208e575b505050505081526020016004820160009054906101000a900460ff1660048111156120ff57fe5b600481111561210a57fe5b81526020016005820154815250509150509392505050565b61212a612829565b60008490508073ffffffffffffffffffffffffffffffffffffffff1663f47127448585856040518463ffffffff1660e01b815260040161216c93929190613f24565b600060405180830381600087803b15801561218657600080fd5b505af115801561219a573d6000803e3d6000fd5b505050505050505050565b600260009054906101000a900460ff1681565b60065481565b60075481565b60006121e4600160008481526020019081526020016000206000016128ec565b9050919050565b6121f3612829565b826009600084815260200190815260200160002060006101000a81548173ffffffffffffffffffffffffffffffffffffffff021916908373ffffffffffffffffffffffffffffffffffffffff16021790555060008390508073ffffffffffffffffffffffffffffffffffffffff1663b8fa373684846040518363ffffffff1660e01b8152600401612285929190613f91565b600060405180830381600087803b15801561229f57600080fd5b505af11580156122b3573d6000803e3d6000fd5b5050505050505050565b6122c5612829565b6122ef7fe2b7fb3b832174769106daebcfd6d1970523240dda11281102db9363b83b0dc482611dea565b1561232f576040517f08c379a00000000000000000000000000000000000000000000000000000000081526004016123269061431f565b60405180910390fd5b6123597fe2b7fb3b832174769106daebcfd6d1970523240dda11281102db9363b83b0dc482611541565b8073ffffffffffffffffffffffffffffffffffffffff167f03580ee9f53a62b7cb409a2cb56f9be87747dd15017afc5cef6eef321e4fb2c560405160405180910390a260046000815480929190600101919050555050565b6123d860016000848152602001908152602001600020600201546123d36126f9565b611dea565b612417576040517f08c379a000000000000000000000000000000000000000000000000000000000815260040161240e906142bf565b60405180910390fd5b6124218282612795565b5050565b60035481565b612433612829565b846009600086815260200190815260200160002060006101000a81548173ffffffffffffffffffffffffffffffffffffffff021916908373ffffffffffffffffffffffffffffffffffffffff16021790555060008590508073ffffffffffffffffffffffffffffffffffffffff1663bba8185a868686866040518563ffffffff1660e01b81526004016124c99493929190613fba565b600060405180830381600087803b1580156124e357600080fd5b505af11580156124f7573d6000803e3d6000fd5b50505050505050505050565b61250b612829565b612513612901565b565b600061253d836000018373ffffffffffffffffffffffffffffffffffffffff1660001b61295c565b905092915050565b600061256d836000018373ffffffffffffffffffffffffffffffffffffffff1660001b6129cc565b905092915050565b60008054906101000a900460ff16156125c3576040517f08c379a00000000000000000000000000000000000000000000000000000000081526004016125ba906142ff565b60405180910390fd5b565b6125d26000801b33611dea565b8061260357506126027fe2b7fb3b832174769106daebcfd6d1970523240dda11281102db9363b83b0dc433611dea565b5b612642576040517f08c379a00000000000000000000000000000000000000000000000000000000081526004016126399061417f565b60405180910390fd5b565b600061268683836040518060400160405280601e81526020017f536166654d6174683a207375627472616374696f6e206f766572666c6f7700008152506129ef565b905092915050565b6126b87fe2b7fb3b832174769106daebcfd6d1970523240dda11281102db9363b83b0dc433611dea565b6126f7576040517f08c379a00000000000000000000000000000000000000000000000000000000081526004016126ee9061435f565b60405180910390fd5b565b600033905090565b612729816001600085815260200190815260200160002060000161251590919063ffffffff16565b15612791576127366126f9565b73ffffffffffffffffffffffffffffffffffffffff168173ffffffffffffffffffffffffffffffffffffffff16837f2f8788117e7eff1d82e926ec794901d17c78024a50270940304540a733656f0d60405160405180910390a45b5050565b6127bd8160016000858152602001908152602001600020600001612a4a90919063ffffffff16565b15612825576127ca6126f9565b73ffffffffffffffffffffffffffffffffffffffff168173ffffffffffffffffffffffffffffffffffffffff16837ff6391f5c32d9c69d2a47ea670b442974b53935d1edc7fd64eb21e047a839171b60405160405180910390a45b5050565b6128366000801b33611dea565b612875576040517f08c379a000000000000000000000000000000000000000000000000000000000815260040161286c9061437f565b60405180910390fd5b565b61287f612575565b60016000806101000a81548160ff0219169083151502179055507f62e78cea01bee320cd4e420270b5ea74000d11b0c9f74754ebdbfc544b05a258336040516128c89190613ed2565b60405180910390a1565b60006128e18360000183612a7a565b60001c905092915050565b60006128fa82600001612ae7565b9050919050565b612909612af8565b60008060006101000a81548160ff0219169083151502179055507f5db9ee0a495bf2e6ff9c91a7834c1ba4fdd244a5e8aa4e537bd38aeae4b073aa336040516129529190613ed2565b60405180910390a1565b600061296883836129cc565b6129c15782600001829080600181540180825580915050600190039060005260206000200160009091909190915055826000018054905083600101600084815260200190815260200160002081905550600190506129c6565b600090505b92915050565b600080836001016000848152602001908152602001600020541415905092915050565b6000838311158290612a37576040517f08c379a0000000000000000000000000000000000000000000000000000000008152600401612a2e919061411d565b60405180910390fd5b5060008385039050809150509392505050565b6000612a72836000018373ffffffffffffffffffffffffffffffffffffffff1660001b612b47565b905092915050565b600081836000018054905011612ac5576040517f08c379a0000000000000000000000000000000000000000000000000000000008152600401612abc9061415f565b60405180910390fd5b826000018281548110612ad457fe5b9060005260206000200154905092915050565b600081600001805490509050919050565b60008054906101000a900460ff16612b45576040517f08c379a0000000000000000000000000000000000000000000000000000000008152600401612b3c906141ff565b60405180910390fd5b565b60008083600101600084815260200190815260200160002054905060008114612c235760006001820390506000600186600001805490500390506000866000018281548110612b9257fe5b9060005260206000200154905080876000018481548110612baf57fe5b9060005260206000200181905550600183018760010160008381526020019081526020016000208190555086600001805480612be757fe5b60019003818190600052602060002001600090559055866001016000878152602001908152602001600020600090556001945050505050612c29565b60009150505b92915050565b828054600181600116156101000203166002900490600052602060002090601f016020900481019282601f10612c7057803560ff1916838001178555612c9e565b82800160010185558215612c9e579182015b82811115612c9d578235825591602001919060010190612c82565b5b509050612cab9190612d80565b5090565b828054828255906000526020600020908101928215612d28579160200282015b82811115612d275782518260006101000a81548173ffffffffffffffffffffffffffffffffffffffff021916908373ffffffffffffffffffffffffffffffffffffffff16021790555091602001919060010190612ccf565b5b509050612d359190612d9d565b5090565b6040518060c001604052806000801916815260200160008019168152602001606081526020016060815260200160006004811115612d7357fe5b8152602001600081525090565b5b80821115612d99576000816000905550600101612d81565b5090565b5b80821115612dd457600081816101000a81549073ffffffffffffffffffffffffffffffffffffffff021916905550600101612d9e565b5090565b600081359050612de7816146c0565b92915050565b600081359050612dfc816146d7565b92915050565b60008083601f840112612e1457600080fd5b8235905067ffffffffffffffff811115612e2d57600080fd5b602083019150836020820283011115612e4557600080fd5b9250929050565b60008083601f840112612e5e57600080fd5b8235905067ffffffffffffffff811115612e7757600080fd5b602083019150836020820283011115612e8f57600080fd5b9250929050565b600081359050612ea5816146ee565b92915050565b600081359050612eba81614705565b92915050565b60008083601f840112612ed257600080fd5b8235905067ffffffffffffffff811115612eeb57600080fd5b602083019150836001820283011115612f0357600080fd5b9250929050565b600081359050612f198161471c565b92915050565b600081359050612f2e81614733565b92915050565b600081359050612f438161474a565b92915050565b600081359050612f5881614761565b92915050565b600060208284031215612f7057600080fd5b6000612f7e84828501612dd8565b91505092915050565b600060208284031215612f9957600080fd5b6000612fa784828501612ded565b91505092915050565b60008060408385031215612fc357600080fd5b6000612fd185828601612dd8565b9250506020612fe285828601612dd8565b9150509250929050565b6000806000806080858703121561300257600080fd5b600061301087828801612dd8565b945050602061302187828801612dd8565b935050604061303287828801612dd8565b925050606061304387828801612f0a565b91505092959194509250565b6000806000806080858703121561306557600080fd5b600061307387828801612dd8565b945050602061308487828801612dd8565b935050604061309587828801612f49565b92505060606130a687828801612f49565b91505092959194509250565b6000806000606084860312156130c757600080fd5b60006130d586828701612dd8565b93505060206130e686828701612e96565b92505060406130f786828701612dd8565b9150509250925092565b600080600080600060a0868803121561311957600080fd5b600061312788828901612dd8565b955050602061313888828901612e96565b945050604061314988828901612dd8565b935050606061315a88828901612eab565b925050608061316b88828901612eab565b9150509295509295909350565b6000806000806040858703121561318e57600080fd5b600085013567ffffffffffffffff8111156131a857600080fd5b6131b487828801612e02565b9450945050602085013567ffffffffffffffff8111156131d357600080fd5b6131df87828801612e4c565b925092505092959194509250565b6000602082840312156131ff57600080fd5b600061320d84828501612e96565b91505092915050565b6000806040838503121561322957600080fd5b600061323785828601612e96565b925050602061324885828601612dd8565b9150509250929050565b6000806040838503121561326557600080fd5b600061327385828601612e96565b925050602061328485828601612f0a565b9150509250929050565b6000602082840312156132a057600080fd5b60006132ae84828501612f0a565b91505092915050565b600080604083850312156132ca57600080fd5b60006132d885828601612f1f565b92505060206132e985828601612f49565b9150509250929050565b6000806040838503121561330657600080fd5b600061331485828601612f34565b925050602061332585828601612e96565b9150509250929050565b60008060006060848603121561334457600080fd5b600061335286828701612f34565b935050602061336386828701612e96565b925050604061337486828701612dd8565b9150509250925092565b60006020828403121561339057600080fd5b600061339e84828501612f49565b91505092915050565b600080600080606085870312156133bd57600080fd5b60006133cb87828801612f49565b94505060206133dc87828801612e96565b935050604085013567ffffffffffffffff8111156133f957600080fd5b61340587828801612ec0565b925092505092959194509250565b60008060006060848603121561342857600080fd5b600061343686828701612f49565b935050602061344786828701612f1f565b925050604061345886828701612e96565b9150509250925092565b6000806000806080858703121561347857600080fd5b600061348687828801612f49565b945050602061349787828801612f1f565b93505060406134a887828801612e96565b92505060606134b987828801612e96565b91505092959194509250565b6000806000806000608086880312156134dd57600080fd5b60006134eb88828901612f49565b95505060206134fc88828901612f1f565b945050604086013567ffffffffffffffff81111561351957600080fd5b61352588828901612ec0565b9350935050606061353888828901612e96565b9150509295509295909350565b6000613551838361356c565b60208301905092915050565b613566816145e7565b82525050565b6135758161450e565b82525050565b6135848161450e565b82525050565b61359b6135968261450e565b614671565b82525050565b60006135ac826144a2565b6135b681856144d0565b93506135c183614492565b8060005b838110156135f25781516135d98882613545565b97506135e4836144c3565b9250506001810190506135c5565b5085935050505092915050565b61360881614532565b82525050565b6136178161453e565b82525050565b6136268161453e565b82525050565b61363581614548565b82525050565b600061364783856144e1565b935061365483858461462f565b61365d83614695565b840190509392505050565b600061367483856144f2565b935061368183858461462f565b82840190509392505050565b6000613698826144ad565b6136a281856144e1565b93506136b281856020860161463e565b6136bb81614695565b840191505092915050565b6136cf816145f9565b82525050565b6136de816145f9565b82525050565b60006136ef826144b8565b6136f981856144fd565b935061370981856020860161463e565b61371281614695565b840191505092915050565b600061372a601c836144fd565b91507f70726f706f73616c20616c7265616479207472616e73666572726564000000006000830152602082019050919050565b600061376a6022836144fd565b91507f456e756d657261626c655365743a20696e646578206f7574206f6620626f756e60008301527f64730000000000000000000000000000000000000000000000000000000000006020830152604082019050919050565b60006137d0601e836144fd565b91507f73656e646572206973206e6f742072656c61796572206f722061646d696e00006000830152602082019050919050565b60006138106026836144fd565b91507f6c656e677468206f66206164647265737320616e6420616d6f756e747320646960008301527f736d6174636800000000000000000000000000000000000000000000000000006020830152604082019050919050565b6000613876602f836144fd565b91507f416363657373436f6e74726f6c3a2073656e646572206d75737420626520616e60008301527f2061646d696e20746f206772616e7400000000000000000000000000000000006020830152604082019050919050565b60006138dc6015836144fd565b91507f72656c6179657220616c726561647920766f74656400000000000000000000006000830152602082019050919050565b600061391c6014836144fd565b91507f5061757361626c653a206e6f74207061757365640000000000000000000000006000830152602082019050919050565b600061395c601f836144fd565b91507f6164647220646f65736e277420686176652072656c6179657220726f6c6521006000830152602082019050919050565b600061399c6016836144fd565b91507f496e636f72726563742066656520737570706c696564000000000000000000006000830152602082019050919050565b60006139dc601b836144fd565b91507f6461746120646f65736e2774206d6174636820646174616861736800000000006000830152602082019050919050565b6000613a1c601a836144fd565b91507f50726f706f73616c20616c72656164792063616e63656c6c65640000000000006000830152602082019050919050565b6000613a5c6020836144fd565b91507f7265736f757263654944206e6f74206d617070656420746f2068616e646c65726000830152602082019050919050565b6000613a9c6030836144fd565b91507f416363657373436f6e74726f6c3a2073656e646572206d75737420626520616e60008301527f2061646d696e20746f207265766f6b65000000000000000000000000000000006020830152604082019050919050565b6000613b026020836144fd565b91507f50726f706f73616c206e6f7420617420657870697279207468726573686f6c646000830152602082019050919050565b6000613b426010836144fd565b91507f5061757361626c653a20706175736564000000000000000000000000000000006000830152602082019050919050565b6000613b82601e836144fd565b91507f6164647220616c7265616479206861732072656c6179657220726f6c652100006000830152602082019050919050565b6000613bc2602a836144fd565b91507f70726f706f73616c20616c7265616479207061737365642f657865637574656460008301527f2f63616e63656c6c6564000000000000000000000000000000000000000000006020830152604082019050919050565b6000613c286020836144fd565b91507f73656e64657220646f65736e277420686176652072656c6179657220726f6c656000830152602082019050919050565b6000613c68601e836144fd565b91507f73656e64657220646f65736e277420686176652061646d696e20726f6c6500006000830152602082019050919050565b6000613ca8601f836144fd565b91507f43757272656e742066656520697320657175616c20746f206e657720666565006000830152602082019050919050565b6000613ce86011836144fd565b91507f6461746168617368206d69736d617463680000000000000000000000000000006000830152602082019050919050565b6000613d286019836144fd565b91507f6e6f2068616e646c657220666f72207265736f757263654944000000000000006000830152602082019050919050565b6000613d68602f836144fd565b91507f416363657373436f6e74726f6c3a2063616e206f6e6c792072656e6f756e636560008301527f20726f6c657320666f722073656c6600000000000000000000000000000000006020830152604082019050919050565b600060c083016000830151613dd9600086018261360e565b506020830151613dec602086018261360e565b5060408301518482036040860152613e0482826135a1565b91505060608301518482036060860152613e1e82826135a1565b9150506080830151613e3360808601826136c6565b5060a0830151613e4660a0860182613e51565b508091505092915050565b613e5a816145a7565b82525050565b613e69816145a7565b82525050565b613e78816145b1565b82525050565b613e87816145da565b82525050565b6000613e99828661358a565b601482019150613eaa828486613668565b9150819050949350505050565b6000602082019050613ecc600083018461357b565b92915050565b6000602082019050613ee7600083018461355d565b92915050565b6000606082019050613f02600083018661357b565b613f0f602083018561357b565b613f1c6040830184613e60565b949350505050565b6000606082019050613f39600083018661357b565b613f466020830185613e7e565b613f536040830184613e7e565b949350505050565b6000602082019050613f7060008301846135ff565b92915050565b6000602082019050613f8b600083018461361d565b92915050565b6000604082019050613fa6600083018561361d565b613fb3602083018461357b565b9392505050565b6000608082019050613fcf600083018761361d565b613fdc602083018661357b565b613fe9604083018561362c565b613ff6606083018461362c565b95945050505050565b6000604082019050614014600083018561361d565b614021602083018461361d565b9392505050565b600060808201905061403d600083018761361d565b61404a602083018661361d565b61405760408301856136d5565b6140646060830184613e60565b95945050505050565b6000604082019050614082600083018661361d565b818103602083015261409581848661363b565b9050949350505050565b600060a0820190506140b4600083018961361d565b6140c16020830188613e7e565b6140ce6040830187613e6f565b6140db606083018661355d565b81810360808301526140ee81848661363b565b9050979650505050505050565b60006020820190508181036000830152614115818461368d565b905092915050565b6000602082019050818103600083015261413781846136e4565b905092915050565b600060208201905081810360008301526141588161371d565b9050919050565b600060208201905081810360008301526141788161375d565b9050919050565b60006020820190508181036000830152614198816137c3565b9050919050565b600060208201905081810360008301526141b881613803565b9050919050565b600060208201905081810360008301526141d881613869565b9050919050565b600060208201905081810360008301526141f8816138cf565b9050919050565b600060208201905081810360008301526142188161390f565b9050919050565b600060208201905081810360008301526142388161394f565b9050919050565b600060208201905081810360008301526142588161398f565b9050919050565b60006020820190508181036000830152614278816139cf565b9050919050565b6000602082019050818103600083015261429881613a0f565b9050919050565b600060208201905081810360008301526142b881613a4f565b9050919050565b600060208201905081810360008301526142d881613a8f565b9050919050565b600060208201905081810360008301526142f881613af5565b9050919050565b6000602082019050818103600083015261431881613b35565b9050919050565b6000602082019050818103600083015261433881613b75565b9050919050565b6000602082019050818103600083015261435881613bb5565b9050919050565b6000602082019050818103600083015261437881613c1b565b9050919050565b6000602082019050818103600083015261439881613c5b565b9050919050565b600060208201905081810360008301526143b881613c9b565b9050919050565b600060208201905081810360008301526143d881613cdb565b9050919050565b600060208201905081810360008301526143f881613d1b565b9050919050565b6000602082019050818103600083015261441881613d5b565b9050919050565b600060208201905081810360008301526144398184613dc1565b905092915050565b60006020820190506144566000830184613e60565b92915050565b60006020820190506144716000830184613e6f565b92915050565b600060208201905061448c6000830184613e7e565b92915050565b6000819050602082019050919050565b600081519050919050565b600081519050919050565b600081519050919050565b6000602082019050919050565b600082825260208201905092915050565b600082825260208201905092915050565b600081905092915050565b600082825260208201905092915050565b600061451982614587565b9050919050565b600061452b82614587565b9050919050565b60008115159050919050565b6000819050919050565b60007fffffffff0000000000000000000000000000000000000000000000000000000082169050919050565b6000819050614582826146b3565b919050565b600073ffffffffffffffffffffffffffffffffffffffff82169050919050565b6000819050919050565b600067ffffffffffffffff82169050919050565b600068ffffffffffffffffff82169050919050565b600060ff82169050919050565b60006145f28261460b565b9050919050565b600061460482614574565b9050919050565b60006146168261461d565b9050919050565b600061462882614587565b9050919050565b82818337600083830152505050565b60005b8381101561465c578082015181840152602081019050614641565b8381111561466b576000848401525b50505050565b600061467c82614683565b9050919050565b600061468e826146a6565b9050919050565b6000601f19601f8301169050919050565b60008160601b9050919050565b600581106146bd57fe5b50565b6146c98161450e565b81146146d457600080fd5b50565b6146e081614520565b81146146eb57600080fd5b50565b6146f78161453e565b811461470257600080fd5b50565b61470e81614548565b811461471957600080fd5b50565b614725816145a7565b811461473057600080fd5b50565b61473c816145b1565b811461474757600080fd5b50565b614753816145c5565b811461475e57600080fd5b50565b61476a816145da565b811461477557600080fd5b5056fea2646970667358221220665739bb49f5cde586ea2adbbcedbd61c4bf11b3a5c24edeb2d903ef23fbcea664736f6c63430007000033",
  "immutableReferences": {},
  "source": "pragma solidity 0.7.0;\npragma experimental ABIEncoderV2;\n\nimport \"@openzeppelin/contracts/access/AccessControl.sol\";\nimport \"./utils/Pausable.sol\";\nimport \"./utils/SafeMath.sol\";\nimport \"./interfaces/IDepositExecute.sol\";\nimport \"./interfaces/IBridge.sol\";\nimport \"./interfaces/IERCHandler.sol\";\nimport \"./interfaces/IGenericHandler.sol\";\n\n/**\n    @title Facilitates deposits, creation and votiing of deposit proposals, and deposit executions.\n    @author ChainSafe Systems.\n */\ncontract Bridge is Pausable, AccessControl, SafeMath {\n\n    uint8   public _chainID;\n    uint256 public _relayerThreshold;\n    uint256 public _totalRelayers;\n    uint256 public _totalProposals;\n    uint256 public _fee;\n    uint256 public _expiry;\n\n    enum Vote {No, Yes}\n\n    enum ProposalStatus {Inactive, Active, Passed, Executed, Cancelled}\n\n    struct Proposal {\n        bytes32 _resourceID;\n        bytes32 _dataHash;\n        address[] _yesVotes;\n        address[] _noVotes;\n        ProposalStatus _status;\n        uint256 _proposedBlock;\n    }\n\n    // destinationChainID => number of deposits\n    mapping(uint8 => uint64) public _depositCounts;\n    // resourceID => handler address\n    mapping(bytes32 => address) public _resourceIDToHandlerAddress;\n    // depositNonce => destinationChainID => bytes\n    mapping(uint64 => mapping(uint8 => bytes)) public _depositRecords;\n    // destinationChainID + depositNonce => dataHash => Proposal\n    mapping(uint72 => mapping(bytes32 => Proposal)) public _proposals;\n    // destinationChainID + depositNonce => dataHash => relayerAddress => bool\n    mapping(uint72 => mapping(bytes32 => mapping(address => bool))) public _hasVotedOnProposal;\n\n    event RelayerThresholdChanged(uint indexed newThreshold);\n    event RelayerAdded(address indexed relayer);\n    event RelayerRemoved(address indexed relayer);\n    event Deposit(\n        uint8   indexed destinationChainID,\n        bytes32 indexed resourceID,\n        uint64  indexed depositNonce\n    );\n    event ProposalEvent(\n        uint8           indexed originChainID,\n        uint64          indexed depositNonce,\n        ProposalStatus  indexed status,\n        bytes32 resourceID,\n        bytes32 dataHash\n    );\n\n    event ProposalVote(\n        uint8   indexed originChainID,\n        uint64  indexed depositNonce,\n        ProposalStatus indexed status,\n        bytes32 resourceID\n    );\n\n    bytes32 public constant RELAYER_ROLE = keccak256(\"RELAYER_ROLE\");\n\n    modifier onlyAdmin() {\n        _onlyAdmin();\n        _;\n    }\n\n    modifier onlyAdminOrRelayer() {\n        _onlyAdminOrRelayer();\n        _;\n    }\n\n    modifier onlyRelayers() {\n        _onlyRelayers();\n        _;\n    }\n\n    function _onlyAdminOrRelayer() private {\n        require(hasRole(DEFAULT_ADMIN_ROLE, msg.sender) || hasRole(RELAYER_ROLE, msg.sender),\n            \"sender is not relayer or admin\");\n    }\n\n    function _onlyAdmin() private {\n        require(hasRole(DEFAULT_ADMIN_ROLE, msg.sender), \"sender doesn't have admin role\");\n    }\n\n    function _onlyRelayers() private {\n        require(hasRole(RELAYER_ROLE, msg.sender), \"sender doesn't have relayer role\");\n    }\n\n    /**\n        @notice Initializes Bridge, creates and grants {msg.sender} the admin role,\n        creates and grants {initialRelayers} the relayer role.\n        @param chainID ID of chain the Bridge contract exists on.\n        @param initialRelayers Addresses that should be initially granted the relayer role.\n        @param initialRelayerThreshold Number of votes needed for a deposit proposal to be considered passed.\n     */\n    constructor (uint8 chainID, address[] memory initialRelayers, uint initialRelayerThreshold, uint256 fee, uint256 expiry) public {\n        _chainID = chainID;\n        _relayerThreshold = initialRelayerThreshold;\n        _fee = fee;\n        _expiry = expiry;\n\n        _setupRole(DEFAULT_ADMIN_ROLE, msg.sender);\n        _setRoleAdmin(RELAYER_ROLE, DEFAULT_ADMIN_ROLE);\n\n        uint initialRelayerCount = initialRelayers.length;\n        for (uint i; i < initialRelayerCount; i++) {\n            grantRole(RELAYER_ROLE, initialRelayers[i]);\n            _totalRelayers++;\n        }\n\n    }\n\n    /**\n        @notice Returns true if {relayer} has the relayer role.\n        @param relayer Address to check.\n     */\n    function isRelayer(address relayer) external view returns (bool) {\n        return hasRole(RELAYER_ROLE, relayer);\n    }\n\n    /**\n        @notice Removes admin role from {msg.sender} and grants it to {newAdmin}.\n        @notice Only callable by an address that currently has the admin role.\n        @param newAdmin Address that admin role will be granted to.\n     */\n    function renounceAdmin(address newAdmin) external onlyAdmin {\n        grantRole(DEFAULT_ADMIN_ROLE, newAdmin);\n        renounceRole(DEFAULT_ADMIN_ROLE, msg.sender);\n    }\n\n    /**\n        @notice Pauses deposits, proposal creation and voting, and deposit executions.\n        @notice Only callable by an address that currently has the admin role.\n     */\n    function adminPauseTransfers() external onlyAdmin {\n        _pause();\n    }\n\n    /**\n        @notice Unpauses deposits, proposal creation and voting, and deposit executions.\n        @notice Only callable by an address that currently has the admin role.\n     */\n    function adminUnpauseTransfers() external onlyAdmin {\n        _unpause();\n    }\n\n    /**\n        @notice Modifies the number of votes required for a proposal to be considered passed.\n        @notice Only callable by an address that currently has the admin role.\n        @param newThreshold Value {_relayerThreshold} will be changed to.\n        @notice Emits {RelayerThresholdChanged} event.\n     */\n    function adminChangeRelayerThreshold(uint newThreshold) external onlyAdmin {\n        _relayerThreshold = newThreshold;\n        emit RelayerThresholdChanged(newThreshold);\n    }\n\n    /**\n        @notice Grants {relayerAddress} the relayer role and increases {_totalRelayer} count.\n        @notice Only callable by an address that currently has the admin role.\n        @param relayerAddress Address of relayer to be added.\n        @notice Emits {RelayerAdded} event.\n     */\n    function adminAddRelayer(address relayerAddress) external onlyAdmin {\n        require(!hasRole(RELAYER_ROLE, relayerAddress), \"addr already has relayer role!\");\n        grantRole(RELAYER_ROLE, relayerAddress);\n        emit RelayerAdded(relayerAddress);\n        _totalRelayers++;\n    }\n\n    /**\n        @notice Removes relayer role for {relayerAddress} and decreases {_totalRelayer} count.\n        @notice Only callable by an address that currently has the admin role.\n        @param relayerAddress Address of relayer to be removed.\n        @notice Emits {RelayerRemoved} event.\n     */\n    function adminRemoveRelayer(address relayerAddress) external onlyAdmin {\n        require(hasRole(RELAYER_ROLE, relayerAddress), \"addr doesn't have relayer role!\");\n        revokeRole(RELAYER_ROLE, relayerAddress);\n        emit RelayerRemoved(relayerAddress);\n        _totalRelayers--;\n    }\n\n    /**\n        @notice Sets a new resource for handler contracts that use the IERCHandler interface,\n        and maps the {handlerAddress} to {resourceID} in {_resourceIDToHandlerAddress}.\n        @notice Only callable by an address that currently has the admin role.\n        @param handlerAddress Address of handler resource will be set for.\n        @param resourceID ResourceID to be used when making deposits.\n        @param tokenAddress Address of contract to be called when a deposit is made and a deposited is executed.\n     */\n    function adminSetResource(address handlerAddress, bytes32 resourceID, address tokenAddress) external onlyAdmin {\n        _resourceIDToHandlerAddress[resourceID] = handlerAddress;\n        IERCHandler handler = IERCHandler(handlerAddress);\n        handler.setResource(resourceID, tokenAddress);\n    }\n\n    /**\n        @notice Sets a new resource for handler contracts that use the IGenericHandler interface,\n        and maps the {handlerAddress} to {resourceID} in {_resourceIDToHandlerAddress}.\n        @notice Only callable by an address that currently has the admin role.\n        @param handlerAddress Address of handler resource will be set for.\n        @param resourceID ResourceID to be used when making deposits.\n        @param contractAddress Address of contract to be called when a deposit is made and a deposited is executed.\n     */\n    function adminSetGenericResource(\n        address handlerAddress,\n        bytes32 resourceID,\n        address contractAddress,\n        bytes4 depositFunctionSig,\n        bytes4 executeFunctionSig\n    ) external onlyAdmin {\n        _resourceIDToHandlerAddress[resourceID] = handlerAddress;\n        IGenericHandler handler = IGenericHandler(handlerAddress);\n        handler.setResource(resourceID, contractAddress, depositFunctionSig, executeFunctionSig);\n    }\n\n    /**\n        @notice Sets a resource as burnable for handler contracts that use the IERCHandler interface.\n        @notice Only callable by an address that currently has the admin role.\n        @param handlerAddress Address of handler resource will be set for.\n        @param tokenAddress Address of contract to be called when a deposit is made and a deposited is executed.\n     */\n    function adminSetBurnable(address handlerAddress, address tokenAddress) external onlyAdmin {\n        IERCHandler handler = IERCHandler(handlerAddress);\n        handler.setBurnable(tokenAddress);\n    }\n\n    /**\n        @notice Sets a resource as burnable for handler contracts that use the IERCHandler interface.\n        @notice Only callable by an address that currently has the admin role.\n        @param handlerAddress Address of handler resource will be set for.\n        @param tokenAddress Address of contract to be called when a deposit is made and a deposited is executed.\n     */\n    function adminSetDecimals(address handlerAddress, address tokenAddress, uint8 srcDecimals, uint8 destDecimals) external onlyAdmin {\n        IERCHandler handler = IERCHandler(handlerAddress);\n        handler.setDecimals(tokenAddress, srcDecimals, destDecimals);\n    }\n\n    /**\n        @notice Returns a proposal.\n        @param originChainID Chain ID deposit originated from.\n        @param depositNonce ID of proposal generated by proposal's origin Bridge contract.\n        @param dataHash Hash of data to be provided when deposit proposal is executed.\n        @return Proposal which consists of:\n        - _dataHash Hash of data to be provided when deposit proposal is executed.\n        - _yesVotes Number of votes in favor of proposal.\n        - _noVotes Number of votes against proposal.\n        - _status Current status of proposal.\n     */\n    function getProposal(uint8 originChainID, uint64 depositNonce, bytes32 dataHash) external view returns (Proposal memory) {\n        uint72 nonceAndID = (uint72(depositNonce) << 8) | uint72(originChainID);\n        return _proposals[nonceAndID][dataHash];\n    }\n\n    /**\n        @notice Changes deposit fee.\n        @notice Only callable by admin.\n        @param newFee Value {_fee} will be updated to.\n     */\n    function adminChangeFee(uint newFee) external onlyAdmin {\n        require(_fee != newFee, \"Current fee is equal to new fee\");\n        _fee = newFee;\n    }\n\n    /**\n        @notice Used to manually withdraw funds from ERC safes.\n        @param handlerAddress Address of handler to withdraw from.\n        @param tokenAddress Address of token to withdraw.\n        @param recipient Address to withdraw tokens to.\n        @param amountOrTokenID Either the amount of ERC20 tokens or the ERC721 token ID to withdraw.\n     */\n    function adminWithdraw(\n        address handlerAddress,\n        address tokenAddress,\n        address recipient,\n        uint256 amountOrTokenID\n    ) external onlyAdmin {\n        IERCHandler handler = IERCHandler(handlerAddress);\n        handler.withdraw(tokenAddress, recipient, amountOrTokenID);\n    }\n\n    /**\n        @notice Initiates a transfer using a specified handler contract.\n        @notice Only callable when Bridge is not paused.\n        @param destinationChainID ID of chain deposit will be bridged to.\n        @param resourceID ResourceID used to find address of handler to be used for deposit.\n        @param data Additional data to be passed to specified handler.\n        @notice Emits {Deposit} event.\n     */\n    function deposit(uint8 destinationChainID, bytes32 resourceID, bytes calldata data) external payable whenNotPaused {\n        require(msg.value == _fee, \"Incorrect fee supplied\");\n\n        address handler = _resourceIDToHandlerAddress[resourceID];\n        require(handler != address(0), \"resourceID not mapped to handler\");\n\n        uint64 depositNonce = ++_depositCounts[destinationChainID];\n        _depositRecords[depositNonce][destinationChainID] = data;\n\n        IDepositExecute depositHandler = IDepositExecute(handler);\n        depositHandler.deposit(resourceID, destinationChainID, depositNonce, msg.sender, data);\n\n        emit Deposit(destinationChainID, resourceID, depositNonce);\n    }\n\n    /**\n        @notice When called, {msg.sender} will be marked as voting in favor of proposal.\n        @notice Only callable by relayers when Bridge is not paused.\n        @param chainID ID of chain deposit originated from.\n        @param depositNonce ID of deposited generated by origin Bridge contract.\n        @param dataHash Hash of data provided when deposit was made.\n        @notice Proposal must not have already been passed or executed.\n        @notice {msg.sender} must not have already voted on proposal.\n        @notice Emits {ProposalEvent} event with status indicating the proposal status.\n        @notice Emits {ProposalVote} event.\n     */\n    function voteProposal(uint8 chainID, uint64 depositNonce, bytes32 resourceID, bytes32 dataHash) external onlyRelayers whenNotPaused {\n\n        uint72 nonceAndID = (uint72(depositNonce) << 8) | uint72(chainID);\n        Proposal storage proposal = _proposals[nonceAndID][dataHash];\n\n        require(_resourceIDToHandlerAddress[resourceID] != address(0), \"no handler for resourceID\");\n        require(uint(proposal._status) <= 1, \"proposal already passed/executed/cancelled\");\n        require(!_hasVotedOnProposal[nonceAndID][dataHash][msg.sender], \"relayer already voted\");\n\n        if (uint(proposal._status) == 0) {\n            ++_totalProposals;\n            _proposals[nonceAndID][dataHash] = Proposal({\n                _resourceID : resourceID,\n                _dataHash : dataHash,\n                _yesVotes : new address[](1),\n                _noVotes : new address[](0),\n                _status : ProposalStatus.Active,\n                _proposedBlock : block.number\n                });\n\n            proposal._yesVotes[0] = msg.sender;\n            emit ProposalEvent(chainID, depositNonce, ProposalStatus.Active, resourceID, dataHash);\n        } else {\n            if (sub(block.number, proposal._proposedBlock) > _expiry) {\n                // if the number of blocks that has passed since this proposal was\n                // submitted exceeds the expiry threshold set, cancel the proposal\n                proposal._status = ProposalStatus.Cancelled;\n                emit ProposalEvent(chainID, depositNonce, ProposalStatus.Cancelled, resourceID, dataHash);\n            } else {\n                require(dataHash == proposal._dataHash, \"datahash mismatch\");\n                proposal._yesVotes.push(msg.sender);\n\n\n            }\n\n        }\n        if (proposal._status != ProposalStatus.Cancelled) {\n            _hasVotedOnProposal[nonceAndID][dataHash][msg.sender] = true;\n            emit ProposalVote(chainID, depositNonce, proposal._status, resourceID);\n\n            // If _depositThreshold is set to 1, then auto finalize\n            // or if _relayerThreshold has been exceeded\n            if (_relayerThreshold <= 1 || proposal._yesVotes.length >= _relayerThreshold) {\n                proposal._status = ProposalStatus.Passed;\n\n                emit ProposalEvent(chainID, depositNonce, ProposalStatus.Passed, resourceID, dataHash);\n            }\n        }\n\n    }\n\n    /**\n        @notice Executes a deposit proposal that is considered passed using a specified handler contract.\n        @notice Only callable by relayers when Bridge is not paused.\n        @param chainID ID of chain deposit originated from.\n        @param depositNonce ID of deposited generated by origin Bridge contract.\n        @param dataHash Hash of data originally provided when deposit was made.\n        @notice Proposal must be past expiry threshold.\n        @notice Emits {ProposalEvent} event with status {Cancelled}.\n     */\n    function cancelProposal(uint8 chainID, uint64 depositNonce, bytes32 dataHash) public onlyAdminOrRelayer {\n        uint72 nonceAndID = (uint72(depositNonce) << 8) | uint72(chainID);\n        Proposal storage proposal = _proposals[nonceAndID][dataHash];\n\n        require(proposal._status != ProposalStatus.Cancelled, \"Proposal already cancelled\");\n        require(sub(block.number, proposal._proposedBlock) > _expiry, \"Proposal not at expiry threshold\");\n\n        proposal._status = ProposalStatus.Cancelled;\n        emit ProposalEvent(chainID, depositNonce, ProposalStatus.Cancelled, proposal._resourceID, proposal._dataHash);\n\n    }\n\n    /**\n        @notice Executes a deposit proposal that is considered passed using a specified handler contract.\n        @notice Only callable by relayers when Bridge is not paused.\n        @param chainID ID of chain deposit originated from.\n        @param resourceID ResourceID to be used when making deposits.\n        @param depositNonce ID of deposited generated by origin Bridge contract.\n        @param data Data originally provided when deposit was made.\n        @notice Proposal must have Passed status.\n        @notice Hash of {data} must equal proposal's {dataHash}.\n        @notice Emits {ProposalEvent} event with status {Executed}.\n     */\n    function executeProposal(uint8 chainID, uint64 depositNonce, bytes calldata data, bytes32 resourceID) external onlyRelayers whenNotPaused {\n        address handler = _resourceIDToHandlerAddress[resourceID];\n        uint72 nonceAndID = (uint72(depositNonce) << 8) | uint72(chainID);\n        bytes32 dataHash = keccak256(abi.encodePacked(handler, data));\n        Proposal storage proposal = _proposals[nonceAndID][dataHash];\n\n        require(proposal._status == ProposalStatus.Passed, \"proposal already transferred\");\n        require(dataHash == proposal._dataHash, \"data doesn't match datahash\");\n\n        proposal._status = ProposalStatus.Executed;\n\n        IDepositExecute depositHandler = IDepositExecute(_resourceIDToHandlerAddress[proposal._resourceID]);\n        depositHandler.executeProposal(proposal._resourceID, data);\n\n        emit ProposalEvent(chainID, depositNonce, proposal._status, proposal._resourceID, proposal._dataHash);\n    }\n\n    /**\n        @notice Transfers eth in the contract to the specified addresses. The parameters addrs and amounts are mapped 1-1.\n        This means that the address at index 0 for addrs will receive the amount (in WEI) from amounts at index 0.\n        @param addrs Array of addresses to transfer {amounts} to.\n        @param amounts Array of amonuts to transfer to {addrs}.\n     */\n    function transferFunds(address payable[] calldata addrs, uint[] calldata amounts) external onlyAdmin {\n        require(addrs.length == amounts.length, \"length of address and amounts dismatch\");\n        uint addrCount = addrs.length;\n        for (uint i = 0; i < addrCount; i++) {\n            addrs[i].transfer(amounts[i]);\n        }\n    }\n\n}\n",
  "sourcePath": "/Users/wwf/workspace/PhalaProjects/chainbridge/chainbridge-solidity/contracts/Bridge.sol",
  "compiler": {
    "name": "solc",
    "version": "0.7.0+commit.9e61f92b.Emscripten.clang"
  },
  "schemaVersion": "3.4.3",
  "updatedAt": "2022-02-21T05:40:00.519Z",
  "devdoc": {
    "author": "ChainSafe Systems.",
    "kind": "dev",
    "methods": {
      "adminAddRelayer(address)": {
        "params": {
          "relayerAddress": "Address of relayer to be added."
        }
      },
      "adminChangeFee(uint256)": {
        "params": {
          "newFee": "Value {_fee} will be updated to."
        }
      },
      "adminChangeRelayerThreshold(uint256)": {
        "params": {
          "newThreshold": "Value {_relayerThreshold} will be changed to."
        }
      },
      "adminRemoveRelayer(address)": {
        "params": {
          "relayerAddress": "Address of relayer to be removed."
        }
      },
      "adminSetBurnable(address,address)": {
        "params": {
          "handlerAddress": "Address of handler resource will be set for.",
          "tokenAddress": "Address of contract to be called when a deposit is made and a deposited is executed."
        }
      },
      "adminSetDecimals(address,address,uint8,uint8)": {
        "params": {
          "handlerAddress": "Address of handler resource will be set for.",
          "tokenAddress": "Address of contract to be called when a deposit is made and a deposited is executed."
        }
      },
      "adminSetGenericResource(address,bytes32,address,bytes4,bytes4)": {
        "params": {
          "contractAddress": "Address of contract to be called when a deposit is made and a deposited is executed.",
          "handlerAddress": "Address of handler resource will be set for.",
          "resourceID": "ResourceID to be used when making deposits."
        }
      },
      "adminSetResource(address,bytes32,address)": {
        "params": {
          "handlerAddress": "Address of handler resource will be set for.",
          "resourceID": "ResourceID to be used when making deposits.",
          "tokenAddress": "Address of contract to be called when a deposit is made and a deposited is executed."
        }
      },
      "adminWithdraw(address,address,address,uint256)": {
        "params": {
          "amountOrTokenID": "Either the amount of ERC20 tokens or the ERC721 token ID to withdraw.",
          "handlerAddress": "Address of handler to withdraw from.",
          "recipient": "Address to withdraw tokens to.",
          "tokenAddress": "Address of token to withdraw."
        }
      },
      "cancelProposal(uint8,uint64,bytes32)": {
        "params": {
          "chainID": "ID of chain deposit originated from.",
          "dataHash": "Hash of data originally provided when deposit was made.",
          "depositNonce": "ID of deposited generated by origin Bridge contract."
        }
      },
      "constructor": {
        "params": {
          "chainID": "ID of chain the Bridge contract exists on.",
          "initialRelayerThreshold": "Number of votes needed for a deposit proposal to be considered passed.",
          "initialRelayers": "Addresses that should be initially granted the relayer role."
        }
      },
      "deposit(uint8,bytes32,bytes)": {
        "params": {
          "data": "Additional data to be passed to specified handler.",
          "destinationChainID": "ID of chain deposit will be bridged to.",
          "resourceID": "ResourceID used to find address of handler to be used for deposit."
        }
      },
      "executeProposal(uint8,uint64,bytes,bytes32)": {
        "params": {
          "chainID": "ID of chain deposit originated from.",
          "data": "Data originally provided when deposit was made.",
          "depositNonce": "ID of deposited generated by origin Bridge contract.",
          "resourceID": "ResourceID to be used when making deposits."
        }
      },
      "getProposal(uint8,uint64,bytes32)": {
        "params": {
          "dataHash": "Hash of data to be provided when deposit proposal is executed.",
          "depositNonce": "ID of proposal generated by proposal's origin Bridge contract.",
          "originChainID": "Chain ID deposit originated from."
        },
        "returns": {
          "_0": "Proposal which consists of: - _dataHash Hash of data to be provided when deposit proposal is executed. - _yesVotes Number of votes in favor of proposal. - _noVotes Number of votes against proposal. - _status Current status of proposal."
        }
      },
      "getRoleAdmin(bytes32)": {
        "details": "Returns the admin role that controls `role`. See {grantRole} and {revokeRole}. To change a role's admin, use {_setRoleAdmin}."
      },
      "getRoleMember(bytes32,uint256)": {
        "details": "Returns one of the accounts that have `role`. `index` must be a value between 0 and {getRoleMemberCount}, non-inclusive. Role bearers are not sorted in any particular way, and their ordering may change at any point. WARNING: When using {getRoleMember} and {getRoleMemberCount}, make sure you perform all queries on the same block. See the following https://forum.openzeppelin.com/t/iterating-over-elements-on-enumerableset-in-openzeppelin-contracts/2296[forum post] for more information."
      },
      "getRoleMemberCount(bytes32)": {
        "details": "Returns the number of accounts that have `role`. Can be used together with {getRoleMember} to enumerate all bearers of a role."
      },
      "grantRole(bytes32,address)": {
        "details": "Grants `role` to `account`. If `account` had not been already granted `role`, emits a {RoleGranted} event. Requirements: - the caller must have ``role``'s admin role."
      },
      "hasRole(bytes32,address)": {
        "details": "Returns `true` if `account` has been granted `role`."
      },
      "isRelayer(address)": {
        "params": {
          "relayer": "Address to check."
        }
      },
      "paused()": {
        "details": "Returns true if the contract is paused, and false otherwise."
      },
      "renounceAdmin(address)": {
        "params": {
          "newAdmin": "Address that admin role will be granted to."
        }
      },
      "renounceRole(bytes32,address)": {
        "details": "Revokes `role` from the calling account. Roles are often managed via {grantRole} and {revokeRole}: this function's purpose is to provide a mechanism for accounts to lose their privileges if they are compromised (such as when a trusted device is misplaced). If the calling account had been granted `role`, emits a {RoleRevoked} event. Requirements: - the caller must be `account`."
      },
      "revokeRole(bytes32,address)": {
        "details": "Revokes `role` from `account`. If `account` had been granted `role`, emits a {RoleRevoked} event. Requirements: - the caller must have ``role``'s admin role."
      },
      "transferFunds(address[],uint256[])": {
        "params": {
          "addrs": "Array of addresses to transfer {amounts} to.",
          "amounts": "Array of amonuts to transfer to {addrs}."
        }
      },
      "voteProposal(uint8,uint64,bytes32,bytes32)": {
        "params": {
          "chainID": "ID of chain deposit originated from.",
          "dataHash": "Hash of data provided when deposit was made.",
          "depositNonce": "ID of deposited generated by origin Bridge contract."
        }
      }
    },
    "title": "Facilitates deposits, creation and votiing of deposit proposals, and deposit executions.",
    "version": 1
  },
  "userdoc": {
    "kind": "user",
    "methods": {
      "adminAddRelayer(address)": {
        "notice": "Grants {relayerAddress} the relayer role and increases {_totalRelayer} count.Only callable by an address that currently has the admin role.Emits {RelayerAdded} event."
      },
      "adminChangeFee(uint256)": {
        "notice": "Changes deposit fee.Only callable by admin."
      },
      "adminChangeRelayerThreshold(uint256)": {
        "notice": "Modifies the number of votes required for a proposal to be considered passed.Only callable by an address that currently has the admin role.Emits {RelayerThresholdChanged} event."
      },
      "adminPauseTransfers()": {
        "notice": "Pauses deposits, proposal creation and voting, and deposit executions.Only callable by an address that currently has the admin role."
      },
      "adminRemoveRelayer(address)": {
        "notice": "Removes relayer role for {relayerAddress} and decreases {_totalRelayer} count.Only callable by an address that currently has the admin role.Emits {RelayerRemoved} event."
      },
      "adminSetBurnable(address,address)": {
        "notice": "Sets a resource as burnable for handler contracts that use the IERCHandler interface.Only callable by an address that currently has the admin role."
      },
      "adminSetDecimals(address,address,uint8,uint8)": {
        "notice": "Sets a resource as burnable for handler contracts that use the IERCHandler interface.Only callable by an address that currently has the admin role."
      },
      "adminSetGenericResource(address,bytes32,address,bytes4,bytes4)": {
        "notice": "Sets a new resource for handler contracts that use the IGenericHandler interface, and maps the {handlerAddress} to {resourceID} in {_resourceIDToHandlerAddress}.Only callable by an address that currently has the admin role."
      },
      "adminSetResource(address,bytes32,address)": {
        "notice": "Sets a new resource for handler contracts that use the IERCHandler interface, and maps the {handlerAddress} to {resourceID} in {_resourceIDToHandlerAddress}.Only callable by an address that currently has the admin role."
      },
      "adminUnpauseTransfers()": {
        "notice": "Unpauses deposits, proposal creation and voting, and deposit executions.Only callable by an address that currently has the admin role."
      },
      "adminWithdraw(address,address,address,uint256)": {
        "notice": "Used to manually withdraw funds from ERC safes."
      },
      "cancelProposal(uint8,uint64,bytes32)": {
        "notice": "Executes a deposit proposal that is considered passed using a specified handler contract.Only callable by relayers when Bridge is not paused.Proposal must be past expiry threshold.Emits {ProposalEvent} event with status {Cancelled}."
      },
      "constructor": {
        "notice": "Initializes Bridge, creates and grants {msg.sender} the admin role, creates and grants {initialRelayers} the relayer role."
      },
      "deposit(uint8,bytes32,bytes)": {
        "notice": "Initiates a transfer using a specified handler contract.Only callable when Bridge is not paused.Emits {Deposit} event."
      },
      "executeProposal(uint8,uint64,bytes,bytes32)": {
        "notice": "Executes a deposit proposal that is considered passed using a specified handler contract.Only callable by relayers when Bridge is not paused.Proposal must have Passed status.Hash of {data} must equal proposal's {dataHash}.Emits {ProposalEvent} event with status {Executed}."
      },
      "getProposal(uint8,uint64,bytes32)": {
        "notice": "Returns a proposal."
      },
      "isRelayer(address)": {
        "notice": "Returns true if {relayer} has the relayer role."
      },
      "renounceAdmin(address)": {
        "notice": "Removes admin role from {msg.sender} and grants it to {newAdmin}.Only callable by an address that currently has the admin role."
      },
      "transferFunds(address[],uint256[])": {
        "notice": "Transfers eth in the contract to the specified addresses. The parameters addrs and amounts are mapped 1-1. This means that the address at index 0 for addrs will receive the amount (in WEI) from amounts at index 0."
      },
      "voteProposal(uint8,uint64,bytes32,bytes32)": {
        "notice": "When called, {msg.sender} will be marked as voting in favor of proposal.Only callable by relayers when Bridge is not paused.Proposal must not have already been passed or executed.{msg.sender} must not have already voted on proposal.Emits {ProposalEvent} event with status indicating the proposal status.Emits {ProposalVote} event."
      }
    },
    "version": 1
  }
}