{
  "contractName": "ERC20Handler",
  "abi": [
    {
      "inputs": [
        {
          "internalType": "address",
          "name": "bridgeAddress",
          "type": "address"
        },
        {
          "internalType": "bytes32[]",
          "name": "initialResourceIDs",
          "type": "bytes32[]"
        },
        {
          "internalType": "address[]",
          "name": "initialContractAddresses",
          "type": "address[]"
        },
        {
          "internalType": "address[]",
          "name": "burnableContractAddresses",
          "type": "address[]"
        }
      ],
      "stateMutability": "nonpayable",
      "type": "constructor"
    },
    {
      "anonymous": false,
      "inputs": [
        {
          "indexed": true,
          "internalType": "address",
          "name": "token",
          "type": "address"
        },
        {
          "indexed": true,
          "internalType": "address",
          "name": "recipient",
          "type": "address"
        },
        {
          "indexed": false,
          "internalType": "uint256",
          "name": "amount",
          "type": "uint256"
        }
      ],
      "name": "Deposited",
      "type": "event"
    },
    {
      "anonymous": false,
      "inputs": [
        {
          "indexed": true,
          "internalType": "address",
          "name": "token",
          "type": "address"
        },
        {
          "indexed": true,
          "internalType": "address",
          "name": "depositer",
          "type": "address"
        },
        {
          "indexed": false,
          "internalType": "uint256",
          "name": "amount",
          "type": "uint256"
        }
      ],
      "name": "Withdrawn",
      "type": "event"
    },
    {
      "inputs": [],
      "name": "_bridgeAddress",
      "outputs": [
        {
          "internalType": "address",
          "name": "",
          "type": "address"
        }
      ],
      "stateMutability": "view",
      "type": "function"
    },
    {
      "inputs": [
        {
          "internalType": "address",
          "name": "",
          "type": "address"
        }
      ],
      "name": "_burnList",
      "outputs": [
        {
          "internalType": "bool",
          "name": "",
          "type": "bool"
        }
      ],
      "stateMutability": "view",
      "type": "function"
    },
    {
      "inputs": [
        {
          "internalType": "address",
          "name": "",
          "type": "address"
        }
      ],
      "name": "_contractWhitelist",
      "outputs": [
        {
          "internalType": "bool",
          "name": "",
          "type": "bool"
        }
      ],
      "stateMutability": "view",
      "type": "function"
    },
    {
      "inputs": [
        {
          "internalType": "address",
          "name": "",
          "type": "address"
        }
      ],
      "name": "_decimals",
      "outputs": [
        {
          "internalType": "uint8",
          "name": "srcDecimals",
          "type": "uint8"
        },
        {
          "internalType": "uint8",
          "name": "destDecimals",
          "type": "uint8"
        }
      ],
      "stateMutability": "view",
      "type": "function"
    },
    {
      "inputs": [
        {
          "internalType": "uint8",
          "name": "",
          "type": "uint8"
        },
        {
          "internalType": "uint64",
          "name": "",
          "type": "uint64"
        }
      ],
      "name": "_depositRecords",
      "outputs": [
        {
          "internalType": "address",
          "name": "_tokenAddress",
          "type": "address"
        },
        {
          "internalType": "uint8",
          "name": "_lenDestinationRecipientAddress",
          "type": "uint8"
        },
        {
          "internalType": "uint8",
          "name": "_destinationChainID",
          "type": "uint8"
        },
        {
          "internalType": "bytes32",
          "name": "_resourceID",
          "type": "bytes32"
        },
        {
          "internalType": "bytes",
          "name": "_destinationRecipientAddress",
          "type": "bytes"
        },
        {
          "internalType": "address",
          "name": "_depositer",
          "type": "address"
        },
        {
          "internalType": "uint256",
          "name": "_amount",
          "type": "uint256"
        }
      ],
      "stateMutability": "view",
      "type": "function"
    },
    {
      "inputs": [
        {
          "internalType": "bytes32",
          "name": "",
          "type": "bytes32"
        }
      ],
      "name": "_resourceIDToTokenContractAddress",
      "outputs": [
        {
          "internalType": "address",
          "name": "",
          "type": "address"
        }
      ],
      "stateMutability": "view",
      "type": "function"
    },
    {
      "inputs": [
        {
          "internalType": "address",
          "name": "",
          "type": "address"
        }
      ],
      "name": "_tokenContractAddressToResourceID",
      "outputs": [
        {
          "internalType": "bytes32",
          "name": "",
          "type": "bytes32"
        }
      ],
      "stateMutability": "view",
      "type": "function"
    },
    {
      "inputs": [
        {
          "internalType": "address",
          "name": "contractAddress",
          "type": "address"
        }
      ],
      "name": "setBurnable",
      "outputs": [],
      "stateMutability": "nonpayable",
      "type": "function"
    },
    {
      "inputs": [
        {
          "internalType": "address",
          "name": "contractAddress",
          "type": "address"
        },
        {
          "internalType": "uint8",
          "name": "srcDecimals",
          "type": "uint8"
        },
        {
          "internalType": "uint8",
          "name": "destDecimals",
          "type": "uint8"
        }
      ],
      "name": "setDecimals",
      "outputs": [],
      "stateMutability": "nonpayable",
      "type": "function"
    },
    {
      "inputs": [
        {
          "internalType": "bytes32",
          "name": "resourceID",
          "type": "bytes32"
        },
        {
          "internalType": "address",
          "name": "contractAddress",
          "type": "address"
        }
      ],
      "name": "setResource",
      "outputs": [],
      "stateMutability": "nonpayable",
      "type": "function"
    },
    {
      "inputs": [
        {
          "internalType": "uint64",
          "name": "depositNonce",
          "type": "uint64"
        },
        {
          "internalType": "uint8",
          "name": "destId",
          "type": "uint8"
        }
      ],
      "name": "getDepositRecord",
      "outputs": [
        {
          "components": [
            {
              "internalType": "address",
              "name": "_tokenAddress",
              "type": "address"
            },
            {
              "internalType": "uint8",
              "name": "_lenDestinationRecipientAddress",
              "type": "uint8"
            },
            {
              "internalType": "uint8",
              "name": "_destinationChainID",
              "type": "uint8"
            },
            {
              "internalType": "bytes32",
              "name": "_resourceID",
              "type": "bytes32"
            },
            {
              "internalType": "bytes",
              "name": "_destinationRecipientAddress",
              "type": "bytes"
            },
            {
              "internalType": "address",
              "name": "_depositer",
              "type": "address"
            },
            {
              "internalType": "uint256",
              "name": "_amount",
              "type": "uint256"
            }
          ],
          "internalType": "struct ERC20Handler.DepositRecord",
          "name": "",
          "type": "tuple"
        }
      ],
      "stateMutability": "view",
      "type": "function"
    },
    {
      "inputs": [
        {
          "internalType": "bytes32",
          "name": "resourceID",
          "type": "bytes32"
        },
        {
          "internalType": "uint8",
          "name": "destinationChainID",
          "type": "uint8"
        },
        {
          "internalType": "uint64",
          "name": "depositNonce",
          "type": "uint64"
        },
        {
          "internalType": "address",
          "name": "depositer",
          "type": "address"
        },
        {
          "internalType": "bytes",
          "name": "data",
          "type": "bytes"
        }
      ],
      "name": "deposit",
      "outputs": [],
      "stateMutability": "nonpayable",
      "type": "function"
    },
    {
      "inputs": [
        {
          "internalType": "bytes32",
          "name": "resourceID",
          "type": "bytes32"
        },
        {
          "internalType": "bytes",
          "name": "data",
          "type": "bytes"
        }
      ],
      "name": "executeProposal",
      "outputs": [],
      "stateMutability": "nonpayable",
      "type": "function"
    },
    {
      "inputs": [
        {
          "internalType": "address",
          "name": "tokenAddress",
          "type": "address"
        },
        {
          "internalType": "address",
          "name": "recipient",
          "type": "address"
        },
        {
          "internalType": "uint256",
          "name": "amount",
          "type": "uint256"
        }
      ],
      "name": "withdraw",
      "outputs": [],
      "stateMutability": "nonpayable",
      "type": "function"
    }
  ],
  "bytecode": "0x60806040523480156200001157600080fd5b5060405162002c1038038062002c1083398181016040528101906200003791906200048f565b81518351146200007e576040517f08c379a0000000000000000000000000000000000000000000000000000000008152600401620000759062000638565b60405180910390fd5b836000806101000a81548173ffffffffffffffffffffffffffffffffffffffff021916908373ffffffffffffffffffffffffffffffffffffffff16021790555060008351905060005b8181101562000118576200010a858281518110620000e157fe5b6020026020010151858381518110620000f657fe5b60200260200101516200016b60201b60201c565b8080600101915050620000c7565b5060008251905060005b818110156200015e57620001508482815181106200013c57fe5b60200260200101516200025d60201b60201c565b808060010191505062000122565b505050505050506200075d565b806001600084815260200190815260200160002060006101000a81548173ffffffffffffffffffffffffffffffffffffffff021916908373ffffffffffffffffffffffffffffffffffffffff16021790555081600260008373ffffffffffffffffffffffffffffffffffffffff1673ffffffffffffffffffffffffffffffffffffffff168152602001908152602001600020819055506001600360008373ffffffffffffffffffffffffffffffffffffffff1673ffffffffffffffffffffffffffffffffffffffff16815260200190815260200160002060006101000a81548160ff0219169083151502179055505050565b600360008273ffffffffffffffffffffffffffffffffffffffff1673ffffffffffffffffffffffffffffffffffffffff16815260200190815260200160002060009054906101000a900460ff16620002ec576040517f08c379a0000000000000000000000000000000000000000000000000000000008152600401620002e39062000616565b60405180910390fd5b6001600460008373ffffffffffffffffffffffffffffffffffffffff1673ffffffffffffffffffffffffffffffffffffffff16815260200190815260200160002060006101000a81548160ff02191690831515021790555050565b600081519050620003588162000729565b92915050565b600082601f8301126200037057600080fd5b815162000387620003818262000688565b6200065a565b91508181835260208401935060208101905083856020840282011115620003ad57600080fd5b60005b83811015620003e15781620003c6888262000347565b845260208401935060208301925050600181019050620003b0565b5050505092915050565b600082601f830112620003fd57600080fd5b8151620004146200040e82620006b1565b6200065a565b915081818352602084019350602081019050838560208402820111156200043a57600080fd5b60005b838110156200046e578162000453888262000478565b8452602084019350602083019250506001810190506200043d565b5050505092915050565b600081519050620004898162000743565b92915050565b60008060008060808587031215620004a657600080fd5b6000620004b68782880162000347565b945050602085015167ffffffffffffffff811115620004d457600080fd5b620004e287828801620003eb565b935050604085015167ffffffffffffffff8111156200050057600080fd5b6200050e878288016200035e565b925050606085015167ffffffffffffffff8111156200052c57600080fd5b6200053a878288016200035e565b91505092959194509250565b600062000555602483620006da565b91507f70726f766964656420636f6e7472616374206973206e6f742077686974656c6960008301527f73746564000000000000000000000000000000000000000000000000000000006020830152604082019050919050565b6000620005bd603c83620006da565b91507f696e697469616c5265736f7572636549447320616e6420696e697469616c436f60008301527f6e7472616374416464726573736573206c656e206d69736d61746368000000006020830152604082019050919050565b60006020820190508181036000830152620006318162000546565b9050919050565b600060208201905081810360008301526200065381620005ae565b9050919050565b6000604051905081810181811067ffffffffffffffff821117156200067e57600080fd5b8060405250919050565b600067ffffffffffffffff821115620006a057600080fd5b602082029050602081019050919050565b600067ffffffffffffffff821115620006c957600080fd5b602082029050602081019050919050565b600082825260208201905092915050565b6000620006f88262000709565b9050919050565b6000819050919050565b600073ffffffffffffffffffffffffffffffffffffffff82169050919050565b6200073481620006eb565b81146200074057600080fd5b50565b6200074e81620006ff565b81146200075a57600080fd5b50565b6124a3806200076d6000396000f3fe608060405234801561001057600080fd5b50600436106100ea5760003560e01c8063b8fa37361161008c578063d51f0f4711610066578063d51f0f4714610287578063d9caed12146102b8578063e248cff2146102d4578063f4712744146102f0576100ea565b8063b8fa37361461020b578063ba484c0914610227578063c8ba6c8714610257576100ea565b806338995da9116100c857806338995da9146101595780634402027f146101755780636a70d081146101ab5780637f79bea8146101db576100ea565b806307b7ed99146100ef5780630a6d55d81461010b578063318c136e1461013b575b600080fd5b61010960048036038101906101049190611950565b61030c565b005b61012560048036038101906101209190611a40565b610320565b6040516101329190612056565b60405180910390f35b610143610353565b6040516101509190612056565b60405180910390f35b610173600480360381019061016e9190611afd565b610377565b005b61018f600480360381019061018a9190611bcb565b6106f8565b6040516101a297969594939291906120d1565b60405180910390f35b6101c560048036038101906101c09190611950565b610839565b6040516101d29190612147565b60405180910390f35b6101f560048036038101906101f09190611950565b610859565b6040516102029190612147565b60405180910390f35b61022560048036038101906102209190611a69565b610879565b005b610241600480360381019061023c9190611b8f565b61088f565b60405161024e919061227d565b60405180910390f35b610271600480360381019061026c9190611950565b610a84565b60405161027e9190612162565b60405180910390f35b6102a1600480360381019061029c9190611950565b610a9c565b6040516102af9291906122ba565b60405180910390f35b6102d260048036038101906102cd9190611979565b610ada565b005b6102ee60048036038101906102e99190611aa5565b610af2565b005b61030a600480360381019061030591906119c8565b610ce9565b005b610314610d01565b61031d81610d91565b50565b60016020528060005260406000206000915054906101000a900473ffffffffffffffffffffffffffffffffffffffff1681565b60008054906101000a900473ffffffffffffffffffffffffffffffffffffffff1681565b61037f610d01565b606060008060c4359150604051925060e435905080830160200160405260e4360360e484376000600160008b815260200190815260200160002060009054906101000a900473ffffffffffffffffffffffffffffffffffffffff169050600360008273ffffffffffffffffffffffffffffffffffffffff1673ffffffffffffffffffffffffffffffffffffffff16815260200190815260200160002060009054906101000a900460ff16610468576040517f08c379a000000000000000000000000000000000000000000000000000000000815260040161045f9061225d565b60405180910390fd5b600460008273ffffffffffffffffffffffffffffffffffffffff1673ffffffffffffffffffffffffffffffffffffffff16815260200190815260200160002060009054906101000a900460ff16156104ca576104c5818885610e78565b6104d7565b6104d681883086610ef0565b5b6040518060e001604052808273ffffffffffffffffffffffffffffffffffffffff1681526020018360ff1681526020018a60ff1681526020018b81526020018581526020018873ffffffffffffffffffffffffffffffffffffffff1681526020016105428386610f08565b815250600660008b60ff1660ff16815260200190815260200160002060008a67ffffffffffffffff1667ffffffffffffffff16815260200190815260200160002060008201518160000160006101000a81548173ffffffffffffffffffffffffffffffffffffffff021916908373ffffffffffffffffffffffffffffffffffffffff16021790555060208201518160000160146101000a81548160ff021916908360ff16021790555060408201518160000160156101000a81548160ff021916908360ff160217905550606082015181600101556080820151816002019080519060200190610632929190611759565b5060a08201518160030160006101000a81548173ffffffffffffffffffffffffffffffffffffffff021916908373ffffffffffffffffffffffffffffffffffffffff16021790555060c082015181600401559050508673ffffffffffffffffffffffffffffffffffffffff168173ffffffffffffffffffffffffffffffffffffffff167fd1c19fbcd4551a5edfb66d43d2e337c04837afda3482b42bdf569a8fccdae5fb856040516106e4919061229f565b60405180910390a350505050505050505050565b6006602052816000526040600020602052806000526040600020600091509150508060000160009054906101000a900473ffffffffffffffffffffffffffffffffffffffff16908060000160149054906101000a900460ff16908060000160159054906101000a900460ff1690806001015490806002018054600181600116156101000203166002900480601f0160208091040260200160405190810160405280929190818152602001828054600181600116156101000203166002900480156108035780601f106107d857610100808354040283529160200191610803565b820191906000526020600020905b8154815290600101906020018083116107e657829003601f168201915b5050505050908060030160009054906101000a900473ffffffffffffffffffffffffffffffffffffffff16908060040154905087565b60046020528060005260406000206000915054906101000a900460ff1681565b60036020528060005260406000206000915054906101000a900460ff1681565b610881610d01565b61088b8282611064565b5050565b6108976117d9565b600660008360ff1660ff16815260200190815260200160002060008467ffffffffffffffff1667ffffffffffffffff1681526020019081526020016000206040518060e00160405290816000820160009054906101000a900473ffffffffffffffffffffffffffffffffffffffff1673ffffffffffffffffffffffffffffffffffffffff1673ffffffffffffffffffffffffffffffffffffffff1681526020016000820160149054906101000a900460ff1660ff1660ff1681526020016000820160159054906101000a900460ff1660ff1660ff16815260200160018201548152602001600282018054600181600116156101000203166002900480601f016020809104026020016040519081016040528092919081815260200182805460018160011615610100020316600290048015610a135780601f106109e857610100808354040283529160200191610a13565b820191906000526020600020905b8154815290600101906020018083116109f657829003601f168201915b505050505081526020016003820160009054906101000a900473ffffffffffffffffffffffffffffffffffffffff1673ffffffffffffffffffffffffffffffffffffffff1673ffffffffffffffffffffffffffffffffffffffff168152602001600482015481525050905092915050565b60026020528060005260406000206000915090505481565b60056020528060005260406000206000915090508060000160009054906101000a900460ff16908060000160019054906101000a900460ff16905082565b610ae2610d01565b610aed838383611156565b505050565b610afa610d01565b60006060606435915060405190506084358082016020016040526084360360848337506000806001600088815260200190815260200160002060009054906101000a900473ffffffffffffffffffffffffffffffffffffffff16905060208301519150600360008273ffffffffffffffffffffffffffffffffffffffff1673ffffffffffffffffffffffffffffffffffffffff16815260200190815260200160002060009054906101000a900460ff16610be9576040517f08c379a0000000000000000000000000000000000000000000000000000000008152600401610be09061225d565b60405180910390fd5b600460008273ffffffffffffffffffffffffffffffffffffffff1673ffffffffffffffffffffffffffffffffffffffff16815260200190815260200160002060009054906101000a900460ff1615610c5757610c52818360601c610c4d848861116c565b6112c8565b610c6f565b610c6e818360601c610c69848861116c565b611156565b5b8160601c73ffffffffffffffffffffffffffffffffffffffff168173ffffffffffffffffffffffffffffffffffffffff167f8752a472e571a816aea92eec8dae9baf628e840f4929fbcc2d155e6233ff68a7610ccb848861116c565b604051610cd8919061229f565b60405180910390a350505050505050565b610cf1610d01565b610cfc838383611340565b505050565b60008054906101000a900473ffffffffffffffffffffffffffffffffffffffff1673ffffffffffffffffffffffffffffffffffffffff163373ffffffffffffffffffffffffffffffffffffffff1614610d8f576040517f08c379a0000000000000000000000000000000000000000000000000000000008152600401610d869061219d565b60405180910390fd5b565b600360008273ffffffffffffffffffffffffffffffffffffffff1673ffffffffffffffffffffffffffffffffffffffff16815260200190815260200160002060009054906101000a900460ff16610e1d576040517f08c379a0000000000000000000000000000000000000000000000000000000008152600401610e14906121dd565b60405180910390fd5b6001600460008373ffffffffffffffffffffffffffffffffffffffff1673ffffffffffffffffffffffffffffffffffffffff16815260200190815260200160002060006101000a81548160ff02191690831515021790555050565b60008390508073ffffffffffffffffffffffffffffffffffffffff166379cc679084846040518363ffffffff1660e01b8152600401610eb89291906120a8565b600060405180830381600087803b158015610ed257600080fd5b505af1158015610ee6573d6000803e3d6000fd5b5050505050505050565b6000849050610f0181858585611470565b5050505050565b6000610f1261184b565b600560008573ffffffffffffffffffffffffffffffffffffffff1673ffffffffffffffffffffffffffffffffffffffff1681526020019081526020016000206040518060400160405290816000820160009054906101000a900460ff1660ff1660ff1681526020016000820160019054906101000a900460ff1660ff1660ff168152505090506000816000015160ff1614158015610fb857506000816020015160ff1614155b610ff7576040517f08c379a0000000000000000000000000000000000000000000000000000000008152600401610fee906121bd565b60405180910390fd5b806000015160ff16816020015160ff16106110375761102f816000015182602001510360ff16600a0a846114f990919063ffffffff16565b91505061105e565b61105a816020015182600001510360ff16600a0a8461156990919063ffffffff16565b9150505b92915050565b806001600084815260200190815260200160002060006101000a81548173ffffffffffffffffffffffffffffffffffffffff021916908373ffffffffffffffffffffffffffffffffffffffff16021790555081600260008373ffffffffffffffffffffffffffffffffffffffff1673ffffffffffffffffffffffffffffffffffffffff168152602001908152602001600020819055506001600360008373ffffffffffffffffffffffffffffffffffffffff1673ffffffffffffffffffffffffffffffffffffffff16815260200190815260200160002060006101000a81548160ff0219169083151502179055505050565b60008390506111668184846115bf565b50505050565b600061117661184b565b600560008573ffffffffffffffffffffffffffffffffffffffff1673ffffffffffffffffffffffffffffffffffffffff1681526020019081526020016000206040518060400160405290816000820160009054906101000a900460ff1660ff1660ff1681526020016000820160019054906101000a900460ff1660ff1660ff168152505090506000816000015160ff161415801561121c57506000816020015160ff1614155b61125b576040517f08c379a0000000000000000000000000000000000000000000000000000000008152600401611252906121bd565b60405180910390fd5b806000015160ff16816020015160ff161061129b57611293816000015182602001510360ff16600a0a8461156990919063ffffffff16565b9150506112c2565b6112be816020015182600001510360ff16600a0a846114f990919063ffffffff16565b9150505b92915050565b60008390508073ffffffffffffffffffffffffffffffffffffffff166340c10f1984846040518363ffffffff1660e01b81526004016113089291906120a8565b600060405180830381600087803b15801561132257600080fd5b505af1158015611336573d6000803e3d6000fd5b5050505050505050565b600360008473ffffffffffffffffffffffffffffffffffffffff1673ffffffffffffffffffffffffffffffffffffffff16815260200190815260200160002060009054906101000a900460ff166113cc576040517f08c379a00000000000000000000000000000000000000000000000000000000081526004016113c3906121dd565b60405180910390fd5b60405180604001604052808360ff1681526020018260ff16815250600560008573ffffffffffffffffffffffffffffffffffffffff1673ffffffffffffffffffffffffffffffffffffffff16815260200190815260200160002060008201518160000160006101000a81548160ff021916908360ff16021790555060208201518160000160016101000a81548160ff021916908360ff160217905550905050505050565b6114f3846323b872dd60e01b85858560405160240161149193929190612071565b604051602081830303815290604052907bffffffffffffffffffffffffffffffffffffffffffffffffffffffff19166020820180517bffffffffffffffffffffffffffffffffffffffffffffffffffffffff8381831617835250505050611645565b50505050565b60008083141561150c5760009050611563565b600082840290508284828161151d57fe5b041461155e576040517f08c379a00000000000000000000000000000000000000000000000000000000081526004016115559061223d565b60405180910390fd5b809150505b92915050565b60008082116115ad576040517f08c379a00000000000000000000000000000000000000000000000000000000081526004016115a49061221d565b60405180910390fd5b8183816115b657fe5b04905092915050565b6116408363a9059cbb60e01b84846040516024016115de9291906120a8565b604051602081830303815290604052907bffffffffffffffffffffffffffffffffffffffffffffffffffffffff19166020820180517bffffffffffffffffffffffffffffffffffffffffffffffffffffffff8381831617835250505050611645565b505050565b600060608373ffffffffffffffffffffffffffffffffffffffff168360405161166e919061203f565b6000604051808303816000865af19150503d80600081146116ab576040519150601f19603f3d011682016040523d82523d6000602084013e6116b0565b606091505b5091509150816116f5576040517f08c379a00000000000000000000000000000000000000000000000000000000081526004016116ec906121fd565b60405180910390fd5b60008151111561175357808060200190518101906117139190611a17565b611752576040517f08c379a00000000000000000000000000000000000000000000000000000000081526004016117499061217d565b60405180910390fd5b5b50505050565b828054600181600116156101000203166002900490600052602060002090601f016020900481019282601f1061179a57805160ff19168380011785556117c8565b828001600101855582156117c8579182015b828111156117c75782518255916020019190600101906117ac565b5b5090506117d5919061186b565b5090565b6040518060e00160405280600073ffffffffffffffffffffffffffffffffffffffff168152602001600060ff168152602001600060ff1681526020016000801916815260200160608152602001600073ffffffffffffffffffffffffffffffffffffffff168152602001600081525090565b6040518060400160405280600060ff168152602001600060ff1681525090565b5b8082111561188457600081600090555060010161186c565b5090565b600081359050611897816123e3565b92915050565b6000815190506118ac816123fa565b92915050565b6000813590506118c181612411565b92915050565b60008083601f8401126118d957600080fd5b8235905067ffffffffffffffff8111156118f257600080fd5b60208301915083600182028301111561190a57600080fd5b9250929050565b60008135905061192081612428565b92915050565b6000813590506119358161243f565b92915050565b60008135905061194a81612456565b92915050565b60006020828403121561196257600080fd5b600061197084828501611888565b91505092915050565b60008060006060848603121561198e57600080fd5b600061199c86828701611888565b93505060206119ad86828701611888565b92505060406119be86828701611911565b9150509250925092565b6000806000606084860312156119dd57600080fd5b60006119eb86828701611888565b93505060206119fc8682870161193b565b9250506040611a0d8682870161193b565b9150509250925092565b600060208284031215611a2957600080fd5b6000611a378482850161189d565b91505092915050565b600060208284031215611a5257600080fd5b6000611a60848285016118b2565b91505092915050565b60008060408385031215611a7c57600080fd5b6000611a8a858286016118b2565b9250506020611a9b85828601611888565b9150509250929050565b600080600060408486031215611aba57600080fd5b6000611ac8868287016118b2565b935050602084013567ffffffffffffffff811115611ae557600080fd5b611af1868287016118c7565b92509250509250925092565b60008060008060008060a08789031215611b1657600080fd5b6000611b2489828a016118b2565b9650506020611b3589828a0161193b565b9550506040611b4689828a01611926565b9450506060611b5789828a01611888565b935050608087013567ffffffffffffffff811115611b7457600080fd5b611b8089828a016118c7565b92509250509295509295509295565b60008060408385031215611ba257600080fd5b6000611bb085828601611926565b9250506020611bc18582860161193b565b9150509250929050565b60008060408385031215611bde57600080fd5b6000611bec8582860161193b565b9250506020611bfd85828601611926565b9150509250929050565b611c108161232c565b82525050565b611c1f8161232c565b82525050565b611c2e8161233e565b82525050565b611c3d8161234a565b82525050565b611c4c8161234a565b82525050565b6000611c5d826122e3565b611c6781856122ee565b9350611c7781856020860161239f565b611c80816123d2565b840191505092915050565b6000611c96826122e3565b611ca081856122ff565b9350611cb081856020860161239f565b611cb9816123d2565b840191505092915050565b6000611ccf826122e3565b611cd98185612310565b9350611ce981856020860161239f565b80840191505092915050565b6000611d0260208361231b565b91507f45524332303a206f7065726174696f6e20646964206e6f7420737563636565646000830152602082019050919050565b6000611d42601e8361231b565b91507f73656e646572206d7573742062652062726964676520636f6e747261637400006000830152602082019050919050565b6000611d82600e8361231b565b91507f57726f6e6720646563696d616c730000000000000000000000000000000000006000830152602082019050919050565b6000611dc260248361231b565b91507f70726f766964656420636f6e7472616374206973206e6f742077686974656c6960008301527f73746564000000000000000000000000000000000000000000000000000000006020830152604082019050919050565b6000611e2860128361231b565b91507f45524332303a2063616c6c206661696c656400000000000000000000000000006000830152602082019050919050565b6000611e68601a8361231b565b91507f536166654d6174683a206469766973696f6e206279207a65726f0000000000006000830152602082019050919050565b6000611ea860218361231b565b91507f536166654d6174683a206d756c7469706c69636174696f6e206f766572666c6f60008301527f77000000000000000000000000000000000000000000000000000000000000006020830152604082019050919050565b6000611f0e60288361231b565b91507f70726f766964656420746f6b656e41646472657373206973206e6f742077686960008301527f74656c69737465640000000000000000000000000000000000000000000000006020830152604082019050919050565b600060e083016000830151611f7f6000860182611c07565b506020830151611f926020860182612021565b506040830151611fa56040860182612021565b506060830151611fb86060860182611c34565b5060808301518482036080860152611fd08282611c52565b91505060a0830151611fe560a0860182611c07565b5060c0830151611ff860c0860182612003565b508091505092915050565b61200c81612374565b82525050565b61201b81612374565b82525050565b61202a81612392565b82525050565b61203981612392565b82525050565b600061204b8284611cc4565b915081905092915050565b600060208201905061206b6000830184611c16565b92915050565b60006060820190506120866000830186611c16565b6120936020830185611c16565b6120a06040830184612012565b949350505050565b60006040820190506120bd6000830185611c16565b6120ca6020830184612012565b9392505050565b600060e0820190506120e6600083018a611c16565b6120f36020830189612030565b6121006040830188612030565b61210d6060830187611c43565b818103608083015261211f8186611c8b565b905061212e60a0830185611c16565b61213b60c0830184612012565b98975050505050505050565b600060208201905061215c6000830184611c25565b92915050565b60006020820190506121776000830184611c43565b92915050565b6000602082019050818103600083015261219681611cf5565b9050919050565b600060208201905081810360008301526121b681611d35565b9050919050565b600060208201905081810360008301526121d681611d75565b9050919050565b600060208201905081810360008301526121f681611db5565b9050919050565b6000602082019050818103600083015261221681611e1b565b9050919050565b6000602082019050818103600083015261223681611e5b565b9050919050565b6000602082019050818103600083015261225681611e9b565b9050919050565b6000602082019050818103600083015261227681611f01565b9050919050565b600060208201905081810360008301526122978184611f67565b905092915050565b60006020820190506122b46000830184612012565b92915050565b60006040820190506122cf6000830185612030565b6122dc6020830184612030565b9392505050565b600081519050919050565b600082825260208201905092915050565b600082825260208201905092915050565b600081905092915050565b600082825260208201905092915050565b600061233782612354565b9050919050565b60008115159050919050565b6000819050919050565b600073ffffffffffffffffffffffffffffffffffffffff82169050919050565b6000819050919050565b600067ffffffffffffffff82169050919050565b600060ff82169050919050565b60005b838110156123bd5780820151818401526020810190506123a2565b838111156123cc576000848401525b50505050565b6000601f19601f8301169050919050565b6123ec8161232c565b81146123f757600080fd5b50565b6124038161233e565b811461240e57600080fd5b50565b61241a8161234a565b811461242557600080fd5b50565b61243181612374565b811461243c57600080fd5b50565b6124488161237e565b811461245357600080fd5b50565b61245f81612392565b811461246a57600080fd5b5056fea2646970667358221220510c9f8b8f8e5184ad7ad5c0f5943fd0aaf11b7f4933ac420d5f056a3a1f454d64736f6c63430007000033",
  "immutableReferences": {},
  "source": "pragma solidity 0.7.0;\npragma experimental ABIEncoderV2;\n\nimport \"../interfaces/IDepositExecute.sol\";\nimport \"./HandlerHelpers.sol\";\nimport \"../ERC20Safe.sol\";\nimport \"@openzeppelin/contracts/presets/ERC20PresetMinterPauser.sol\";\nimport \"@openzeppelin/contracts/math/SafeMath.sol\";\n\n/**\n    @title Handles ERC20 deposits and deposit executions.\n    @author ChainSafe Systems.\n    @notice This contract is intended to be used with the Bridge contract.\n */\ncontract ERC20Handler is IDepositExecute, HandlerHelpers, ERC20Safe {\n    using SafeMath for uint256;\n\n    struct DepositRecord {\n        address _tokenAddress;\n        uint8    _lenDestinationRecipientAddress;\n        uint8   _destinationChainID;\n        bytes32 _resourceID;\n        bytes   _destinationRecipientAddress;\n        address _depositer;\n        uint    _amount;\n    }\n\n    // depositNonce => Deposit Record\n    mapping (uint8 => mapping(uint64 => DepositRecord)) public _depositRecords;\n\n    event Deposited(address indexed token, address indexed recipient, uint256 amount);\n    event Withdrawn(address indexed token, address indexed depositer, uint256 amount);\n\n    /**\n        @param bridgeAddress Contract address of previously deployed Bridge.\n        @param initialResourceIDs Resource IDs are used to identify a specific contract address.\n        These are the Resource IDs this contract will initially support.\n        @param initialContractAddresses These are the addresses the {initialResourceIDs} will point to, and are the contracts that will be\n        called to perform various deposit calls.\n        @param burnableContractAddresses These addresses will be set as burnable and when {deposit} is called, the deposited token will be burned.\n        When {executeProposal} is called, new tokens will be minted.\n\n        @dev {initialResourceIDs} and {initialContractAddresses} must have the same length (one resourceID for every address).\n        Also, these arrays must be ordered in the way that {initialResourceIDs}[0] is the intended resourceID for {initialContractAddresses}[0].\n     */\n    constructor(\n        address          bridgeAddress,\n        bytes32[] memory initialResourceIDs,\n        address[] memory initialContractAddresses,\n        address[] memory burnableContractAddresses\n    ) public {\n        require(initialResourceIDs.length == initialContractAddresses.length,\n            \"initialResourceIDs and initialContractAddresses len mismatch\");\n\n        _bridgeAddress = bridgeAddress;\n\n        uint256 initialCount = initialResourceIDs.length;\n        for (uint256 i = 0; i < initialCount; i++) {\n            _setResource(initialResourceIDs[i], initialContractAddresses[i]);\n        }\n\n        uint256 burnableCount = burnableContractAddresses.length;\n        for (uint256 i = 0; i < burnableCount; i++) {\n            _setBurnable(burnableContractAddresses[i]);\n        }\n    }\n\n    /**\n        @param depositNonce This ID will have been generated by the Bridge contract.\n        @param destId ID of chain deposit will be bridged to.\n        @return DepositRecord which consists of:\n        - _tokenAddress Address used when {deposit} was executed.\n        - _destinationChainID ChainID deposited tokens are intended to end up on.\n        - _resourceID ResourceID used when {deposit} was executed.\n        - _lenDestinationRecipientAddress Used to parse recipient's address from {_destinationRecipientAddress}\n        - _destinationRecipientAddress Address tokens are intended to be deposited to on desitnation chain.\n        - _depositer Address that initially called {deposit} in the Bridge contract.\n        - _amount Amount of tokens that were deposited.\n    */\n    function getDepositRecord(uint64 depositNonce, uint8 destId) external view returns (DepositRecord memory) {\n        return _depositRecords[destId][depositNonce];\n    }\n\n    /**\n        @notice A deposit is initiatied by making a deposit in the Bridge contract.\n        @param destinationChainID Chain ID of chain tokens are expected to be bridged to.\n        @param depositNonce This value is generated as an ID by the Bridge contract.\n        @param depositer Address of account making the deposit in the Bridge contract.\n        @param data Consists of: {resourceID}, {amount}, {lenRecipientAddress}, and {recipientAddress}\n        all padded to 32 bytes.\n        @notice Data passed into the function should be constructed as follows:\n        amount                      uint256     bytes   0 - 32\n        recipientAddress length     uint256     bytes  32 - 64\n        recipientAddress            bytes       bytes  64 - END\n        @dev Depending if the corresponding {tokenAddress} for the parsed {resourceID} is\n        marked true in {_burnList}, deposited tokens will be burned, if not, they will be locked.\n     */\n    function deposit(\n        bytes32 resourceID,\n        uint8   destinationChainID,\n        uint64  depositNonce,\n        address depositer,\n        bytes   calldata data\n    ) external override onlyBridge {\n        bytes   memory recipientAddress;\n        uint256        amount;\n        uint256        lenRecipientAddress;\n\n        assembly {\n\n            amount := calldataload(0xC4)\n\n            recipientAddress := mload(0x40)\n            lenRecipientAddress := calldataload(0xE4)\n            mstore(0x40, add(0x20, add(recipientAddress, lenRecipientAddress)))\n\n            calldatacopy(\n                recipientAddress, // copy to destinationRecipientAddress\n                0xE4, // copy from calldata @ 0x104\n                sub(calldatasize(), 0xE4) // copy size (calldatasize - 0x104)\n            )\n        }\n\n        address tokenAddress = _resourceIDToTokenContractAddress[resourceID];\n        require(_contractWhitelist[tokenAddress], \"provided tokenAddress is not whitelisted\");\n\n        if (_burnList[tokenAddress]) {\n            burnERC20(tokenAddress, depositer, amount);\n        } else {\n            lockERC20(tokenAddress, depositer, address(this), amount);\n        }\n\n        _depositRecords[destinationChainID][depositNonce] = DepositRecord(\n            tokenAddress,\n            uint8(lenRecipientAddress),\n            destinationChainID,\n            resourceID,\n            recipientAddress,\n            depositer,\n            toDestBalance(tokenAddress, amount)\n        );\n\n        emit Withdrawn(tokenAddress, depositer, amount);\n    }\n\n    /**\n        @notice Proposal execution should be initiated when a proposal is finalized in the Bridge contract.\n        by a relayer on the deposit's destination chain.\n        @param data Consists of {resourceID}, {amount}, {lenDestinationRecipientAddress},\n        and {destinationRecipientAddress} all padded to 32 bytes.\n        @notice Data passed into the function should be constructed as follows:\n        amount                                 uint256     bytes  0 - 32\n        destinationRecipientAddress length     uint256     bytes  32 - 64\n        destinationRecipientAddress            bytes       bytes  64 - END\n     */\n    function executeProposal(bytes32 resourceID, bytes calldata data) external override onlyBridge {\n        uint256       amount;\n        bytes  memory destinationRecipientAddress;\n\n        assembly {\n            amount := calldataload(0x64)\n\n            destinationRecipientAddress := mload(0x40)\n            let lenDestinationRecipientAddress := calldataload(0x84)\n            mstore(0x40, add(0x20, add(destinationRecipientAddress, lenDestinationRecipientAddress)))\n\n            // in the calldata the destinationRecipientAddress is stored at 0xC4 after accounting for the function signature and length declaration\n            calldatacopy(\n                destinationRecipientAddress, // copy to destinationRecipientAddress\n                0x84, // copy from calldata @ 0x84\n                sub(calldatasize(), 0x84) // copy size to the end of calldata\n            )\n        }\n\n        bytes20 recipientAddress;\n        address tokenAddress = _resourceIDToTokenContractAddress[resourceID];\n\n        assembly {\n            recipientAddress := mload(add(destinationRecipientAddress, 0x20))\n        }\n\n        require(_contractWhitelist[tokenAddress], \"provided tokenAddress is not whitelisted\");\n\n        if (_burnList[tokenAddress]) {\n            mintERC20(tokenAddress, address(recipientAddress), toSrcBalance(tokenAddress, amount));\n        } else {\n            releaseERC20(tokenAddress, address(recipientAddress), toSrcBalance(tokenAddress, amount));\n        }\n\n        emit Deposited(tokenAddress, address(recipientAddress), toSrcBalance(tokenAddress, amount));\n    }\n\n    /**\n        @notice Used to manually release ERC20 tokens from ERC20Safe.\n        @param tokenAddress Address of token contract to release.\n        @param recipient Address to release tokens to.\n        @param amount The amount of ERC20 tokens to release.\n     */\n    function withdraw(address tokenAddress, address recipient, uint amount) external override onlyBridge {\n        releaseERC20(tokenAddress, recipient, amount);\n    }\n\n    function toDestBalance(address tokenAddress, uint256 amount) internal returns(uint256) {\n        Decimals memory decimals = _decimals[tokenAddress];\n        // We are not allowed decimals not set or not set correctly\n        require(decimals.srcDecimals != 0 && decimals.destDecimals != 0, \"Wrong decimals\");\n        if (decimals.destDecimals >= decimals.srcDecimals) {\n            return amount.mul(10 ** (decimals.destDecimals - decimals.srcDecimals));\n        } else {\n            return amount.div(10 ** (decimals.srcDecimals - decimals.destDecimals));\n        }\n    }\n\n    function toSrcBalance(address tokenAddress, uint256 amount) internal returns(uint256) {\n        Decimals memory decimals = _decimals[tokenAddress];\n        // We are not allowed decimals not set or not set correctly\n        require(decimals.srcDecimals != 0 && decimals.destDecimals != 0, \"Wrong decimals\");\n        if (decimals.destDecimals >= decimals.srcDecimals) {\n            return amount.div(10 ** (decimals.destDecimals - decimals.srcDecimals));\n        } else {\n            return amount.mul(10 ** (decimals.srcDecimals - decimals.destDecimals));\n        }\n    }\n}\n",
  "sourcePath": "/Users/wwf/workspace/PhalaProjects/chainbridge/chainbridge-solidity/contracts/handlers/ERC20Handler.sol",
  "compiler": {
    "name": "solc",
    "version": "0.7.0+commit.9e61f92b.Emscripten.clang"
  },
  "schemaVersion": "3.4.3",
  "updatedAt": "2022-02-21T08:37:05.579Z",
  "devdoc": {
    "author": "ChainSafe Systems.",
    "kind": "dev",
    "methods": {
      "constructor": {
        "details": "{initialResourceIDs} and {initialContractAddresses} must have the same length (one resourceID for every address). Also, these arrays must be ordered in the way that {initialResourceIDs}[0] is the intended resourceID for {initialContractAddresses}[0].",
        "params": {
          "bridgeAddress": "Contract address of previously deployed Bridge.",
          "burnableContractAddresses": "These addresses will be set as burnable and when {deposit} is called, the deposited token will be burned. When {executeProposal} is called, new tokens will be minted.",
          "initialContractAddresses": "These are the addresses the {initialResourceIDs} will point to, and are the contracts that will be called to perform various deposit calls.",
          "initialResourceIDs": "Resource IDs are used to identify a specific contract address. These are the Resource IDs this contract will initially support."
        }
      },
      "deposit(bytes32,uint8,uint64,address,bytes)": {
        "details": "Depending if the corresponding {tokenAddress} for the parsed {resourceID} is marked true in {_burnList}, deposited tokens will be burned, if not, they will be locked.",
        "params": {
          "data": "Consists of: {resourceID}, {amount}, {lenRecipientAddress}, and {recipientAddress} all padded to 32 bytes.",
          "depositNonce": "This value is generated as an ID by the Bridge contract.",
          "depositer": "Address of account making the deposit in the Bridge contract.",
          "destinationChainID": "Chain ID of chain tokens are expected to be bridged to."
        }
      },
      "executeProposal(bytes32,bytes)": {
        "params": {
          "data": "Consists of {resourceID}, {amount}, {lenDestinationRecipientAddress}, and {destinationRecipientAddress} all padded to 32 bytes."
        }
      },
      "getDepositRecord(uint64,uint8)": {
        "params": {
          "depositNonce": "This ID will have been generated by the Bridge contract.",
          "destId": "ID of chain deposit will be bridged to."
        },
        "returns": {
          "_0": "DepositRecord which consists of: - _tokenAddress Address used when {deposit} was executed. - _destinationChainID ChainID deposited tokens are intended to end up on. - _resourceID ResourceID used when {deposit} was executed. - _lenDestinationRecipientAddress Used to parse recipient's address from {_destinationRecipientAddress} - _destinationRecipientAddress Address tokens are intended to be deposited to on desitnation chain. - _depositer Address that initially called {deposit} in the Bridge contract. - _amount Amount of tokens that were deposited."
        }
      },
      "setBurnable(address)": {
        "params": {
          "contractAddress": "Address of contract to be used when making or executing deposits."
        }
      },
      "setDecimals(address,uint8,uint8)": {
        "params": {
          "contractAddress": "Address of contract to be used when making or eexcuting deposits.",
          "destDecimals": "Decimals of this token on dest chain.",
          "srcDecimals": "Decimals of this token on source chain"
        }
      },
      "setResource(bytes32,address)": {
        "params": {
          "contractAddress": "Address of contract to be called when a deposit is made and a deposited is executed.",
          "resourceID": "ResourceID to be used when making deposits."
        }
      },
      "withdraw(address,address,uint256)": {
        "params": {
          "amount": "The amount of ERC20 tokens to release.",
          "recipient": "Address to release tokens to.",
          "tokenAddress": "Address of token contract to release."
        }
      }
    },
    "title": "Handles ERC20 deposits and deposit executions.",
    "version": 1
  },
  "userdoc": {
    "kind": "user",
    "methods": {
      "deposit(bytes32,uint8,uint64,address,bytes)": {
        "notice": "A deposit is initiatied by making a deposit in the Bridge contract.Data passed into the function should be constructed as follows: amount                      uint256     bytes   0 - 32 recipientAddress length     uint256     bytes  32 - 64 recipientAddress            bytes       bytes  64 - END"
      },
      "executeProposal(bytes32,bytes)": {
        "notice": "Proposal execution should be initiated when a proposal is finalized in the Bridge contract. by a relayer on the deposit's destination chain.Data passed into the function should be constructed as follows: amount                                 uint256     bytes  0 - 32 destinationRecipientAddress length     uint256     bytes  32 - 64 destinationRecipientAddress            bytes       bytes  64 - END"
      },
      "setBurnable(address)": {
        "notice": "First verifies {contractAddress} is whitelisted, then sets {_burnList}[{contractAddress}] to true."
      },
      "setDecimals(address,uint8,uint8)": {
        "notice": "First verifies {contractAddress} is whitelisted, then sets {_decimals}[{contractAddress}] to it's decimals value."
      },
      "setResource(bytes32,address)": {
        "notice": "First verifies {_resourceIDToContractAddress}[{resourceID}] and {_contractAddressToResourceID}[{contractAddress}] are not already set, then sets {_resourceIDToContractAddress} with {contractAddress}, {_contractAddressToResourceID} with {resourceID}, and {_contractWhitelist} to true for {contractAddress}."
      },
      "withdraw(address,address,uint256)": {
        "notice": "Used to manually release ERC20 tokens from ERC20Safe."
      }
    },
    "notice": "This contract is intended to be used with the Bridge contract.",
    "version": 1
  }
}