{
  "contractName": "ERC20Handler",
  "abi": [
    {
      "inputs": [
        {
          "internalType": "address",
          "name": "bridgeAddress",
          "type": "address"
        },
        {
          "internalType": "bytes32[]",
          "name": "initialResourceIDs",
          "type": "bytes32[]"
        },
        {
          "internalType": "address[]",
          "name": "initialContractAddresses",
          "type": "address[]"
        },
        {
          "internalType": "address[]",
          "name": "burnableContractAddresses",
          "type": "address[]"
        }
      ],
      "stateMutability": "nonpayable",
      "type": "constructor"
    },
    {
      "inputs": [],
      "name": "_bridgeAddress",
      "outputs": [
        {
          "internalType": "address",
          "name": "",
          "type": "address"
        }
      ],
      "stateMutability": "view",
      "type": "function"
    },
    {
      "inputs": [
        {
          "internalType": "address",
          "name": "",
          "type": "address"
        }
      ],
      "name": "_burnList",
      "outputs": [
        {
          "internalType": "bool",
          "name": "",
          "type": "bool"
        }
      ],
      "stateMutability": "view",
      "type": "function"
    },
    {
      "inputs": [
        {
          "internalType": "address",
          "name": "",
          "type": "address"
        }
      ],
      "name": "_contractWhitelist",
      "outputs": [
        {
          "internalType": "bool",
          "name": "",
          "type": "bool"
        }
      ],
      "stateMutability": "view",
      "type": "function"
    },
    {
      "inputs": [
        {
          "internalType": "uint8",
          "name": "",
          "type": "uint8"
        },
        {
          "internalType": "uint64",
          "name": "",
          "type": "uint64"
        }
      ],
      "name": "_depositRecords",
      "outputs": [
        {
          "internalType": "address",
          "name": "_tokenAddress",
          "type": "address"
        },
        {
          "internalType": "uint8",
          "name": "_lenDestinationRecipientAddress",
          "type": "uint8"
        },
        {
          "internalType": "uint8",
          "name": "_destinationChainID",
          "type": "uint8"
        },
        {
          "internalType": "bytes32",
          "name": "_resourceID",
          "type": "bytes32"
        },
        {
          "internalType": "bytes",
          "name": "_destinationRecipientAddress",
          "type": "bytes"
        },
        {
          "internalType": "address",
          "name": "_depositer",
          "type": "address"
        },
        {
          "internalType": "uint256",
          "name": "_amount",
          "type": "uint256"
        }
      ],
      "stateMutability": "view",
      "type": "function"
    },
    {
      "inputs": [
        {
          "internalType": "bytes32",
          "name": "",
          "type": "bytes32"
        }
      ],
      "name": "_resourceIDToTokenContractAddress",
      "outputs": [
        {
          "internalType": "address",
          "name": "",
          "type": "address"
        }
      ],
      "stateMutability": "view",
      "type": "function"
    },
    {
      "inputs": [
        {
          "internalType": "address",
          "name": "",
          "type": "address"
        }
      ],
      "name": "_tokenContractAddressToResourceID",
      "outputs": [
        {
          "internalType": "bytes32",
          "name": "",
          "type": "bytes32"
        }
      ],
      "stateMutability": "view",
      "type": "function"
    },
    {
      "inputs": [
        {
          "internalType": "address",
          "name": "contractAddress",
          "type": "address"
        }
      ],
      "name": "setBurnable",
      "outputs": [],
      "stateMutability": "nonpayable",
      "type": "function"
    },
    {
      "inputs": [
        {
          "internalType": "bytes32",
          "name": "resourceID",
          "type": "bytes32"
        },
        {
          "internalType": "address",
          "name": "contractAddress",
          "type": "address"
        }
      ],
      "name": "setResource",
      "outputs": [],
      "stateMutability": "nonpayable",
      "type": "function"
    },
    {
      "inputs": [
        {
          "internalType": "uint64",
          "name": "depositNonce",
          "type": "uint64"
        },
        {
          "internalType": "uint8",
          "name": "destId",
          "type": "uint8"
        }
      ],
      "name": "getDepositRecord",
      "outputs": [
        {
          "components": [
            {
              "internalType": "address",
              "name": "_tokenAddress",
              "type": "address"
            },
            {
              "internalType": "uint8",
              "name": "_lenDestinationRecipientAddress",
              "type": "uint8"
            },
            {
              "internalType": "uint8",
              "name": "_destinationChainID",
              "type": "uint8"
            },
            {
              "internalType": "bytes32",
              "name": "_resourceID",
              "type": "bytes32"
            },
            {
              "internalType": "bytes",
              "name": "_destinationRecipientAddress",
              "type": "bytes"
            },
            {
              "internalType": "address",
              "name": "_depositer",
              "type": "address"
            },
            {
              "internalType": "uint256",
              "name": "_amount",
              "type": "uint256"
            }
          ],
          "internalType": "struct ERC20Handler.DepositRecord",
          "name": "",
          "type": "tuple"
        }
      ],
      "stateMutability": "view",
      "type": "function"
    },
    {
      "inputs": [
        {
          "internalType": "bytes32",
          "name": "resourceID",
          "type": "bytes32"
        },
        {
          "internalType": "uint8",
          "name": "destinationChainID",
          "type": "uint8"
        },
        {
          "internalType": "uint64",
          "name": "depositNonce",
          "type": "uint64"
        },
        {
          "internalType": "address",
          "name": "depositer",
          "type": "address"
        },
        {
          "internalType": "bytes",
          "name": "data",
          "type": "bytes"
        }
      ],
      "name": "deposit",
      "outputs": [],
      "stateMutability": "nonpayable",
      "type": "function"
    },
    {
      "inputs": [
        {
          "internalType": "bytes32",
          "name": "resourceID",
          "type": "bytes32"
        },
        {
          "internalType": "bytes",
          "name": "data",
          "type": "bytes"
        }
      ],
      "name": "executeProposal",
      "outputs": [],
      "stateMutability": "nonpayable",
      "type": "function"
    },
    {
      "inputs": [
        {
          "internalType": "address",
          "name": "tokenAddress",
          "type": "address"
        },
        {
          "internalType": "address",
          "name": "recipient",
          "type": "address"
        },
        {
          "internalType": "uint256",
          "name": "amount",
          "type": "uint256"
        }
      ],
      "name": "withdraw",
      "outputs": [],
      "stateMutability": "nonpayable",
      "type": "function"
    }
  ],
  "bytecode": "0x60806040523480156200001157600080fd5b506040516200258a3803806200258a83398181016040528101906200003791906200048f565b81518351146200007e576040517f08c379a0000000000000000000000000000000000000000000000000000000008152600401620000759062000638565b60405180910390fd5b836000806101000a81548173ffffffffffffffffffffffffffffffffffffffff021916908373ffffffffffffffffffffffffffffffffffffffff16021790555060008351905060005b8181101562000118576200010a858281518110620000e157fe5b6020026020010151858381518110620000f657fe5b60200260200101516200016b60201b60201c565b8080600101915050620000c7565b5060008251905060005b818110156200015e57620001508482815181106200013c57fe5b60200260200101516200025d60201b60201c565b808060010191505062000122565b505050505050506200075d565b806001600084815260200190815260200160002060006101000a81548173ffffffffffffffffffffffffffffffffffffffff021916908373ffffffffffffffffffffffffffffffffffffffff16021790555081600260008373ffffffffffffffffffffffffffffffffffffffff1673ffffffffffffffffffffffffffffffffffffffff168152602001908152602001600020819055506001600360008373ffffffffffffffffffffffffffffffffffffffff1673ffffffffffffffffffffffffffffffffffffffff16815260200190815260200160002060006101000a81548160ff0219169083151502179055505050565b600360008273ffffffffffffffffffffffffffffffffffffffff1673ffffffffffffffffffffffffffffffffffffffff16815260200190815260200160002060009054906101000a900460ff16620002ec576040517f08c379a0000000000000000000000000000000000000000000000000000000008152600401620002e39062000616565b60405180910390fd5b6001600460008373ffffffffffffffffffffffffffffffffffffffff1673ffffffffffffffffffffffffffffffffffffffff16815260200190815260200160002060006101000a81548160ff02191690831515021790555050565b600081519050620003588162000729565b92915050565b600082601f8301126200037057600080fd5b815162000387620003818262000688565b6200065a565b91508181835260208401935060208101905083856020840282011115620003ad57600080fd5b60005b83811015620003e15781620003c6888262000347565b845260208401935060208301925050600181019050620003b0565b5050505092915050565b600082601f830112620003fd57600080fd5b8151620004146200040e82620006b1565b6200065a565b915081818352602084019350602081019050838560208402820111156200043a57600080fd5b60005b838110156200046e578162000453888262000478565b8452602084019350602083019250506001810190506200043d565b5050505092915050565b600081519050620004898162000743565b92915050565b60008060008060808587031215620004a657600080fd5b6000620004b68782880162000347565b945050602085015167ffffffffffffffff811115620004d457600080fd5b620004e287828801620003eb565b935050604085015167ffffffffffffffff8111156200050057600080fd5b6200050e878288016200035e565b925050606085015167ffffffffffffffff8111156200052c57600080fd5b6200053a878288016200035e565b91505092959194509250565b600062000555602483620006da565b91507f70726f766964656420636f6e7472616374206973206e6f742077686974656c6960008301527f73746564000000000000000000000000000000000000000000000000000000006020830152604082019050919050565b6000620005bd603c83620006da565b91507f696e697469616c5265736f7572636549447320616e6420696e697469616c436f60008301527f6e7472616374416464726573736573206c656e206d69736d61746368000000006020830152604082019050919050565b60006020820190508181036000830152620006318162000546565b9050919050565b600060208201905081810360008301526200065381620005ae565b9050919050565b6000604051905081810181811067ffffffffffffffff821117156200067e57600080fd5b8060405250919050565b600067ffffffffffffffff821115620006a057600080fd5b602082029050602081019050919050565b600067ffffffffffffffff821115620006c957600080fd5b602082029050602081019050919050565b600082825260208201905092915050565b6000620006f88262000709565b9050919050565b6000819050919050565b600073ffffffffffffffffffffffffffffffffffffffff82169050919050565b6200073481620006eb565b81146200074057600080fd5b50565b6200074e81620006ff565b81146200075a57600080fd5b50565b611e1d806200076d6000396000f3fe608060405234801561001057600080fd5b50600436106100b45760003560e01c80637f79bea8116100715780637f79bea8146101a5578063b8fa3736146101d5578063ba484c09146101f1578063c8ba6c8714610221578063d9caed1214610251578063e248cff21461026d576100b4565b806307b7ed99146100b95780630a6d55d8146100d5578063318c136e1461010557806338995da9146101235780634402027f1461013f5780636a70d08114610175575b600080fd5b6100d360048036038101906100ce91906113bd565b610289565b005b6100ef60048036038101906100ea919061145e565b61029d565b6040516100fc9190611a34565b60405180910390f35b61010d6102d0565b60405161011a9190611a34565b60405180910390f35b61013d6004803603810190610138919061151b565b6102f4565b005b610159600480360381019061015491906115e9565b61061c565b60405161016c9796959493929190611aaf565b60405180910390f35b61018f600480360381019061018a91906113bd565b61075d565b60405161019c9190611b25565b60405180910390f35b6101bf60048036038101906101ba91906113bd565b61077d565b6040516101cc9190611b25565b60405180910390f35b6101ef60048036038101906101ea9190611487565b61079d565b005b61020b600480360381019061020691906115ad565b6107b3565b6040516102189190611c3b565b60405180910390f35b61023b600480360381019061023691906113bd565b6109a8565b6040516102489190611b40565b60405180910390f35b61026b600480360381019061026691906113e6565b6109c0565b005b610287600480360381019061028291906114c3565b6109d8565b005b610291610b76565b61029a81610c06565b50565b60016020528060005260406000206000915054906101000a900473ffffffffffffffffffffffffffffffffffffffff1681565b60008054906101000a900473ffffffffffffffffffffffffffffffffffffffff1681565b6102fc610b76565b606060008060c4359150604051925060e435905080830160200160405260e4360360e484376000600160008b815260200190815260200160002060009054906101000a900473ffffffffffffffffffffffffffffffffffffffff169050600360008273ffffffffffffffffffffffffffffffffffffffff1673ffffffffffffffffffffffffffffffffffffffff16815260200190815260200160002060009054906101000a900460ff166103e5576040517f08c379a00000000000000000000000000000000000000000000000000000000081526004016103dc90611c1b565b60405180910390fd5b600460008273ffffffffffffffffffffffffffffffffffffffff1673ffffffffffffffffffffffffffffffffffffffff16815260200190815260200160002060009054906101000a900460ff161561044757610442818885610ced565b610454565b61045381883086610d65565b5b6040518060e001604052808273ffffffffffffffffffffffffffffffffffffffff1681526020018360ff1681526020018a60ff1681526020018b81526020018581526020018873ffffffffffffffffffffffffffffffffffffffff1681526020016104cb620f424086610d7d90919063ffffffff16565b815250600560008b60ff1660ff16815260200190815260200160002060008a67ffffffffffffffff1667ffffffffffffffff16815260200190815260200160002060008201518160000160006101000a81548173ffffffffffffffffffffffffffffffffffffffff021916908373ffffffffffffffffffffffffffffffffffffffff16021790555060208201518160000160146101000a81548160ff021916908360ff16021790555060408201518160000160156101000a81548160ff021916908360ff1602179055506060820151816001015560808201518160020190805190602001906105bb9291906111e6565b5060a08201518160030160006101000a81548173ffffffffffffffffffffffffffffffffffffffff021916908373ffffffffffffffffffffffffffffffffffffffff16021790555060c0820151816004015590505050505050505050505050565b6005602052816000526040600020602052806000526040600020600091509150508060000160009054906101000a900473ffffffffffffffffffffffffffffffffffffffff16908060000160149054906101000a900460ff16908060000160159054906101000a900460ff1690806001015490806002018054600181600116156101000203166002900480601f0160208091040260200160405190810160405280929190818152602001828054600181600116156101000203166002900480156107275780601f106106fc57610100808354040283529160200191610727565b820191906000526020600020905b81548152906001019060200180831161070a57829003601f168201915b5050505050908060030160009054906101000a900473ffffffffffffffffffffffffffffffffffffffff16908060040154905087565b60046020528060005260406000206000915054906101000a900460ff1681565b60036020528060005260406000206000915054906101000a900460ff1681565b6107a5610b76565b6107af8282610dd3565b5050565b6107bb611266565b600560008360ff1660ff16815260200190815260200160002060008467ffffffffffffffff1667ffffffffffffffff1681526020019081526020016000206040518060e00160405290816000820160009054906101000a900473ffffffffffffffffffffffffffffffffffffffff1673ffffffffffffffffffffffffffffffffffffffff1673ffffffffffffffffffffffffffffffffffffffff1681526020016000820160149054906101000a900460ff1660ff1660ff1681526020016000820160159054906101000a900460ff1660ff1660ff16815260200160018201548152602001600282018054600181600116156101000203166002900480601f0160208091040260200160405190810160405280929190818152602001828054600181600116156101000203166002900480156109375780601f1061090c57610100808354040283529160200191610937565b820191906000526020600020905b81548152906001019060200180831161091a57829003601f168201915b505050505081526020016003820160009054906101000a900473ffffffffffffffffffffffffffffffffffffffff1673ffffffffffffffffffffffffffffffffffffffff1673ffffffffffffffffffffffffffffffffffffffff168152602001600482015481525050905092915050565b60026020528060005260406000206000915090505481565b6109c8610b76565b6109d3838383610ec5565b505050565b6109e0610b76565b60006060606435915060405190506084358082016020016040526084360360848337506000806001600088815260200190815260200160002060009054906101000a900473ffffffffffffffffffffffffffffffffffffffff16905060208301519150600360008273ffffffffffffffffffffffffffffffffffffffff1673ffffffffffffffffffffffffffffffffffffffff16815260200190815260200160002060009054906101000a900460ff16610acf576040517f08c379a0000000000000000000000000000000000000000000000000000000008152600401610ac690611c1b565b60405180910390fd5b600460008273ffffffffffffffffffffffffffffffffffffffff1673ffffffffffffffffffffffffffffffffffffffff16815260200190815260200160002060009054906101000a900460ff1615610b4957610b44818360601c610b3f620f424088610edb90919063ffffffff16565b610f4b565b610b6d565b610b6c818360601c610b67620f424088610edb90919063ffffffff16565b610ec5565b5b50505050505050565b60008054906101000a900473ffffffffffffffffffffffffffffffffffffffff1673ffffffffffffffffffffffffffffffffffffffff163373ffffffffffffffffffffffffffffffffffffffff1614610c04576040517f08c379a0000000000000000000000000000000000000000000000000000000008152600401610bfb90611b7b565b60405180910390fd5b565b600360008273ffffffffffffffffffffffffffffffffffffffff1673ffffffffffffffffffffffffffffffffffffffff16815260200190815260200160002060009054906101000a900460ff16610c92576040517f08c379a0000000000000000000000000000000000000000000000000000000008152600401610c8990611b9b565b60405180910390fd5b6001600460008373ffffffffffffffffffffffffffffffffffffffff1673ffffffffffffffffffffffffffffffffffffffff16815260200190815260200160002060006101000a81548160ff02191690831515021790555050565b60008390508073ffffffffffffffffffffffffffffffffffffffff166379cc679084846040518363ffffffff1660e01b8152600401610d2d929190611a86565b600060405180830381600087803b158015610d4757600080fd5b505af1158015610d5b573d6000803e3d6000fd5b5050505050505050565b6000849050610d7681858585610fc3565b5050505050565b6000808211610dc1576040517f08c379a0000000000000000000000000000000000000000000000000000000008152600401610db890611bdb565b60405180910390fd5b818381610dca57fe5b04905092915050565b806001600084815260200190815260200160002060006101000a81548173ffffffffffffffffffffffffffffffffffffffff021916908373ffffffffffffffffffffffffffffffffffffffff16021790555081600260008373ffffffffffffffffffffffffffffffffffffffff1673ffffffffffffffffffffffffffffffffffffffff168152602001908152602001600020819055506001600360008373ffffffffffffffffffffffffffffffffffffffff1673ffffffffffffffffffffffffffffffffffffffff16815260200190815260200160002060006101000a81548160ff0219169083151502179055505050565b6000839050610ed581848461104c565b50505050565b600080831415610eee5760009050610f45565b6000828402905082848281610eff57fe5b0414610f40576040517f08c379a0000000000000000000000000000000000000000000000000000000008152600401610f3790611bfb565b60405180910390fd5b809150505b92915050565b60008390508073ffffffffffffffffffffffffffffffffffffffff166340c10f1984846040518363ffffffff1660e01b8152600401610f8b929190611a86565b600060405180830381600087803b158015610fa557600080fd5b505af1158015610fb9573d6000803e3d6000fd5b5050505050505050565b611046846323b872dd60e01b858585604051602401610fe493929190611a4f565b604051602081830303815290604052907bffffffffffffffffffffffffffffffffffffffffffffffffffffffff19166020820180517bffffffffffffffffffffffffffffffffffffffffffffffffffffffff83818316178352505050506110d2565b50505050565b6110cd8363a9059cbb60e01b848460405160240161106b929190611a86565b604051602081830303815290604052907bffffffffffffffffffffffffffffffffffffffffffffffffffffffff19166020820180517bffffffffffffffffffffffffffffffffffffffffffffffffffffffff83818316178352505050506110d2565b505050565b600060608373ffffffffffffffffffffffffffffffffffffffff16836040516110fb9190611a1d565b6000604051808303816000865af19150503d8060008114611138576040519150601f19603f3d011682016040523d82523d6000602084013e61113d565b606091505b509150915081611182576040517f08c379a000000000000000000000000000000000000000000000000000000000815260040161117990611bbb565b60405180910390fd5b6000815111156111e057808060200190518101906111a09190611435565b6111df576040517f08c379a00000000000000000000000000000000000000000000000000000000081526004016111d690611b5b565b60405180910390fd5b5b50505050565b828054600181600116156101000203166002900490600052602060002090601f016020900481019282601f1061122757805160ff1916838001178555611255565b82800160010185558215611255579182015b82811115611254578251825591602001919060010190611239565b5b50905061126291906112d8565b5090565b6040518060e00160405280600073ffffffffffffffffffffffffffffffffffffffff168152602001600060ff168152602001600060ff1681526020016000801916815260200160608152602001600073ffffffffffffffffffffffffffffffffffffffff168152602001600081525090565b5b808211156112f15760008160009055506001016112d9565b5090565b60008135905061130481611d5d565b92915050565b60008151905061131981611d74565b92915050565b60008135905061132e81611d8b565b92915050565b60008083601f84011261134657600080fd5b8235905067ffffffffffffffff81111561135f57600080fd5b60208301915083600182028301111561137757600080fd5b9250929050565b60008135905061138d81611da2565b92915050565b6000813590506113a281611db9565b92915050565b6000813590506113b781611dd0565b92915050565b6000602082840312156113cf57600080fd5b60006113dd848285016112f5565b91505092915050565b6000806000606084860312156113fb57600080fd5b6000611409868287016112f5565b935050602061141a868287016112f5565b925050604061142b8682870161137e565b9150509250925092565b60006020828403121561144757600080fd5b60006114558482850161130a565b91505092915050565b60006020828403121561147057600080fd5b600061147e8482850161131f565b91505092915050565b6000806040838503121561149a57600080fd5b60006114a88582860161131f565b92505060206114b9858286016112f5565b9150509250929050565b6000806000604084860312156114d857600080fd5b60006114e68682870161131f565b935050602084013567ffffffffffffffff81111561150357600080fd5b61150f86828701611334565b92509250509250925092565b60008060008060008060a0878903121561153457600080fd5b600061154289828a0161131f565b965050602061155389828a016113a8565b955050604061156489828a01611393565b945050606061157589828a016112f5565b935050608087013567ffffffffffffffff81111561159257600080fd5b61159e89828a01611334565b92509250509295509295509295565b600080604083850312156115c057600080fd5b60006115ce85828601611393565b92505060206115df858286016113a8565b9150509250929050565b600080604083850312156115fc57600080fd5b600061160a858286016113a8565b925050602061161b85828601611393565b9150509250929050565b61162e81611ca6565b82525050565b61163d81611ca6565b82525050565b61164c81611cb8565b82525050565b61165b81611cc4565b82525050565b61166a81611cc4565b82525050565b600061167b82611c5d565b6116858185611c68565b9350611695818560208601611d19565b61169e81611d4c565b840191505092915050565b60006116b482611c5d565b6116be8185611c79565b93506116ce818560208601611d19565b6116d781611d4c565b840191505092915050565b60006116ed82611c5d565b6116f78185611c8a565b9350611707818560208601611d19565b80840191505092915050565b6000611720602083611c95565b91507f45524332303a206f7065726174696f6e20646964206e6f7420737563636565646000830152602082019050919050565b6000611760601e83611c95565b91507f73656e646572206d7573742062652062726964676520636f6e747261637400006000830152602082019050919050565b60006117a0602483611c95565b91507f70726f766964656420636f6e7472616374206973206e6f742077686974656c6960008301527f73746564000000000000000000000000000000000000000000000000000000006020830152604082019050919050565b6000611806601283611c95565b91507f45524332303a2063616c6c206661696c656400000000000000000000000000006000830152602082019050919050565b6000611846601a83611c95565b91507f536166654d6174683a206469766973696f6e206279207a65726f0000000000006000830152602082019050919050565b6000611886602183611c95565b91507f536166654d6174683a206d756c7469706c69636174696f6e206f766572666c6f60008301527f77000000000000000000000000000000000000000000000000000000000000006020830152604082019050919050565b60006118ec602883611c95565b91507f70726f766964656420746f6b656e41646472657373206973206e6f742077686960008301527f74656c69737465640000000000000000000000000000000000000000000000006020830152604082019050919050565b600060e08301600083015161195d6000860182611625565b50602083015161197060208601826119ff565b50604083015161198360408601826119ff565b5060608301516119966060860182611652565b50608083015184820360808601526119ae8282611670565b91505060a08301516119c360a0860182611625565b5060c08301516119d660c08601826119e1565b508091505092915050565b6119ea81611cee565b82525050565b6119f981611cee565b82525050565b611a0881611d0c565b82525050565b611a1781611d0c565b82525050565b6000611a2982846116e2565b915081905092915050565b6000602082019050611a496000830184611634565b92915050565b6000606082019050611a646000830186611634565b611a716020830185611634565b611a7e60408301846119f0565b949350505050565b6000604082019050611a9b6000830185611634565b611aa860208301846119f0565b9392505050565b600060e082019050611ac4600083018a611634565b611ad16020830189611a0e565b611ade6040830188611a0e565b611aeb6060830187611661565b8181036080830152611afd81866116a9565b9050611b0c60a0830185611634565b611b1960c08301846119f0565b98975050505050505050565b6000602082019050611b3a6000830184611643565b92915050565b6000602082019050611b556000830184611661565b92915050565b60006020820190508181036000830152611b7481611713565b9050919050565b60006020820190508181036000830152611b9481611753565b9050919050565b60006020820190508181036000830152611bb481611793565b9050919050565b60006020820190508181036000830152611bd4816117f9565b9050919050565b60006020820190508181036000830152611bf481611839565b9050919050565b60006020820190508181036000830152611c1481611879565b9050919050565b60006020820190508181036000830152611c34816118df565b9050919050565b60006020820190508181036000830152611c558184611945565b905092915050565b600081519050919050565b600082825260208201905092915050565b600082825260208201905092915050565b600081905092915050565b600082825260208201905092915050565b6000611cb182611cce565b9050919050565b60008115159050919050565b6000819050919050565b600073ffffffffffffffffffffffffffffffffffffffff82169050919050565b6000819050919050565b600067ffffffffffffffff82169050919050565b600060ff82169050919050565b60005b83811015611d37578082015181840152602081019050611d1c565b83811115611d46576000848401525b50505050565b6000601f19601f8301169050919050565b611d6681611ca6565b8114611d7157600080fd5b50565b611d7d81611cb8565b8114611d8857600080fd5b50565b611d9481611cc4565b8114611d9f57600080fd5b50565b611dab81611cee565b8114611db657600080fd5b50565b611dc281611cf8565b8114611dcd57600080fd5b50565b611dd981611d0c565b8114611de457600080fd5b5056fea26469706673582212205dcdef08e8547d0e57aa660524252f797b95202ff245501c849542ebc56bbebc64736f6c63430007000033",
  "immutableReferences": {},
  "source": "pragma solidity 0.7.0;\npragma experimental ABIEncoderV2;\n\nimport \"../interfaces/IDepositExecute.sol\";\nimport \"./HandlerHelpers.sol\";\nimport \"../ERC20Safe.sol\";\nimport \"@openzeppelin/contracts/presets/ERC20PresetMinterPauser.sol\";\nimport \"@openzeppelin/contracts/math/SafeMath.sol\";\n\n/**\n    @title Handles ERC20 deposits and deposit executions.\n    @author ChainSafe Systems.\n    @notice This contract is intended to be used with the Bridge contract.\n */\ncontract ERC20Handler is IDepositExecute, HandlerHelpers, ERC20Safe {\n    using SafeMath for uint256;\n\n    struct DepositRecord {\n        address _tokenAddress;\n        uint8    _lenDestinationRecipientAddress;\n        uint8   _destinationChainID;\n        bytes32 _resourceID;\n        bytes   _destinationRecipientAddress;\n        address _depositer;\n        uint    _amount;\n    }\n\n    // depositNonce => Deposit Record\n    mapping (uint8 => mapping(uint64 => DepositRecord)) public _depositRecords;\n\n    /**\n        @param bridgeAddress Contract address of previously deployed Bridge.\n        @param initialResourceIDs Resource IDs are used to identify a specific contract address.\n        These are the Resource IDs this contract will initially support.\n        @param initialContractAddresses These are the addresses the {initialResourceIDs} will point to, and are the contracts that will be\n        called to perform various deposit calls.\n        @param burnableContractAddresses These addresses will be set as burnable and when {deposit} is called, the deposited token will be burned.\n        When {executeProposal} is called, new tokens will be minted.\n\n        @dev {initialResourceIDs} and {initialContractAddresses} must have the same length (one resourceID for every address).\n        Also, these arrays must be ordered in the way that {initialResourceIDs}[0] is the intended resourceID for {initialContractAddresses}[0].\n     */\n    constructor(\n        address          bridgeAddress,\n        bytes32[] memory initialResourceIDs,\n        address[] memory initialContractAddresses,\n        address[] memory burnableContractAddresses\n    ) public {\n        require(initialResourceIDs.length == initialContractAddresses.length,\n            \"initialResourceIDs and initialContractAddresses len mismatch\");\n\n        _bridgeAddress = bridgeAddress;\n\n        uint256 initialCount = initialResourceIDs.length;\n        for (uint256 i = 0; i < initialCount; i++) {\n            _setResource(initialResourceIDs[i], initialContractAddresses[i]);\n        }\n\n        uint256 burnableCount = burnableContractAddresses.length;\n        for (uint256 i = 0; i < burnableCount; i++) {\n            _setBurnable(burnableContractAddresses[i]);\n        }\n    }\n\n    /**\n        @param depositNonce This ID will have been generated by the Bridge contract.\n        @param destId ID of chain deposit will be bridged to.\n        @return DepositRecord which consists of:\n        - _tokenAddress Address used when {deposit} was executed.\n        - _destinationChainID ChainID deposited tokens are intended to end up on.\n        - _resourceID ResourceID used when {deposit} was executed.\n        - _lenDestinationRecipientAddress Used to parse recipient's address from {_destinationRecipientAddress}\n        - _destinationRecipientAddress Address tokens are intended to be deposited to on desitnation chain.\n        - _depositer Address that initially called {deposit} in the Bridge contract.\n        - _amount Amount of tokens that were deposited.\n    */\n    function getDepositRecord(uint64 depositNonce, uint8 destId) external view returns (DepositRecord memory) {\n        return _depositRecords[destId][depositNonce];\n    }\n\n    /**\n        @notice A deposit is initiatied by making a deposit in the Bridge contract.\n        @param destinationChainID Chain ID of chain tokens are expected to be bridged to.\n        @param depositNonce This value is generated as an ID by the Bridge contract.\n        @param depositer Address of account making the deposit in the Bridge contract.\n        @param data Consists of: {resourceID}, {amount}, {lenRecipientAddress}, and {recipientAddress}\n        all padded to 32 bytes.\n        @notice Data passed into the function should be constructed as follows:\n        amount                      uint256     bytes   0 - 32\n        recipientAddress length     uint256     bytes  32 - 64\n        recipientAddress            bytes       bytes  64 - END\n        @dev Depending if the corresponding {tokenAddress} for the parsed {resourceID} is\n        marked true in {_burnList}, deposited tokens will be burned, if not, they will be locked.\n     */\n    function deposit(\n        bytes32 resourceID,\n        uint8   destinationChainID,\n        uint64  depositNonce,\n        address depositer,\n        bytes   calldata data\n    ) external override onlyBridge {\n        bytes   memory recipientAddress;\n        uint256        amount;\n        uint256        lenRecipientAddress;\n\n        assembly {\n\n            amount := calldataload(0xC4)\n\n            recipientAddress := mload(0x40)\n            lenRecipientAddress := calldataload(0xE4)\n            mstore(0x40, add(0x20, add(recipientAddress, lenRecipientAddress)))\n\n            calldatacopy(\n                recipientAddress, // copy to destinationRecipientAddress\n                0xE4, // copy from calldata @ 0x104\n                sub(calldatasize(), 0xE4) // copy size (calldatasize - 0x104)\n            )\n        }\n\n        address tokenAddress = _resourceIDToTokenContractAddress[resourceID];\n        require(_contractWhitelist[tokenAddress], \"provided tokenAddress is not whitelisted\");\n\n        if (_burnList[tokenAddress]) {\n            burnERC20(tokenAddress, depositer, amount);\n        } else {\n            lockERC20(tokenAddress, depositer, address(this), amount);\n        }\n\n        _depositRecords[destinationChainID][depositNonce] = DepositRecord(\n            tokenAddress,\n            uint8(lenRecipientAddress),\n            destinationChainID,\n            resourceID,\n            recipientAddress,\n            depositer,\n            amount.div(1e6) // Make it compatible with substrate token decimal\n        );\n    }\n\n    /**\n        @notice Proposal execution should be initiated when a proposal is finalized in the Bridge contract.\n        by a relayer on the deposit's destination chain.\n        @param data Consists of {resourceID}, {amount}, {lenDestinationRecipientAddress},\n        and {destinationRecipientAddress} all padded to 32 bytes.\n        @notice Data passed into the function should be constructed as follows:\n        amount                                 uint256     bytes  0 - 32\n        destinationRecipientAddress length     uint256     bytes  32 - 64\n        destinationRecipientAddress            bytes       bytes  64 - END\n     */\n    function executeProposal(bytes32 resourceID, bytes calldata data) external override onlyBridge {\n        uint256       amount;\n        bytes  memory destinationRecipientAddress;\n\n        assembly {\n            amount := calldataload(0x64)\n\n            destinationRecipientAddress := mload(0x40)\n            let lenDestinationRecipientAddress := calldataload(0x84)\n            mstore(0x40, add(0x20, add(destinationRecipientAddress, lenDestinationRecipientAddress)))\n\n            // in the calldata the destinationRecipientAddress is stored at 0xC4 after accounting for the function signature and length declaration\n            calldatacopy(\n                destinationRecipientAddress, // copy to destinationRecipientAddress\n                0x84, // copy from calldata @ 0x84\n                sub(calldatasize(), 0x84) // copy size to the end of calldata\n            )\n        }\n\n        bytes20 recipientAddress;\n        address tokenAddress = _resourceIDToTokenContractAddress[resourceID];\n\n        assembly {\n            recipientAddress := mload(add(destinationRecipientAddress, 0x20))\n        }\n\n        require(_contractWhitelist[tokenAddress], \"provided tokenAddress is not whitelisted\");\n\n        if (_burnList[tokenAddress]) {\n            // amount.mul(1e6): Make it compatible with substrate token decimal\n            mintERC20(tokenAddress, address(recipientAddress), amount.mul(1e6));\n        } else {\n            // amount.mul(1e6): Make it compatible with substrate token decimal\n            releaseERC20(tokenAddress, address(recipientAddress), amount.mul(1e6));\n        }\n    }\n\n    /**\n        @notice Used to manually release ERC20 tokens from ERC20Safe.\n        @param tokenAddress Address of token contract to release.\n        @param recipient Address to release tokens to.\n        @param amount The amount of ERC20 tokens to release.\n     */\n    function withdraw(address tokenAddress, address recipient, uint amount) external override onlyBridge {\n        releaseERC20(tokenAddress, recipient, amount);\n    }\n}\n",
  "sourcePath": "/home/tolak/workspace/phala/chainbridge-solidity/contracts/handlers/ERC20Handler.sol",
  "compiler": {
    "name": "solc",
    "version": "0.7.0+commit.9e61f92b.Emscripten.clang"
  },
  "schemaVersion": "3.4.3",
  "updatedAt": "2021-10-29T14:17:40.978Z",
  "devdoc": {
    "author": "ChainSafe Systems.",
    "kind": "dev",
    "methods": {
      "constructor": {
        "details": "{initialResourceIDs} and {initialContractAddresses} must have the same length (one resourceID for every address). Also, these arrays must be ordered in the way that {initialResourceIDs}[0] is the intended resourceID for {initialContractAddresses}[0].",
        "params": {
          "bridgeAddress": "Contract address of previously deployed Bridge.",
          "burnableContractAddresses": "These addresses will be set as burnable and when {deposit} is called, the deposited token will be burned. When {executeProposal} is called, new tokens will be minted.",
          "initialContractAddresses": "These are the addresses the {initialResourceIDs} will point to, and are the contracts that will be called to perform various deposit calls.",
          "initialResourceIDs": "Resource IDs are used to identify a specific contract address. These are the Resource IDs this contract will initially support."
        }
      },
      "deposit(bytes32,uint8,uint64,address,bytes)": {
        "details": "Depending if the corresponding {tokenAddress} for the parsed {resourceID} is marked true in {_burnList}, deposited tokens will be burned, if not, they will be locked.",
        "params": {
          "data": "Consists of: {resourceID}, {amount}, {lenRecipientAddress}, and {recipientAddress} all padded to 32 bytes.",
          "depositNonce": "This value is generated as an ID by the Bridge contract.",
          "depositer": "Address of account making the deposit in the Bridge contract.",
          "destinationChainID": "Chain ID of chain tokens are expected to be bridged to."
        }
      },
      "executeProposal(bytes32,bytes)": {
        "params": {
          "data": "Consists of {resourceID}, {amount}, {lenDestinationRecipientAddress}, and {destinationRecipientAddress} all padded to 32 bytes."
        }
      },
      "getDepositRecord(uint64,uint8)": {
        "params": {
          "depositNonce": "This ID will have been generated by the Bridge contract.",
          "destId": "ID of chain deposit will be bridged to."
        },
        "returns": {
          "_0": "DepositRecord which consists of: - _tokenAddress Address used when {deposit} was executed. - _destinationChainID ChainID deposited tokens are intended to end up on. - _resourceID ResourceID used when {deposit} was executed. - _lenDestinationRecipientAddress Used to parse recipient's address from {_destinationRecipientAddress} - _destinationRecipientAddress Address tokens are intended to be deposited to on desitnation chain. - _depositer Address that initially called {deposit} in the Bridge contract. - _amount Amount of tokens that were deposited."
        }
      },
      "setBurnable(address)": {
        "params": {
          "contractAddress": "Address of contract to be used when making or executing deposits."
        }
      },
      "setResource(bytes32,address)": {
        "params": {
          "contractAddress": "Address of contract to be called when a deposit is made and a deposited is executed.",
          "resourceID": "ResourceID to be used when making deposits."
        }
      },
      "withdraw(address,address,uint256)": {
        "params": {
          "amount": "The amount of ERC20 tokens to release.",
          "recipient": "Address to release tokens to.",
          "tokenAddress": "Address of token contract to release."
        }
      }
    },
    "title": "Handles ERC20 deposits and deposit executions.",
    "version": 1
  },
  "userdoc": {
    "kind": "user",
    "methods": {
      "deposit(bytes32,uint8,uint64,address,bytes)": {
        "notice": "A deposit is initiatied by making a deposit in the Bridge contract.Data passed into the function should be constructed as follows: amount                      uint256     bytes   0 - 32 recipientAddress length     uint256     bytes  32 - 64 recipientAddress            bytes       bytes  64 - END"
      },
      "executeProposal(bytes32,bytes)": {
        "notice": "Proposal execution should be initiated when a proposal is finalized in the Bridge contract. by a relayer on the deposit's destination chain.Data passed into the function should be constructed as follows: amount                                 uint256     bytes  0 - 32 destinationRecipientAddress length     uint256     bytes  32 - 64 destinationRecipientAddress            bytes       bytes  64 - END"
      },
      "setBurnable(address)": {
        "notice": "First verifies {contractAddress} is whitelisted, then sets {_burnList}[{contractAddress}] to true."
      },
      "setResource(bytes32,address)": {
        "notice": "First verifies {_resourceIDToContractAddress}[{resourceID}] and {_contractAddressToResourceID}[{contractAddress}] are not already set, then sets {_resourceIDToContractAddress} with {contractAddress}, {_contractAddressToResourceID} with {resourceID}, and {_contractWhitelist} to true for {contractAddress}."
      },
      "withdraw(address,address,uint256)": {
        "notice": "Used to manually release ERC20 tokens from ERC20Safe."
      }
    },
    "notice": "This contract is intended to be used with the Bridge contract.",
    "version": 1
  }
}